{
  "_format": "hh-sol-artifact-1",
  "contractName": "BN256G2Helper",
  "sourceName": "test/BN256G2Helper.sol",
  "abi": [
    {
      "inputs": [
        {
          "internalType": "uint256[8]",
          "name": "input",
          "type": "uint256[8]"
        }
      ],
      "name": "_ecTwistAdd",
      "outputs": [
        {
          "internalType": "uint256[4]",
          "name": "result",
          "type": "uint256[4]"
        }
      ],
      "stateMutability": "view",
      "type": "function"
    },
    {
      "inputs": [
        {
          "internalType": "uint256[5]",
          "name": "input",
          "type": "uint256[5]"
        }
      ],
      "name": "_ecTwistMul",
      "outputs": [
        {
          "internalType": "uint256[4]",
          "name": "result",
          "type": "uint256[4]"
        }
      ],
      "stateMutability": "view",
      "type": "function"
    }
  ],
  "bytecode": "0x60806040523480156100195760008061001661001f565b50505b5061008d565b632a2a7adb598160e01b8152600481016020815285602082015260005b8681101561005a57808601518160408401015260208101905061003c565b506020828760640184336000905af158600e01573d6000803e3d6000fd5b3d6001141558600a015760016000f35b505050565b611d658061009c6000396000f3fe608060405234801561001957600080610016611b8d565b50505b506004361061003f5760003560e01c8063aab6f13c1461004d578063cc2e4d31146100f9575b60008061004a611b8d565b50505b6100bb600480360361010081101561006d5760008061006a611b8d565b50505b810190808061010001906008806020026040519081016040528092919082600860200280828437600081840152601f19601f82011690508083019250505050505091929192905050506101a3565b6040518082600460200280838360005b838110156100e65780820151818401526020810190506100cb565b5050505090500191505060405180910390f35b610165600480360360a081101561011857600080610115611b8d565b50505b810190808060a001906005806020026040519081016040528092919082600560200280828437600081840152601f19601f82011690508083019250505050505091929192905050506102a0565b6040518082600460200280838360005b83811015610190578082015181840152602081019050610175565b5050505090500191505060405180910390f35b6101ab611bfb565b610243826000600881106101bb57fe5b6020020151836001600881106101cd57fe5b6020020151846002600881106101df57fe5b6020020151856003600881106101f157fe5b60200201518660046008811061020357fe5b60200201518760056008811061021557fe5b60200201518860066008811061022757fe5b60200201518960076008811061023957fe5b6020020151610367565b8460006004811061025057fe5b602002018560016004811061026157fe5b602002018660026004811061027257fe5b602002018760036004811061028357fe5b602002018481525084815250848152508481525050505050919050565b6102a8611bfb565b61030a826000600581106102b857fe5b6020020151836001600581106102ca57fe5b6020020151846002600581106102dc57fe5b6020020151856003600581106102ee57fe5b60200201518660046005811061030057fe5b60200201516106db565b8460006004811061031757fe5b602002018560016004811061032857fe5b602002018660026004811061033957fe5b602002018760036004811061034a57fe5b602002018481525084815250848152508481525050505050919050565b60008060008060008c14801561037d575060008b145b8015610389575060008a145b80156103955750600089145b1561045f576000881480156103aa5750600087145b80156103b65750600086145b80156103c25750600085145b61044e576103d28888888861084b565b61044d576040517f08c379a00000000000000000000000000000000000000000000000000000000081526004018080602001828103825260128152602001807f706f696e74206e6f7420696e20637572766500000000000000000000000000008152506020019150506040518091039061044a611b8d565b50505b5b8787878793509350935093506106cc565b60008814801561046f5750600087145b801561047b5750600086145b80156104875750600085145b15610524576104988c8c8c8c61084b565b610513576040517f08c379a00000000000000000000000000000000000000000000000000000000081526004018080602001828103825260128152602001807f706f696e74206e6f7420696e206375727665000000000000000000000000000081525060200191505060405180910390610510611b8d565b50505b8b8b8b8b93509350935093506106cc565b6105308c8c8c8c61084b565b6105ab576040517f08c379a00000000000000000000000000000000000000000000000000000000081526004018080602001828103825260128152602001807f706f696e74206e6f7420696e2063757276650000000000000000000000000000815250602001915050604051809103906105a8611b8d565b50505b6105b78888888861084b565b610632576040517f08c379a00000000000000000000000000000000000000000000000000000000081526004018080602001828103825260128152602001807f706f696e74206e6f7420696e20637572766500000000000000000000000000008152506020019150506040518091039061062f611b8d565b50505b600061064c8d8d8d8d600160008f8f8f8f60016000610914565b90506106c28160006006811061065e57fe5b60200201518260016006811061067057fe5b60200201518360026006811061068257fe5b60200201518460036006811061069457fe5b6020020151856004600681106106a657fe5b6020020151866005600681106106b857fe5b6020020151610eea565b9450945094509450505b98509850985098945050505050565b6000806000806000600190506000891480156106f75750600088145b80156107035750600087145b801561070f5750600086145b15610725576001985060019650600090506107ad565b6107318989898961084b565b6107ac576040517f08c379a00000000000000000000000000000000000000000000000000000000081526004018080602001828103825260128152602001807f706f696e74206e6f7420696e2063757276650000000000000000000000000000815250602001915050604051809103906107a9611b8d565b50505b5b60006107bf8b8b8b8b8b876000610fdd565b9050610835816000600681106107d157fe5b6020020151826001600681106107e357fe5b6020020151836002600681106107f557fe5b60200201518460036006811061080757fe5b60200201518560046006811061081957fe5b60200201518660056006811061082b57fe5b6020020151610eea565b9550955095509550505095509550955095915050565b600080600080600061085f878789896110c5565b809450819550505061087389898b8b6110c5565b809250819350505061088782828b8b6110c5565b809250819350505061089b848484846111d3565b80945081955050506108ee84847f2b149d40ceb8aaae81be18991be06ac3b5b4c5e559dbefa33267e6dc24a138e57e9713b03af0fed4cd2cafadeed8fdf4a74fa084e52d1852e4a2bd0685c315d26111d3565b80945081955050506000841480156109065750600083145b945050505050949350505050565b61091c611c1d565b60008914801561092c5750600088145b156109c0578686868686868660006006811061094457fe5b602002018760016006811061095557fe5b602002018860026006811061096657fe5b602002018960036006811061097757fe5b602002018a60046006811061098857fe5b602002018b60056006811061099957fe5b60200201868152508681525086815250868152508681525086815250505050505050610eda565b6000831480156109d05750600082145b15610a64578c8c8c8c8c8c866000600681106109e857fe5b60200201876001600681106109f957fe5b6020020188600260068110610a0a57fe5b6020020189600360068110610a1b57fe5b602002018a600460068110610a2c57fe5b602002018b600560068110610a3d57fe5b60200201868152508681525086815250868152508681525086815250505050505050610eda565b610a7085858b8b6110c5565b8095508196505050610a848b8b85856110c5565b82600260068110610a9157fe5b6020020183600360068110610aa257fe5b6020020182815250828152505050610abc87878b8b6110c5565b8097508198505050610ad08d8d85856110c5565b82600460068110610add57fe5b6020020183600560068110610aee57fe5b602002018281525082815250505080600460068110610b0957fe5b602002015187148015610b2c575080600560068110610b2457fe5b602002015186145b15610c915780600260068110610b3e57fe5b602002015185148015610b61575080600360068110610b5957fe5b602002015184145b15610bfd57610b748d8d8d8d8d8d611239565b86600060068110610b8157fe5b6020020187600160068110610b9257fe5b6020020188600260068110610ba357fe5b6020020189600360068110610bb457fe5b602002018a600460068110610bc557fe5b602002018b600560068110610bd657fe5b60200201868152508681525086815250868152508681525086815250505050505050610eda565b600160006001600080600086600060068110610c1557fe5b6020020187600160068110610c2657fe5b6020020188600260068110610c3757fe5b6020020189600360068110610c4857fe5b602002018a600460068110610c5957fe5b602002018b600560068110610c6a57fe5b60200201868152508681525086815250868152508681525086815250505050505050610eda565b610c9d898985856110c5565b8093508194505050610cd3858583600260068110610cb757fe5b602002015184600360068110610cc957fe5b60200201516111d3565b809d50819e505050610d09878783600460068110610ced57fe5b602002015184600560068110610cff57fe5b60200201516111d3565b809b50819c505050610d1d8b8b8d8d6110c5565b809950819a505050610d53898983600460068110610d3757fe5b602002015184600560068110610d4957fe5b60200201516110c5565b8095508196505050610d6789898d8d6110c5565b809950819a505050610d7b898985856110c5565b82600460068110610d8857fe5b6020020183600560068110610d9957fe5b6020020182815250828152505050610db38d8d8f8f6110c5565b8097508198505050610dc7878785856110c5565b8097508198505050610ddb87878b8b6111d3565b8097508198505050610def8585600261192a565b8093508194505050610e03878785856111d3565b8097508198505050610e178b8b89896110c5565b82600060068110610e2457fe5b6020020183600160068110610e3557fe5b6020020182815250828152505050610e4f858589896111d3565b809b50819c505050610e638d8d8d8d6110c5565b809b50819c505050610e99898983600260068110610e7d57fe5b602002015184600360068110610e8f57fe5b60200201516110c5565b809d50819e505050610ead8b8b8f8f6111d3565b82600260068110610eba57fe5b6020020183600360068110610ecb57fe5b60200201828152508281525050505b9c9b505050505050505050505050565b600080600080600080610efb611bfb565b610f05898961198f565b8093508194505050610f198d8d85856110c5565b82600060048110610f2657fe5b6020020183600160048110610f3757fe5b6020020182815250828152505050610f518b8b85856110c5565b82600260048110610f5e57fe5b6020020183600360048110610f6f57fe5b602002018281525082815250505080600060048110610f8a57fe5b602002015181600160048110610f9c57fe5b602002015182600260048110610fae57fe5b602002015183600360048110610fc057fe5b602002015196509650965096505050509650965096509692505050565b610fe5611c1d565b610fed611c1d565b5b600089146110b657600060018a161461107e5761107b8160006006811061101157fe5b60200201518260016006811061102357fe5b60200201518360026006811061103557fe5b60200201518460036006811061104757fe5b60200201518560046006811061105957fe5b60200201518660056006811061106b57fe5b60200201518e8e8e8e8e8e610914565b90505b61108c888888888888611239565b809850819950829a50839b50849c50859d50505050505050600289816110ae57fe5b049850610fee565b80915050979650505050505050565b6000806111477f30644e72e131a029b85045b68181585d97816a916871ca8d3c208c16d87cfd47806110f357fe5b8588097f30644e72e131a029b85045b68181585d97816a916871ca8d3c208c16d87cfd478061111e57fe5b8588097f30644e72e131a029b85045b68181585d97816a916871ca8d3c208c16d87cfd47611ac2565b7f30644e72e131a029b85045b68181585d97816a916871ca8d3c208c16d87cfd478061116f57fe5b7f30644e72e131a029b85045b68181585d97816a916871ca8d3c208c16d87cfd478061119757fe5b8688097f30644e72e131a029b85045b68181585d97816a916871ca8d3c208c16d87cfd47806111c257fe5b868a09089150915094509492505050565b60008061120186857f30644e72e131a029b85045b68181585d97816a916871ca8d3c208c16d87cfd47611ac2565b61122c86857f30644e72e131a029b85045b68181585d97816a916871ca8d3c208c16d87cfd47611ac2565b9150915094509492505050565b60008060008060008061124a611c1d565b6112568d8d600361192a565b8260006006811061126357fe5b602002018360016006811061127457fe5b60200201828152508281525050506112b08160006006811061129257fe5b6020020151826001600681106112a457fe5b60200201518f8f6110c5565b826000600681106112bd57fe5b60200201836001600681106112ce57fe5b60200201828152508281525050506112e88b8b8b8b6110c5565b809950819a5050506112fc8d8d8d8d6110c5565b8260026006811061130957fe5b602002018360036006811061131a57fe5b60200201828152508281525050506113568160026006811061133857fe5b60200201518260036006811061134a57fe5b60200201518b8b6110c5565b8260026006811061136357fe5b602002018360036006811061137457fe5b60200201828152508281525050506113d28160006006811061139257fe5b6020020151826001600681106113a457fe5b6020020151836000600681106113b657fe5b6020020151846001600681106113c857fe5b60200201516110c5565b809d50819e505050611408816002600681106113ea57fe5b6020020151826003600681106113fc57fe5b6020020151600861192a565b8260046006811061141557fe5b602002018360056006811061142657fe5b60200201828152508281525050506114628d8d8360046006811061144657fe5b60200201518460056006811061145857fe5b60200201516111d3565b809d50819e50505061147689898b8b6110c5565b8260046006811061148357fe5b602002018360056006811061149457fe5b60200201828152508281525050506114d0816002600681106114b257fe5b6020020151826003600681106114c457fe5b6020020151600461192a565b826002600681106114dd57fe5b60200201836003600681106114ee57fe5b602002018281525082815250505061152a8160026006811061150c57fe5b60200201518260036006811061151e57fe5b60200201518f8f6111d3565b8260026006811061153757fe5b602002018360036006811061154857fe5b60200201828152508281525050506115a68160026006811061156657fe5b60200201518260036006811061157857fe5b60200201518360006006811061158a57fe5b60200201518460016006811061159c57fe5b60200201516110c5565b826002600681106115b357fe5b60200201836003600681106115c457fe5b60200201828152508281525050506115de8b8b600861192a565b826000600681106115eb57fe5b60200201836001600681106115fc57fe5b60200201828152508281525050506116388160006006811061161a57fe5b60200201518260016006811061162c57fe5b60200201518d8d6110c5565b8260006006811061164557fe5b602002018360016006811061165657fe5b60200201828152508281525050506116b48160006006811061167457fe5b60200201518260016006811061168657fe5b60200201518360046006811061169857fe5b6020020151846005600681106116aa57fe5b60200201516110c5565b826000600681106116c157fe5b60200201836001600681106116d257fe5b6020020182815250828152505050611730816002600681106116f057fe5b60200201518260036006811061170257fe5b60200201518360006006811061171457fe5b60200201518460016006811061172657fe5b60200201516111d3565b8260026006811061173d57fe5b602002018360036006811061174e57fe5b60200201828152508281525050506117688d8d600261192a565b8260006006811061177557fe5b602002018360016006811061178657fe5b60200201828152508281525050506117c2816000600681106117a457fe5b6020020151826001600681106117b657fe5b60200201518b8b6110c5565b826000600681106117cf57fe5b60200201836001600681106117e057fe5b602002018281525082815250505061181c89898360046006811061180057fe5b60200201518460056006811061181257fe5b60200201516110c5565b8260046006811061182957fe5b602002018360056006811061183a57fe5b60200201828152508281525050506118768160046006811061185857fe5b60200201518260056006811061186a57fe5b6020020151600861192a565b8260046006811061188357fe5b602002018360056006811061189457fe5b6020020182815250828152505050806000600681106118af57fe5b6020020151816001600681106118c157fe5b6020020151826002600681106118d357fe5b6020020151836003600681106118e557fe5b6020020151846004600681106118f757fe5b60200201518560056006811061190957fe5b60200201519650965096509650965096505096509650965096509650969050565b6000807f30644e72e131a029b85045b68181585d97816a916871ca8d3c208c16d87cfd478061195557fe5b8386097f30644e72e131a029b85045b68181585d97816a916871ca8d3c208c16d87cfd478061198057fe5b84860991509150935093915050565b6000806000611a3c7f30644e72e131a029b85045b68181585d97816a916871ca8d3c208c16d87cfd47806119bf57fe5b7f30644e72e131a029b85045b68181585d97816a916871ca8d3c208c16d87cfd47806119e757fe5b8788097f30644e72e131a029b85045b68181585d97816a916871ca8d3c208c16d87cfd4780611a1257fe5b878809087f30644e72e131a029b85045b68181585d97816a916871ca8d3c208c16d87cfd47611ada565b90507f30644e72e131a029b85045b68181585d97816a916871ca8d3c208c16d87cfd4780611a6657fe5b8186097f30644e72e131a029b85045b68181585d97816a916871ca8d3c208c16d87cfd4780611a9157fe5b8286097f30644e72e131a029b85045b68181585d97816a916871ca8d3c208c16d87cfd470392509250509250929050565b60008180611acc57fe5b838303850890509392505050565b60008060405160208152602080820152602060408201528460608201526002840360808201528360a082015260208160c08360056107d05a03611b1b611c3f565b50505050509150805192505080611b86576040517f08c379a0000000000000000000000000000000000000000000000000000000008152600401808060200182810382526025815260200180611d406025913960400191505060405180910390611b83611b8d565b50505b5092915050565b632a2a7adb598160e01b8152600481016020815285602082015260005b86811015611bc8578086015181604084010152602081019050611baa565b506020828760640184336000905af158600e01573d6000803e3d6000fd5b3d6001141558600a015760016000f35b505050565b6040518060800160405280600490602082028036833780820191505090505090565b6040518060c00160405280600690602082028036833780820191505090505090565b638540661f598160e01b8152611c7e565b600081905081831115611c61578290505b92915050565b600081905081831015611c78578290505b92915050565b836004820152846024820152606060448201528660648201526084810160005b88811015611cb9578088015181830152602081019050611c9e565b506060828960a40184336000905af158600e01573d6000803e3d6000fd5b3d6001141558600a015760016000f35b815160408301513d6000853e8b8b82606087013350600060045af15059611d0e8d3d611c67565b8c01611d1a8187611c50565b5b82811015611d325760008152602081019050611d1b565b50839d505050505050505056fe6572726f722063616c63756c6174696e6720746865206d6f64756c617220696e7665727365",
  "linkReferences": {},
  "deployedLinkReferences": {}
}