{
  "_format": "hh-sol-artifact-1",
  "contractName": "BN256G2Helper",
  "sourceName": "test/BN256G2Helper.sol",
  "abi": [
    {
      "inputs": [
        {
          "internalType": "uint256[8]",
          "name": "input",
          "type": "uint256[8]"
        }
      ],
      "name": "_ecTwistAdd",
      "outputs": [
        {
          "internalType": "uint256[4]",
          "name": "result",
          "type": "uint256[4]"
        }
      ],
      "stateMutability": "view",
      "type": "function"
    },
    {
      "inputs": [
        {
          "internalType": "uint256[5]",
          "name": "input",
          "type": "uint256[5]"
        }
      ],
      "name": "_ecTwistMul",
      "outputs": [
        {
          "internalType": "uint256[4]",
          "name": "result",
          "type": "uint256[4]"
        }
      ],
      "stateMutability": "view",
      "type": "function"
    }
  ],
  "bytecode": "0x608060405234801561001057600080fd5b50611bd2806100206000396000f3fe608060405234801561001057600080fd5b50600436106100365760003560e01c8063aab6f13c1461003b578063cc2e4d31146100de575b600080fd5b6100a0600480360361010081101561005257600080fd5b810190808061010001906008806020026040519081016040528092919082600860200280828437600081840152601f19601f820116905080830192505050505050919291929050505061017f565b6040518082600460200280838360005b838110156100cb5780820151818401526020810190506100b0565b5050505090500191505060405180910390f35b610141600480360360a08110156100f457600080fd5b810190808060a001906005806020026040519081016040528092919082600560200280828437600081840152601f19601f820116905080830192505050505050919291929050505061027c565b6040518082600460200280838360005b8381101561016c578082015181840152602081019050610151565b5050505090500191505060405180910390f35b610187611b33565b61021f8260006008811061019757fe5b6020020151836001600881106101a957fe5b6020020151846002600881106101bb57fe5b6020020151856003600881106101cd57fe5b6020020151866004600881106101df57fe5b6020020151876005600881106101f157fe5b60200201518860066008811061020357fe5b60200201518960076008811061021557fe5b6020020151610343565b8460006004811061022c57fe5b602002018560016004811061023d57fe5b602002018660026004811061024e57fe5b602002018760036004811061025f57fe5b602002018481525084815250848152508481525050505050919050565b610284611b33565b6102e68260006005811061029457fe5b6020020151836001600581106102a657fe5b6020020151846002600581106102b857fe5b6020020151856003600581106102ca57fe5b6020020151866004600581106102dc57fe5b6020020151610699565b846000600481106102f357fe5b602002018560016004811061030457fe5b602002018660026004811061031557fe5b602002018760036004811061032657fe5b602002018481525084815250848152508481525050505050919050565b60008060008060008c148015610359575060008b145b8015610365575060008a145b80156103715750600089145b15610432576000881480156103865750600087145b80156103925750600086145b801561039e5750600085145b610421576103ae88888888610806565b610420576040517f08c379a00000000000000000000000000000000000000000000000000000000081526004018080602001828103825260128152602001807f706f696e74206e6f7420696e206375727665000000000000000000000000000081525060200191505060405180910390fd5b5b87878787935093509350935061068a565b6000881480156104425750600087145b801561044e5750600086145b801561045a5750600085145b156104ee5761046b8c8c8c8c610806565b6104dd576040517f08c379a00000000000000000000000000000000000000000000000000000000081526004018080602001828103825260128152602001807f706f696e74206e6f7420696e206375727665000000000000000000000000000081525060200191505060405180910390fd5b8b8b8b8b935093509350935061068a565b6104fa8c8c8c8c610806565b61056c576040517f08c379a00000000000000000000000000000000000000000000000000000000081526004018080602001828103825260128152602001807f706f696e74206e6f7420696e206375727665000000000000000000000000000081525060200191505060405180910390fd5b61057888888888610806565b6105ea576040517f08c379a00000000000000000000000000000000000000000000000000000000081526004018080602001828103825260128152602001807f706f696e74206e6f7420696e206375727665000000000000000000000000000081525060200191505060405180910390fd5b6105f2611b55565b61060a8d8d8d8d600160008f8f8f8f600160006108cf565b90506106808160006006811061061c57fe5b60200201518260016006811061062e57fe5b60200201518360026006811061064057fe5b60200201518460036006811061065257fe5b60200201518560046006811061066457fe5b60200201518660056006811061067657fe5b6020020151610ea5565b9450945094509450505b98509850985098945050505050565b6000806000806000600190506000891480156106b55750600088145b80156106c15750600087145b80156106cd5750600086145b156106e357600198506001965060009050610762565b6106ef89898989610806565b610761576040517f08c379a00000000000000000000000000000000000000000000000000000000081526004018080602001828103825260128152602001807f706f696e74206e6f7420696e206375727665000000000000000000000000000081525060200191505060405180910390fd5b5b61076a611b55565b61077a8b8b8b8b8b876000610f98565b90506107f08160006006811061078c57fe5b60200201518260016006811061079e57fe5b6020020151836002600681106107b057fe5b6020020151846003600681106107c257fe5b6020020151856004600681106107d457fe5b6020020151866005600681106107e657fe5b6020020151610ea5565b9550955095509550505095509550955095915050565b600080600080600061081a87878989611080565b809450819550505061082e89898b8b611080565b809250819350505061084282828b8b611080565b80925081935050506108568484848461118e565b80945081955050506108a984847f2b149d40ceb8aaae81be18991be06ac3b5b4c5e559dbefa33267e6dc24a138e57e9713b03af0fed4cd2cafadeed8fdf4a74fa084e52d1852e4a2bd0685c315d261118e565b80945081955050506000841480156108c15750600083145b945050505050949350505050565b6108d7611b55565b6000891480156108e75750600088145b1561097b57868686868686866000600681106108ff57fe5b602002018760016006811061091057fe5b602002018860026006811061092157fe5b602002018960036006811061093257fe5b602002018a60046006811061094357fe5b602002018b60056006811061095457fe5b60200201868152508681525086815250868152508681525086815250505050505050610e95565b60008314801561098b5750600082145b15610a1f578c8c8c8c8c8c866000600681106109a357fe5b60200201876001600681106109b457fe5b60200201886002600681106109c557fe5b60200201896003600681106109d657fe5b602002018a6004600681106109e757fe5b602002018b6005600681106109f857fe5b60200201868152508681525086815250868152508681525086815250505050505050610e95565b610a2b85858b8b611080565b8095508196505050610a3f8b8b8585611080565b82600260068110610a4c57fe5b6020020183600360068110610a5d57fe5b6020020182815250828152505050610a7787878b8b611080565b8097508198505050610a8b8d8d8585611080565b82600460068110610a9857fe5b6020020183600560068110610aa957fe5b602002018281525082815250505080600460068110610ac457fe5b602002015187148015610ae7575080600560068110610adf57fe5b602002015186145b15610c4c5780600260068110610af957fe5b602002015185148015610b1c575080600360068110610b1457fe5b602002015184145b15610bb857610b2f8d8d8d8d8d8d6111f4565b86600060068110610b3c57fe5b6020020187600160068110610b4d57fe5b6020020188600260068110610b5e57fe5b6020020189600360068110610b6f57fe5b602002018a600460068110610b8057fe5b602002018b600560068110610b9157fe5b60200201868152508681525086815250868152508681525086815250505050505050610e95565b600160006001600080600086600060068110610bd057fe5b6020020187600160068110610be157fe5b6020020188600260068110610bf257fe5b6020020189600360068110610c0357fe5b602002018a600460068110610c1457fe5b602002018b600560068110610c2557fe5b60200201868152508681525086815250868152508681525086815250505050505050610e95565b610c5889898585611080565b8093508194505050610c8e858583600260068110610c7257fe5b602002015184600360068110610c8457fe5b602002015161118e565b809d50819e505050610cc4878783600460068110610ca857fe5b602002015184600560068110610cba57fe5b602002015161118e565b809b50819c505050610cd88b8b8d8d611080565b809950819a505050610d0e898983600460068110610cf257fe5b602002015184600560068110610d0457fe5b6020020151611080565b8095508196505050610d2289898d8d611080565b809950819a505050610d3689898585611080565b82600460068110610d4357fe5b6020020183600560068110610d5457fe5b6020020182815250828152505050610d6e8d8d8f8f611080565b8097508198505050610d8287878585611080565b8097508198505050610d9687878b8b61118e565b8097508198505050610daa858560026118e5565b8093508194505050610dbe8787858561118e565b8097508198505050610dd28b8b8989611080565b82600060068110610ddf57fe5b6020020183600160068110610df057fe5b6020020182815250828152505050610e0a8585898961118e565b809b50819c505050610e1e8d8d8d8d611080565b809b50819c505050610e54898983600260068110610e3857fe5b602002015184600360068110610e4a57fe5b6020020151611080565b809d50819e505050610e688b8b8f8f61118e565b82600260068110610e7557fe5b6020020183600360068110610e8657fe5b60200201828152508281525050505b9c9b505050505050505050505050565b600080600080600080610eb6611b33565b610ec0898961194a565b8093508194505050610ed48d8d8585611080565b82600060048110610ee157fe5b6020020183600160048110610ef257fe5b6020020182815250828152505050610f0c8b8b8585611080565b82600260048110610f1957fe5b6020020183600360048110610f2a57fe5b602002018281525082815250505080600060048110610f4557fe5b602002015181600160048110610f5757fe5b602002015182600260048110610f6957fe5b602002015183600360048110610f7b57fe5b602002015196509650965096505050509650965096509692505050565b610fa0611b55565b610fa8611b55565b5b6000891461107157600060018a16146110395761103681600060068110610fcc57fe5b602002015182600160068110610fde57fe5b602002015183600260068110610ff057fe5b60200201518460036006811061100257fe5b60200201518560046006811061101457fe5b60200201518660056006811061102657fe5b60200201518e8e8e8e8e8e6108cf565b90505b6110478888888888886111f4565b809850819950829a50839b50849c50859d505050505050506002898161106957fe5b049850610fa9565b80915050979650505050505050565b6000806111027f30644e72e131a029b85045b68181585d97816a916871ca8d3c208c16d87cfd47806110ae57fe5b8588097f30644e72e131a029b85045b68181585d97816a916871ca8d3c208c16d87cfd47806110d957fe5b8588097f30644e72e131a029b85045b68181585d97816a916871ca8d3c208c16d87cfd47611a7d565b7f30644e72e131a029b85045b68181585d97816a916871ca8d3c208c16d87cfd478061112a57fe5b7f30644e72e131a029b85045b68181585d97816a916871ca8d3c208c16d87cfd478061115257fe5b8688097f30644e72e131a029b85045b68181585d97816a916871ca8d3c208c16d87cfd478061117d57fe5b868a09089150915094509492505050565b6000806111bc86857f30644e72e131a029b85045b68181585d97816a916871ca8d3c208c16d87cfd47611a7d565b6111e786857f30644e72e131a029b85045b68181585d97816a916871ca8d3c208c16d87cfd47611a7d565b9150915094509492505050565b600080600080600080611205611b55565b6112118d8d60036118e5565b8260006006811061121e57fe5b602002018360016006811061122f57fe5b602002018281525082815250505061126b8160006006811061124d57fe5b60200201518260016006811061125f57fe5b60200201518f8f611080565b8260006006811061127857fe5b602002018360016006811061128957fe5b60200201828152508281525050506112a38b8b8b8b611080565b809950819a5050506112b78d8d8d8d611080565b826002600681106112c457fe5b60200201836003600681106112d557fe5b6020020182815250828152505050611311816002600681106112f357fe5b60200201518260036006811061130557fe5b60200201518b8b611080565b8260026006811061131e57fe5b602002018360036006811061132f57fe5b602002018281525082815250505061138d8160006006811061134d57fe5b60200201518260016006811061135f57fe5b60200201518360006006811061137157fe5b60200201518460016006811061138357fe5b6020020151611080565b809d50819e5050506113c3816002600681106113a557fe5b6020020151826003600681106113b757fe5b602002015160086118e5565b826004600681106113d057fe5b60200201836005600681106113e157fe5b602002018281525082815250505061141d8d8d8360046006811061140157fe5b60200201518460056006811061141357fe5b602002015161118e565b809d50819e50505061143189898b8b611080565b8260046006811061143e57fe5b602002018360056006811061144f57fe5b602002018281525082815250505061148b8160026006811061146d57fe5b60200201518260036006811061147f57fe5b602002015160046118e5565b8260026006811061149857fe5b60200201836003600681106114a957fe5b60200201828152508281525050506114e5816002600681106114c757fe5b6020020151826003600681106114d957fe5b60200201518f8f61118e565b826002600681106114f257fe5b602002018360036006811061150357fe5b60200201828152508281525050506115618160026006811061152157fe5b60200201518260036006811061153357fe5b60200201518360006006811061154557fe5b60200201518460016006811061155757fe5b6020020151611080565b8260026006811061156e57fe5b602002018360036006811061157f57fe5b60200201828152508281525050506115998b8b60086118e5565b826000600681106115a657fe5b60200201836001600681106115b757fe5b60200201828152508281525050506115f3816000600681106115d557fe5b6020020151826001600681106115e757fe5b60200201518d8d611080565b8260006006811061160057fe5b602002018360016006811061161157fe5b602002018281525082815250505061166f8160006006811061162f57fe5b60200201518260016006811061164157fe5b60200201518360046006811061165357fe5b60200201518460056006811061166557fe5b6020020151611080565b8260006006811061167c57fe5b602002018360016006811061168d57fe5b60200201828152508281525050506116eb816002600681106116ab57fe5b6020020151826003600681106116bd57fe5b6020020151836000600681106116cf57fe5b6020020151846001600681106116e157fe5b602002015161118e565b826002600681106116f857fe5b602002018360036006811061170957fe5b60200201828152508281525050506117238d8d60026118e5565b8260006006811061173057fe5b602002018360016006811061174157fe5b602002018281525082815250505061177d8160006006811061175f57fe5b60200201518260016006811061177157fe5b60200201518b8b611080565b8260006006811061178a57fe5b602002018360016006811061179b57fe5b60200201828152508281525050506117d78989836004600681106117bb57fe5b6020020151846005600681106117cd57fe5b6020020151611080565b826004600681106117e457fe5b60200201836005600681106117f557fe5b60200201828152508281525050506118318160046006811061181357fe5b60200201518260056006811061182557fe5b602002015160086118e5565b8260046006811061183e57fe5b602002018360056006811061184f57fe5b60200201828152508281525050508060006006811061186a57fe5b60200201518160016006811061187c57fe5b60200201518260026006811061188e57fe5b6020020151836003600681106118a057fe5b6020020151846004600681106118b257fe5b6020020151856005600681106118c457fe5b60200201519650965096509650965096505096509650965096509650969050565b6000807f30644e72e131a029b85045b68181585d97816a916871ca8d3c208c16d87cfd478061191057fe5b8386097f30644e72e131a029b85045b68181585d97816a916871ca8d3c208c16d87cfd478061193b57fe5b84860991509150935093915050565b60008060006119f77f30644e72e131a029b85045b68181585d97816a916871ca8d3c208c16d87cfd478061197a57fe5b7f30644e72e131a029b85045b68181585d97816a916871ca8d3c208c16d87cfd47806119a257fe5b8788097f30644e72e131a029b85045b68181585d97816a916871ca8d3c208c16d87cfd47806119cd57fe5b878809087f30644e72e131a029b85045b68181585d97816a916871ca8d3c208c16d87cfd47611a95565b90507f30644e72e131a029b85045b68181585d97816a916871ca8d3c208c16d87cfd4780611a2157fe5b8186097f30644e72e131a029b85045b68181585d97816a916871ca8d3c208c16d87cfd4780611a4c57fe5b8286097f30644e72e131a029b85045b68181585d97816a916871ca8d3c208c16d87cfd470392509250509250929050565b60008180611a8757fe5b838303850890509392505050565b60008060405160208152602080820152602060408201528460608201526002840360808201528360a082015260208160c08360056107d05a03fa9150805192505080611b2c576040517f08c379a0000000000000000000000000000000000000000000000000000000008152600401808060200182810382526025815260200180611b786025913960400191505060405180910390fd5b5092915050565b6040518060800160405280600490602082028036833780820191505090505090565b6040518060c0016040528060069060208202803683378082019150509050509056fe6572726f722063616c63756c6174696e6720746865206d6f64756c617220696e7665727365a2646970667358221220ea7dcaafa383b9ecbf3a3ff0d5a338d234b104b39b7a51e36115e0e82d0329cd64736f6c63430007030033",
  "linkReferences": {},
  "deployedLinkReferences": {}
}