{
  "_format": "hh-sol-artifact-1",
  "contractName": "BN256G1Helper",
  "sourceName": "test/BN256G1Helper.sol",
  "abi": [
    {
      "inputs": [
        {
          "internalType": "uint256[4]",
          "name": "input",
          "type": "uint256[4]"
        }
      ],
      "name": "_add",
      "outputs": [
        {
          "internalType": "uint256[2]",
          "name": "result",
          "type": "uint256[2]"
        }
      ],
      "stateMutability": "nonpayable",
      "type": "function"
    },
    {
      "inputs": [
        {
          "internalType": "uint256[12]",
          "name": "input",
          "type": "uint256[12]"
        }
      ],
      "name": "_bn256CheckPairing",
      "outputs": [
        {
          "internalType": "bool",
          "name": "",
          "type": "bool"
        }
      ],
      "stateMutability": "nonpayable",
      "type": "function"
    },
    {
      "inputs": [
        {
          "internalType": "uint256[]",
          "name": "input",
          "type": "uint256[]"
        }
      ],
      "name": "_bn256CheckPairingBatch",
      "outputs": [
        {
          "internalType": "bool",
          "name": "",
          "type": "bool"
        }
      ],
      "stateMutability": "nonpayable",
      "type": "function"
    },
    {
      "inputs": [
        {
          "internalType": "bytes",
          "name": "point",
          "type": "bytes"
        }
      ],
      "name": "_fromCompressed",
      "outputs": [
        {
          "internalType": "uint256[2]",
          "name": "result",
          "type": "uint256[2]"
        }
      ],
      "stateMutability": "pure",
      "type": "function"
    },
    {
      "inputs": [
        {
          "internalType": "bytes",
          "name": "input",
          "type": "bytes"
        }
      ],
      "name": "_hashToTryAndIncrement",
      "outputs": [
        {
          "internalType": "uint256[2]",
          "name": "result",
          "type": "uint256[2]"
        }
      ],
      "stateMutability": "pure",
      "type": "function"
    },
    {
      "inputs": [
        {
          "internalType": "uint256[2]",
          "name": "input",
          "type": "uint256[2]"
        }
      ],
      "name": "_isOnCurve",
      "outputs": [
        {
          "internalType": "bool",
          "name": "",
          "type": "bool"
        }
      ],
      "stateMutability": "pure",
      "type": "function"
    },
    {
      "inputs": [
        {
          "internalType": "uint256[3]",
          "name": "input",
          "type": "uint256[3]"
        }
      ],
      "name": "_multiply",
      "outputs": [
        {
          "internalType": "uint256[2]",
          "name": "result",
          "type": "uint256[2]"
        }
      ],
      "stateMutability": "nonpayable",
      "type": "function"
    }
  ],
  "bytecode": "0x608060405234801561001057600080fd5b5061110b806100206000396000f3fe608060405234801561001057600080fd5b506004361061007d5760003560e01c8063d9f20b811161005b578063d9f20b8114610297578063dc422a4f14610365578063e54ba7d21461045c578063f9ae5ec4146104fd5761007d565b806315e37835146100825780639442991c14610179578063b294b468146101f6575b600080fd5b61013b6004803603602081101561009857600080fd5b81019080803590602001906401000000008111156100b557600080fd5b8201836020820111156100c757600080fd5b803590602001918460018302840111640100000000831117156100e957600080fd5b91908080601f016020809104026020016040519081016040528093929190818152602001838380828437600081840152601f19601f820116905080830192505050505050509192919290505050610578565b6040518082600260200280838360005b8381101561016657808201518184015260208101905061014b565b5050505090500191505060405180910390f35b6101de600480360361018081101561019057600080fd5b81019080806101800190600c806020026040519081016040528092919082600c60200280828437600081840152601f19601f82011690508083019250505050505091929192905050506105ba565b60405180821515815260200191505060405180910390f35b6102596004803603608081101561020c57600080fd5b8101908080608001906004806020026040519081016040528092919082600460200280828437600081840152601f19601f82011690508083019250505050505091929192905050506105cc565b6040518082600260200280838360005b83811015610284578082015181840152602081019050610269565b5050505090500191505060405180910390f35b61034d600480360360208110156102ad57600080fd5b81019080803590602001906401000000008111156102ca57600080fd5b8201836020820111156102dc57600080fd5b803590602001918460208302840111640100000000831117156102fe57600080fd5b919080806020026020016040519081016040528093929190818152602001838360200280828437600081840152601f19601f82011690508083019250505050505050919291929050505061060e565b60405180821515815260200191505060405180910390f35b61041e6004803603602081101561037b57600080fd5b810190808035906020019064010000000081111561039857600080fd5b8201836020820111156103aa57600080fd5b803590602001918460018302840111640100000000831117156103cc57600080fd5b91908080601f016020809104026020016040519081016040528093929190818152602001838380828437600081840152601f19601f820116905080830192505050505050509192919290505050610620565b6040518082600260200280838360005b8381101561044957808201518184015260208101905061042e565b5050505090500191505060405180910390f35b6104bf6004803603606081101561047257600080fd5b8101908080606001906003806020026040519081016040528092919082600360200280828437600081840152601f19601f8201169050808301925050505050509192919290505050610662565b6040518082600260200280838360005b838110156104ea5780820151818401526020810190506104cf565b5050505090500191505060405180910390f35b6105606004803603604081101561051357600080fd5b8101908080604001906002806020026040519081016040528092919082600260200280828437600081840152601f19601f82011690508083019250505050505091929192905050506106a4565b60405180821515815260200191505060405180910390f35b61058061104b565b610589826106b6565b8260006002811061059657fe5b60200201836001600281106105a757fe5b6020020182815250828152505050919050565b60006105c58261090a565b9050919050565b6105d461104b565b6105dd826109ba565b826000600281106105ea57fe5b60200201836001600281106105fb57fe5b6020020182815250828152505050919050565b600061061982610a79565b9050919050565b61062861104b565b61063182610bb4565b8260006002811061063e57fe5b602002018360016002811061064f57fe5b6020020182815250828152505050919050565b61066a61104b565b61067382610c55565b8260006002811061068057fe5b602002018360016002811061069157fe5b6020020182815250828152505050919050565b60006106af82610cf7565b9050919050565b60008060005b6101008160ff161015610896576000600285836040516020018083805190602001908083835b6020831061070557805182526020820191506020810190506020830392506106e2565b6001836020036101000a0380198251168184511680821785525050505050509050018260ff1660f81b8152600101925050506040516020818303038152906040526040518082805190602001908083835b602083106107795780518252602082019150602081019050602083039250610756565b6001836020036101000a038019825116818451168082178552505050505050905001915050602060405180830381855afa1580156107bb573d6000803e3d6000fd5b5050506040513d60208110156107d057600080fd5b8101908080519060200190929190505050905060008160001c90507ff1f5883e65f820d099915c908786b9d3f58714d70a38f4c22ca2bc723a70f2638110610819575050610889565b7f30644e72e131a029b85045b68181585d97816a916871ca8d3c208c16d87cfd47818161084257fe5b0690506000610852600283610d51565b9050610871604051806040016040528084815260200183815250610cf7565b156108855781819550955050505050610905565b5050505b80806001019150506106bc565b506040517f08c379a00000000000000000000000000000000000000000000000000000000081526004018080602001828103825260188152602001807f4e6f2076616c696420706f696e742077617320666f756e64000000000000000081525060200191505060405180910390fd5b915091565b600061091461106d565b600060208261018086600060086107d05a03f190508061099c576040517f08c379a000000000000000000000000000000000000000000000000000000000815260040180806020018281038252601d8152602001807f656c6c69707469632063757276652070616972696e67206661696c656400000081525060200191505060405180910390fd5b6001826000600181106109ab57fe5b60200201511492505050919050565b60008060006109c761104b565b60408160808760006006600019f1915081610a4a576040517f08c379a00000000000000000000000000000000000000000000000000000000081526004018080602001828103825260158152602001807f626e323536206164646974696f6e206661696c6564000000000000000000000081525060200191505060405180910390fd5b80600060028110610a5757fe5b602002015181600160028110610a6957fe5b6020020151935093505050915091565b6000610a8361106d565b6000806006855181610a9157fe5b0614610b05576040517f08c379a00000000000000000000000000000000000000000000000000000000081526004018080602001828103825260168152602001807f496e636f727265637420696e707574206c656e6774680000000000000000000081525060200191505060405180910390fd5b6000602085510290506020838260208801600060086107d05a03f1915081610b95576040517f08c379a000000000000000000000000000000000000000000000000000000000815260040180806020018281038252601d8152602001807f656c6c69707469632063757276652070616972696e67206661696c656400000081525060200191505060405180910390fd5b600183600060018110610ba457fe5b6020020151149350505050919050565b6000806021835114610c2e576040517f08c379a00000000000000000000000000000000000000000000000000000000081526004018080602001828103825260108152602001807f696e76616c696420656e636f64696e670000000000000000000000000000000081525060200191505060405180910390fd5b600080600185015191506021850151905080610c4a8383610d51565b935093505050915091565b6000806000610c6261104b565b60408160608760006007600019f1915081610cc8576040517f08c379a00000000000000000000000000000000000000000000000000000000081526004018080602001828103825260248152602001806110b26024913960400191505060405180910390fd5b80600060028110610cd557fe5b602002015181600160028110610ce757fe5b6020020151935093505050915091565b6000610d4a82600060028110610d0957fe5b602002015183600160028110610d1b57fe5b6020020151600060037f30644e72e131a029b85045b68181585d97816a916871ca8d3c208c16d87cfd47610d8a565b9050919050565b6000610d828383600060037f30644e72e131a029b85045b68181585d97816a916871ca8d3c208c16d87cfd47610e2e565b905092915050565b60008560001480610d9b5750818610155b80610da65750846000145b80610db15750818510155b15610dbf5760009050610e25565b60008280610dc957fe5b868709905060008380610dd857fe5b888580610de157fe5b8a8b0909905060008614610e07578380610df757fe5b8480610dff57fe5b878a09820890505b60008514610e1d578380610e1757fe5b85820890505b808214925050505b95945050505050565b600060028660ff161480610e45575060038660ff16145b610e9a576040517f08c379a00000000000000000000000000000000000000000000000000000000081526004018080602001828103825260228152602001806110906022913960400191505060405180910390fd5b60008280610ea457fe5b8380610eac57fe5b858580610eb557fe5b888a09088480610ec157fe5b8580610ec957fe5b898a098909089050610ee98160046001860181610ee257fe5b0485610f1d565b905060008060028960ff16840181610efd57fe5b0614610f0b57818403610f0d565b815b9050809250505095945050505050565b600080821415610f95576040517f08c379a000000000000000000000000000000000000000000000000000000000815260040180806020018281038252600f8152602001807f4d6f64756c7573206973207a65726f000000000000000000000000000000000081525060200191505060405180910390fd5b6000841415610fa75760009050611044565b6000831415610fb95760019050611044565b60006001905060007f800000000000000000000000000000000000000000000000000000000000000090505b600081111561103e57838186161515870a85848509099150836002820486161515870a85848509099150836004820486161515870a85848509099150836008820486161515870a85848509099150601081049050610fe5565b81925050505b9392505050565b6040518060400160405280600290602082028036833780820191505090505090565b604051806020016040528060019060208202803683378082019150509050509056fe496e76616c696420636f6d7072657373656420454320706f696e7420707265666978656c6c6970746963206375727665206d756c7469706c69636174696f6e206661696c6564a2646970667358221220bf8b588b3782c61c33e158f5b69d10d3a68e797bc857567b43eedfd94a0fc61164736f6c63430007030033",
  "linkReferences": {},
  "deployedLinkReferences": {}
}