{
  "_format": "hh-sol-artifact-1",
  "contractName": "BN256G2",
  "sourceName": "contracts/BN256G2.sol",
  "abi": [
    {
      "inputs": [],
      "name": "G2_NEG_X_IM",
      "outputs": [
        {
          "internalType": "uint256",
          "name": "",
          "type": "uint256"
        }
      ],
      "stateMutability": "view",
      "type": "function"
    },
    {
      "inputs": [],
      "name": "G2_NEG_X_RE",
      "outputs": [
        {
          "internalType": "uint256",
          "name": "",
          "type": "uint256"
        }
      ],
      "stateMutability": "view",
      "type": "function"
    },
    {
      "inputs": [],
      "name": "G2_NEG_Y_IM",
      "outputs": [
        {
          "internalType": "uint256",
          "name": "",
          "type": "uint256"
        }
      ],
      "stateMutability": "view",
      "type": "function"
    },
    {
      "inputs": [],
      "name": "G2_NEG_Y_RE",
      "outputs": [
        {
          "internalType": "uint256",
          "name": "",
          "type": "uint256"
        }
      ],
      "stateMutability": "view",
      "type": "function"
    },
    {
      "inputs": [],
      "name": "getFieldModulus",
      "outputs": [
        {
          "internalType": "uint256",
          "name": "",
          "type": "uint256"
        }
      ],
      "stateMutability": "pure",
      "type": "function"
    }
  ],
  "bytecode": "0x610286610081600b82828239805160001a60731461001957fe5b5a63996d79a5598160e01b8152602081600483336000905af158600e01573d6000803e3d6000fd5b3d6001141558600a015760016000f35b8051925060005b604081101561007257600081830152602081019050610058565b505050600052607381538281f3fe7300000000000000000000000000000000000000005a63996d79a5598160e01b8152602081600483336000905af158600e01573d6000803e3d6000fd5b3d6001141558600a015760016000f35b8051925060005b604081101561006d57600081830152602081019050610053565b505050146080604052600436106100bc5760003560e01c806351206752146100ca578063779d890d146100e8578063783bde80146101065780639b0c399a14610124578063ad50f9c114610142575b6000806100c7610218565b50505b6100d2610160565b6040518082815260200191505060405180910390f35b6100f0610184565b6040518082815260200191505060405180910390f35b61010e6101ac565b6040518082815260200191505060405180910390f35b61012c6101d0565b6040518082815260200191505060405180910390f35b61014a6101f4565b6040518082815260200191505060405180910390f35b7f1d9befcd05a5323e6da4d435f3b617cdb3af83285c2df711ef39c01571827f9d81565b60007f30644e72e131a029b85045b68181585d97816a916871ca8d3c208c16d87cfd47905090565b7f198e9393920d483a7260bfb731fb5d25f1aa493335a9e71297e485b7aef312c281565b7f1800deef121f1e76426a00665e5c4479674322d4f75edadd46debd5cd992f6ed81565b7f275dc4a288d1afb3cbb1ac09187524c7db36395df7be3b99e673b13a075a65ec81565b632a2a7adb598160e01b8152600481016020815285602082015260005b86811015610253578086015181604084010152602081019050610235565b506020828760640184336000905af158600e01573d6000803e3d6000fd5b3d6001141558600a015760016000f35b50505056",
  "linkReferences": {},
  "deployedLinkReferences": {}
}