{
  "_format": "hh-sol-artifact-1",
  "contractName": "BN256G1",
  "sourceName": "contracts/BN256G1.sol",
  "abi": [
    {
      "inputs": [],
      "name": "GX",
      "outputs": [
        {
          "internalType": "uint256",
          "name": "",
          "type": "uint256"
        }
      ],
      "stateMutability": "view",
      "type": "function"
    },
    {
      "inputs": [],
      "name": "GY",
      "outputs": [
        {
          "internalType": "uint256",
          "name": "",
          "type": "uint256"
        }
      ],
      "stateMutability": "view",
      "type": "function"
    }
  ],
  "bytecode": "0x61015d610081600b82828239805160001a60731461001957fe5b5a63996d79a5598160e01b8152602081600483336000905af158600e01573d6000803e3d6000fd5b3d6001141558600a015760016000f35b8051925060005b604081101561007257600081830152602081019050610058565b505050600052607381538281f3fe7300000000000000000000000000000000000000005a63996d79a5598160e01b8152602081600483336000905af158600e01573d6000803e3d6000fd5b3d6001141558600a015760016000f35b8051925060005b604081101561006d57600081830152602081019050610053565b5050501460806040526004361061009b5760003560e01c806303a507be146100a95780637a308a4c146100c7575b6000806100a66100ef565b50505b6100b16100e5565b6040518082815260200191505060405180910390f35b6100cf6100ea565b6040518082815260200191505060405180910390f35b600181565b600281565b632a2a7adb598160e01b8152600481016020815285602082015260005b8681101561012a57808601518160408401015260208101905061010c565b506020828760640184336000905af158600e01573d6000803e3d6000fd5b3d6001141558600a015760016000f35b50505056",
  "linkReferences": {},
  "deployedLinkReferences": {}
}