{
  "_format": "hh-sol-artifact-1",
  "contractName": "BN256G1",
  "sourceName": "contracts/BN256G1.sol",
  "abi": [
    {
      "inputs": [],
      "name": "GX",
      "outputs": [
        {
          "internalType": "uint256",
          "name": "",
          "type": "uint256"
        }
      ],
      "stateMutability": "view",
      "type": "function"
    },
    {
      "inputs": [],
      "name": "GY",
      "outputs": [
        {
          "internalType": "uint256",
          "name": "",
          "type": "uint256"
        }
      ],
      "stateMutability": "view",
      "type": "function"
    }
  ],
  "bytecode": "0x60ba610025600b82828239805160001a60731461001857fe5b30600052607381538281f3fe7300000000000000000000000000000000000000003014608060405260043610603d5760003560e01c806303a507be1460425780637a308a4c14605e575b600080fd5b6048607a565b6040518082815260200191505060405180910390f35b6064607f565b6040518082815260200191505060405180910390f35b600181565b60028156fea264697066735822122096e953a0cdd6b565aa3575d3fb0f5feceb5709187da82b2ecd963492cbfa404e64736f6c63430007030033",
  "linkReferences": {},
  "deployedLinkReferences": {}
}