{
  "_format": "hh-sol-artifact-1",
  "contractName": "BN256G2",
  "sourceName": "contracts/BN256G2.sol",
  "abi": [
    {
      "inputs": [],
      "name": "G2_NEG_X_IM",
      "outputs": [
        {
          "internalType": "uint256",
          "name": "",
          "type": "uint256"
        }
      ],
      "stateMutability": "view",
      "type": "function"
    },
    {
      "inputs": [],
      "name": "G2_NEG_X_RE",
      "outputs": [
        {
          "internalType": "uint256",
          "name": "",
          "type": "uint256"
        }
      ],
      "stateMutability": "view",
      "type": "function"
    },
    {
      "inputs": [],
      "name": "G2_NEG_Y_IM",
      "outputs": [
        {
          "internalType": "uint256",
          "name": "",
          "type": "uint256"
        }
      ],
      "stateMutability": "view",
      "type": "function"
    },
    {
      "inputs": [],
      "name": "G2_NEG_Y_RE",
      "outputs": [
        {
          "internalType": "uint256",
          "name": "",
          "type": "uint256"
        }
      ],
      "stateMutability": "view",
      "type": "function"
    },
    {
      "inputs": [],
      "name": "getFieldModulus",
      "outputs": [
        {
          "internalType": "uint256",
          "name": "",
          "type": "uint256"
        }
      ],
      "stateMutability": "pure",
      "type": "function"
    }
  ],
  "bytecode": "0x6101ea610026600b82828239805160001a60731461001957fe5b30600052607381538281f3fe73000000000000000000000000000000000000000030146080604052600436106100615760003560e01c80635120675214610066578063779d890d14610084578063783bde80146100a25780639b0c399a146100c0578063ad50f9c1146100de575b600080fd5b61006e6100fc565b6040518082815260200191505060405180910390f35b61008c610120565b6040518082815260200191505060405180910390f35b6100aa610148565b6040518082815260200191505060405180910390f35b6100c861016c565b6040518082815260200191505060405180910390f35b6100e6610190565b6040518082815260200191505060405180910390f35b7f1d9befcd05a5323e6da4d435f3b617cdb3af83285c2df711ef39c01571827f9d81565b60007f30644e72e131a029b85045b68181585d97816a916871ca8d3c208c16d87cfd47905090565b7f198e9393920d483a7260bfb731fb5d25f1aa493335a9e71297e485b7aef312c281565b7f1800deef121f1e76426a00665e5c4479674322d4f75edadd46debd5cd992f6ed81565b7f275dc4a288d1afb3cbb1ac09187524c7db36395df7be3b99e673b13a075a65ec8156fea26469706673582212203fa79993babfbd3847582187ae7dab99f69a4f18de2b443343afac96ed8de3e064736f6c63430007030033",
  "linkReferences": {},
  "deployedLinkReferences": {}
}