{
  "_format": "hh-sol-artifact-1",
  "contractName": "BN256G1Helper",
  "sourceName": "test/BN256G1Helper.sol",
  "abi": [
    {
      "inputs": [
        {
          "internalType": "uint256[4]",
          "name": "input",
          "type": "uint256[4]"
        }
      ],
      "name": "_add",
      "outputs": [
        {
          "internalType": "uint256[2]",
          "name": "result",
          "type": "uint256[2]"
        }
      ],
      "stateMutability": "nonpayable",
      "type": "function"
    },
    {
      "inputs": [
        {
          "internalType": "uint256[12]",
          "name": "input",
          "type": "uint256[12]"
        }
      ],
      "name": "_bn256CheckPairing",
      "outputs": [
        {
          "internalType": "bool",
          "name": "",
          "type": "bool"
        }
      ],
      "stateMutability": "nonpayable",
      "type": "function"
    },
    {
      "inputs": [
        {
          "internalType": "uint256[]",
          "name": "input",
          "type": "uint256[]"
        }
      ],
      "name": "_bn256CheckPairingBatch",
      "outputs": [
        {
          "internalType": "bool",
          "name": "",
          "type": "bool"
        }
      ],
      "stateMutability": "nonpayable",
      "type": "function"
    },
    {
      "inputs": [
        {
          "internalType": "bytes",
          "name": "point",
          "type": "bytes"
        }
      ],
      "name": "_fromCompressed",
      "outputs": [
        {
          "internalType": "uint256[2]",
          "name": "result",
          "type": "uint256[2]"
        }
      ],
      "stateMutability": "pure",
      "type": "function"
    },
    {
      "inputs": [
        {
          "internalType": "bytes",
          "name": "input",
          "type": "bytes"
        }
      ],
      "name": "_hashToTryAndIncrement",
      "outputs": [
        {
          "internalType": "uint256[2]",
          "name": "result",
          "type": "uint256[2]"
        }
      ],
      "stateMutability": "pure",
      "type": "function"
    },
    {
      "inputs": [
        {
          "internalType": "uint256[2]",
          "name": "input",
          "type": "uint256[2]"
        }
      ],
      "name": "_isOnCurve",
      "outputs": [
        {
          "internalType": "bool",
          "name": "",
          "type": "bool"
        }
      ],
      "stateMutability": "pure",
      "type": "function"
    },
    {
      "inputs": [
        {
          "internalType": "uint256[3]",
          "name": "input",
          "type": "uint256[3]"
        }
      ],
      "name": "_multiply",
      "outputs": [
        {
          "internalType": "uint256[2]",
          "name": "result",
          "type": "uint256[2]"
        }
      ],
      "stateMutability": "nonpayable",
      "type": "function"
    }
  ],
  "bytecode": "0x60806040523480156100195760008061001661001f565b50505b5061008d565b632a2a7adb598160e01b8152600481016020815285602082015260005b8681101561005a57808601518160408401015260208101905061003c565b506020828760640184336000905af158600e01573d6000803e3d6000fd5b3d6001141558600a015760016000f35b505050565b6114898061009c6000396000f3fe608060405234801561001957600080610016611190565b50505b50600436106100865760003560e01c8063d9f20b8111610064578063d9f20b81146102df578063dc422a4f146103d1578063e54ba7d2146104ec578063f9ae5ec41461059657610086565b806315e37835146100945780639442991c146101af578063b294b46814610235575b600080610091611190565b50505b610171600480360360208110156100b3576000806100b0611190565b50505b81019080803590602001906401000000008111156100d9576000806100d6611190565b50505b8201836020820111156100f4576000806100f1611190565b50505b8035906020019184600183028401116401000000008311171561011f5760008061011c611190565b50505b91908080601f016020809104026020016040519081016040528093929190818152602001838380828437600081840152601f19601f82011690508083019250505050505050919291929050505061061a565b6040518082600260200280838360005b8381101561019c578082015181840152602081019050610181565b5050505090500191505060405180910390f35b61021d60048036036101808110156101cf576000806101cc611190565b50505b81019080806101800190600c806020026040519081016040528092919082600c60200280828437600081840152601f19601f820116905080830192505050505050919291929050505061065c565b60405180821515815260200191505060405180910390f35b6102a16004803603608081101561025457600080610251611190565b50505b8101908080608001906004806020026040519081016040528092919082600460200280828437600081840152601f19601f820116905080830192505050505050919291929050505061066e565b6040518082600260200280838360005b838110156102cc5780820151818401526020810190506102b1565b5050505090500191505060405180910390f35b6103b9600480360360208110156102fe576000806102fb611190565b50505b810190808035906020019064010000000081111561032457600080610321611190565b50505b82018360208201111561033f5760008061033c611190565b50505b8035906020019184602083028401116401000000008311171561036a57600080610367611190565b50505b919080806020026020016040519081016040528093929190818152602001838360200280828437600081840152601f19601f8201169050808301925050505050505091929192905050506106b0565b60405180821515815260200191505060405180910390f35b6104ae600480360360208110156103f0576000806103ed611190565b50505b810190808035906020019064010000000081111561041657600080610413611190565b50505b8201836020820111156104315760008061042e611190565b50505b8035906020019184600183028401116401000000008311171561045c57600080610459611190565b50505b91908080601f016020809104026020016040519081016040528093929190818152602001838380828437600081840152601f19601f8201169050808301925050505050505091929192905050506106c2565b6040518082600260200280838360005b838110156104d95780820151818401526020810190506104be565b5050505090500191505060405180910390f35b6105586004803603606081101561050b57600080610508611190565b50505b8101908080606001906003806020026040519081016040528092919082600360200280828437600081840152601f19601f8201169050808301925050505050509192919290505050610704565b6040518082600260200280838360005b83811015610583578082015181840152602081019050610568565b5050505090500191505060405180910390f35b610602600480360360408110156105b5576000806105b2611190565b50505b8101908080604001906002806020026040519081016040528092919082600260200280828437600081840152601f19601f8201169050808301925050505050509192919290505050610746565b60405180821515815260200191505060405180910390f35b6106226111fe565b61062b82610758565b8260006002811061063857fe5b602002018360016002811061064957fe5b6020020182815250828152505050919050565b6000610667826109d3565b9050919050565b6106766111fe565b61067f82610a99565b8260006002811061068c57fe5b602002018360016002811061069d57fe5b6020020182815250828152505050919050565b60006106bb82610b6e565b9050919050565b6106ca6111fe565b6106d382610cc8565b826000600281106106e057fe5b60200201836001600281106106f157fe5b6020020182815250828152505050919050565b61070c6111fe565b61071582610d72565b8260006002811061072257fe5b602002018360016002811061073357fe5b6020020182815250828152505050919050565b600061075182610e2a565b9050919050565b60008060005b6101008160ff161015610956576000600285836040516020018083805190602001908083835b602083106107a75780518252602082019150602081019050602083039250610784565b6001836020036101000a0380198251168184511680821785525050505050509050018260ff1660f81b8152600101925050506040516020818303038152906040526040518082805190602001908083835b6020831061081b57805182526020820191506020810190506020830392506107f8565b6001836020036101000a038019825116818451168082178552505050505050905001915050602060405180830381855a610853611220565b5050505050158015610872573d6000803e3d600061086f611190565b50505b5050506040513d60208110156108905760008061088d611190565b50505b8101908080519060200190929190505050905060008160001c90507ff1f5883e65f820d099915c908786b9d3f58714d70a38f4c22ca2bc723a70f26381106108d9575050610949565b7f30644e72e131a029b85045b68181585d97816a916871ca8d3c208c16d87cfd47818161090257fe5b0690506000610912600283610e84565b9050610931604051806040016040528084815260200183815250610e2a565b1561094557818195509550505050506109ce565b5050505b808060010191505061075e565b506040517f08c379a00000000000000000000000000000000000000000000000000000000081526004018080602001828103825260188152602001807f4e6f2076616c696420706f696e742077617320666f756e640000000000000000815250602001915050604051809103906109cb611190565b50505b915091565b60006109dd611320565b600060208261018086600060086107d05a036109f7611342565b505050505050905080610a7b576040517f08c379a000000000000000000000000000000000000000000000000000000000815260040180806020018281038252601d8152602001807f656c6c69707469632063757276652070616972696e67206661696c656400000081525060200191505060405180910390610a78611190565b50505b600182600060018110610a8a57fe5b60200201511492505050919050565b6000806000610aa66111fe565b60408160808760006006600019610abb611342565b505050505050915081610b3f576040517f08c379a00000000000000000000000000000000000000000000000000000000081526004018080602001828103825260158152602001807f626e323536206164646974696f6e206661696c6564000000000000000000000081525060200191505060405180910390610b3c611190565b50505b80600060028110610b4c57fe5b602002015181600160028110610b5e57fe5b6020020151935093505050915091565b6000610b78611320565b6000806006855181610b8657fe5b0614610c03576040517f08c379a00000000000000000000000000000000000000000000000000000000081526004018080602001828103825260168152602001807f496e636f727265637420696e707574206c656e6774680000000000000000000081525060200191505060405180910390610c00611190565b50505b6000602085510290506020838260208801600060086107d05a03610c25611342565b505050505050915081610ca9576040517f08c379a000000000000000000000000000000000000000000000000000000000815260040180806020018281038252601d8152602001807f656c6c69707469632063757276652070616972696e67206661696c656400000081525060200191505060405180910390610ca6611190565b50505b600183600060018110610cb857fe5b6020020151149350505050919050565b6000806021835114610d4b576040517f08c379a00000000000000000000000000000000000000000000000000000000081526004018080602001828103825260108152602001807f696e76616c696420656e636f64696e670000000000000000000000000000000081525060200191505060405180910390610d48611190565b50505b600080600185015191506021850151905080610d678383610e84565b935093505050915091565b6000806000610d7f6111fe565b60408160608760006007600019610d94611342565b505050505050915081610dfb576040517f08c379a00000000000000000000000000000000000000000000000000000000081526004018080602001828103825260248152602001806114656024913960400191505060405180910390610df8611190565b50505b80600060028110610e0857fe5b602002015181600160028110610e1a57fe5b6020020151935093505050915091565b6000610e7d82600060028110610e3c57fe5b602002015183600160028110610e4e57fe5b6020020151600060037f30644e72e131a029b85045b68181585d97816a916871ca8d3c208c16d87cfd47610ebd565b9050919050565b6000610eb58383600060037f30644e72e131a029b85045b68181585d97816a916871ca8d3c208c16d87cfd47610f61565b905092915050565b60008560001480610ece5750818610155b80610ed95750846000145b80610ee45750818510155b15610ef25760009050610f58565b60008280610efc57fe5b868709905060008380610f0b57fe5b888580610f1457fe5b8a8b0909905060008614610f3a578380610f2a57fe5b8480610f3257fe5b878a09820890505b60008514610f50578380610f4a57fe5b85820890505b808214925050505b95945050505050565b600060028660ff161480610f78575060038660ff16145b610fd6576040517f08c379a00000000000000000000000000000000000000000000000000000000081526004018080602001828103825260228152602001806114436022913960400191505060405180910390610fd3611190565b50505b60008280610fe057fe5b8380610fe857fe5b858580610ff157fe5b888a09088480610ffd57fe5b858061100557fe5b898a098909089050611025816004600186018161101e57fe5b0485611059565b905060008060028960ff1684018161103957fe5b061461104757818403611049565b815b9050809250505095945050505050565b6000808214156110da576040517f08c379a000000000000000000000000000000000000000000000000000000000815260040180806020018281038252600f8152602001807f4d6f64756c7573206973207a65726f0000000000000000000000000000000000815250602001915050604051809103906110d7611190565b50505b60008414156110ec5760009050611189565b60008314156110fe5760019050611189565b60006001905060007f800000000000000000000000000000000000000000000000000000000000000090505b600081111561118357838186161515870a85848509099150836002820486161515870a85848509099150836004820486161515870a85848509099150836008820486161515870a8584850909915060108104905061112a565b81925050505b9392505050565b632a2a7adb598160e01b8152600481016020815285602082015260005b868110156111cb5780860151816040840101526020810190506111ad565b506020828760640184336000905af158600e01573d6000803e3d6000fd5b3d6001141558600a015760016000f35b505050565b6040518060400160405280600290602082028036833780820191505090505090565b638540661f598160e01b815261125f565b600081905081831115611242578290505b92915050565b600081905081831015611259578290505b92915050565b836004820152846024820152606060448201528660648201526084810160005b8881101561129a57808801518183015260208101905061127f565b506060828960a40184336000905af158600e01573d6000803e3d6000fd5b3d6001141558600a015760016000f35b815160408301513d6000853e8b8b82606087013350600060045af150596112ef8d3d611248565b8c016112fb8187611231565b5b8281101561131357600081526020810190506112fc565b50839d5050505050505050565b6040518060200160405280600190602082028036833780820191505090505090565b6385979f76598160e01b8152611381565b600081905081831115611364578290505b92915050565b60008190508183101561137b578290505b92915050565b836004820152846024820152606060448201528760648201526084810160005b898110156113bc5780890151818301526020810190506113a1565b506060828a60a40184336000905af158600e01573d6000803e3d6000fd5b3d6001141558600a015760016000f35b815160408301513d6000853e8c8c82606087013350600060045af150596114118e3d61136a565b8d0161141d8187611353565b5b82811015611435576000815260208101905061141e565b50839e505050505050505056fe496e76616c696420636f6d7072657373656420454320706f696e7420707265666978656c6c6970746963206375727665206d756c7469706c69636174696f6e206661696c6564",
  "linkReferences": {},
  "deployedLinkReferences": {}
}