{
  "test/BN256G1Helper.sol": {
    "BN256G1Helper": {
      "abi": [
        {
          "inputs": [
            {
              "internalType": "uint256[4]",
              "name": "input",
              "type": "uint256[4]"
            }
          ],
          "name": "_add",
          "outputs": [
            {
              "internalType": "uint256[2]",
              "name": "result",
              "type": "uint256[2]"
            }
          ],
          "stateMutability": "nonpayable",
          "type": "function"
        },
        {
          "inputs": [
            {
              "internalType": "uint256[12]",
              "name": "input",
              "type": "uint256[12]"
            }
          ],
          "name": "_bn256CheckPairing",
          "outputs": [
            {
              "internalType": "bool",
              "name": "",
              "type": "bool"
            }
          ],
          "stateMutability": "nonpayable",
          "type": "function"
        },
        {
          "inputs": [
            {
              "internalType": "uint256[]",
              "name": "input",
              "type": "uint256[]"
            }
          ],
          "name": "_bn256CheckPairingBatch",
          "outputs": [
            {
              "internalType": "bool",
              "name": "",
              "type": "bool"
            }
          ],
          "stateMutability": "nonpayable",
          "type": "function"
        },
        {
          "inputs": [
            {
              "internalType": "bytes",
              "name": "point",
              "type": "bytes"
            }
          ],
          "name": "_fromCompressed",
          "outputs": [
            {
              "internalType": "uint256[2]",
              "name": "result",
              "type": "uint256[2]"
            }
          ],
          "stateMutability": "pure",
          "type": "function"
        },
        {
          "inputs": [
            {
              "internalType": "bytes",
              "name": "input",
              "type": "bytes"
            }
          ],
          "name": "_hashToTryAndIncrement",
          "outputs": [
            {
              "internalType": "uint256[2]",
              "name": "result",
              "type": "uint256[2]"
            }
          ],
          "stateMutability": "pure",
          "type": "function"
        },
        {
          "inputs": [
            {
              "internalType": "uint256[2]",
              "name": "input",
              "type": "uint256[2]"
            }
          ],
          "name": "_isOnCurve",
          "outputs": [
            {
              "internalType": "bool",
              "name": "",
              "type": "bool"
            }
          ],
          "stateMutability": "pure",
          "type": "function"
        },
        {
          "inputs": [
            {
              "internalType": "uint256[3]",
              "name": "input",
              "type": "uint256[3]"
            }
          ],
          "name": "_multiply",
          "outputs": [
            {
              "internalType": "uint256[2]",
              "name": "result",
              "type": "uint256[2]"
            }
          ],
          "stateMutability": "nonpayable",
          "type": "function"
        }
      ],
      "devdoc": {
        "author": "Witnet Foundation",
        "details": "The aim of this contract is twofold: 1. Raise the visibility modifier of contract functions for testing purposes 2. Removal of the `pure` modifier to allow gas consumption analysis",
        "kind": "dev",
        "methods": {},
        "title": "Test Helper for the BN256G1 contract",
        "version": 1
      },
      "evm": {
        "bytecode": {
          "linkReferences": {},
          "object": "60806040523480156100195760008061001661001f565b50505b5061008d565b632a2a7adb598160e01b8152600481016020815285602082015260005b8681101561005a57808601518160408401015260208101905061003c565b506020828760640184336000905af158600e01573d6000803e3d6000fd5b3d6001141558600a015760016000f35b505050565b6114898061009c6000396000f3fe608060405234801561001957600080610016611190565b50505b50600436106100865760003560e01c8063d9f20b8111610064578063d9f20b81146102df578063dc422a4f146103d1578063e54ba7d2146104ec578063f9ae5ec41461059657610086565b806315e37835146100945780639442991c146101af578063b294b46814610235575b600080610091611190565b50505b610171600480360360208110156100b3576000806100b0611190565b50505b81019080803590602001906401000000008111156100d9576000806100d6611190565b50505b8201836020820111156100f4576000806100f1611190565b50505b8035906020019184600183028401116401000000008311171561011f5760008061011c611190565b50505b91908080601f016020809104026020016040519081016040528093929190818152602001838380828437600081840152601f19601f82011690508083019250505050505050919291929050505061061a565b6040518082600260200280838360005b8381101561019c578082015181840152602081019050610181565b5050505090500191505060405180910390f35b61021d60048036036101808110156101cf576000806101cc611190565b50505b81019080806101800190600c806020026040519081016040528092919082600c60200280828437600081840152601f19601f820116905080830192505050505050919291929050505061065c565b60405180821515815260200191505060405180910390f35b6102a16004803603608081101561025457600080610251611190565b50505b8101908080608001906004806020026040519081016040528092919082600460200280828437600081840152601f19601f820116905080830192505050505050919291929050505061066e565b6040518082600260200280838360005b838110156102cc5780820151818401526020810190506102b1565b5050505090500191505060405180910390f35b6103b9600480360360208110156102fe576000806102fb611190565b50505b810190808035906020019064010000000081111561032457600080610321611190565b50505b82018360208201111561033f5760008061033c611190565b50505b8035906020019184602083028401116401000000008311171561036a57600080610367611190565b50505b919080806020026020016040519081016040528093929190818152602001838360200280828437600081840152601f19601f8201169050808301925050505050505091929192905050506106b0565b60405180821515815260200191505060405180910390f35b6104ae600480360360208110156103f0576000806103ed611190565b50505b810190808035906020019064010000000081111561041657600080610413611190565b50505b8201836020820111156104315760008061042e611190565b50505b8035906020019184600183028401116401000000008311171561045c57600080610459611190565b50505b91908080601f016020809104026020016040519081016040528093929190818152602001838380828437600081840152601f19601f8201169050808301925050505050505091929192905050506106c2565b6040518082600260200280838360005b838110156104d95780820151818401526020810190506104be565b5050505090500191505060405180910390f35b6105586004803603606081101561050b57600080610508611190565b50505b8101908080606001906003806020026040519081016040528092919082600360200280828437600081840152601f19601f8201169050808301925050505050509192919290505050610704565b6040518082600260200280838360005b83811015610583578082015181840152602081019050610568565b5050505090500191505060405180910390f35b610602600480360360408110156105b5576000806105b2611190565b50505b8101908080604001906002806020026040519081016040528092919082600260200280828437600081840152601f19601f8201169050808301925050505050509192919290505050610746565b60405180821515815260200191505060405180910390f35b6106226111fe565b61062b82610758565b8260006002811061063857fe5b602002018360016002811061064957fe5b6020020182815250828152505050919050565b6000610667826109d3565b9050919050565b6106766111fe565b61067f82610a99565b8260006002811061068c57fe5b602002018360016002811061069d57fe5b6020020182815250828152505050919050565b60006106bb82610b6e565b9050919050565b6106ca6111fe565b6106d382610cc8565b826000600281106106e057fe5b60200201836001600281106106f157fe5b6020020182815250828152505050919050565b61070c6111fe565b61071582610d72565b8260006002811061072257fe5b602002018360016002811061073357fe5b6020020182815250828152505050919050565b600061075182610e2a565b9050919050565b60008060005b6101008160ff161015610956576000600285836040516020018083805190602001908083835b602083106107a75780518252602082019150602081019050602083039250610784565b6001836020036101000a0380198251168184511680821785525050505050509050018260ff1660f81b8152600101925050506040516020818303038152906040526040518082805190602001908083835b6020831061081b57805182526020820191506020810190506020830392506107f8565b6001836020036101000a038019825116818451168082178552505050505050905001915050602060405180830381855a610853611220565b5050505050158015610872573d6000803e3d600061086f611190565b50505b5050506040513d60208110156108905760008061088d611190565b50505b8101908080519060200190929190505050905060008160001c90507ff1f5883e65f820d099915c908786b9d3f58714d70a38f4c22ca2bc723a70f26381106108d9575050610949565b7f30644e72e131a029b85045b68181585d97816a916871ca8d3c208c16d87cfd47818161090257fe5b0690506000610912600283610e84565b9050610931604051806040016040528084815260200183815250610e2a565b1561094557818195509550505050506109ce565b5050505b808060010191505061075e565b506040517f08c379a00000000000000000000000000000000000000000000000000000000081526004018080602001828103825260188152602001807f4e6f2076616c696420706f696e742077617320666f756e640000000000000000815250602001915050604051809103906109cb611190565b50505b915091565b60006109dd611320565b600060208261018086600060086107d05a036109f7611342565b505050505050905080610a7b576040517f08c379a000000000000000000000000000000000000000000000000000000000815260040180806020018281038252601d8152602001807f656c6c69707469632063757276652070616972696e67206661696c656400000081525060200191505060405180910390610a78611190565b50505b600182600060018110610a8a57fe5b60200201511492505050919050565b6000806000610aa66111fe565b60408160808760006006600019610abb611342565b505050505050915081610b3f576040517f08c379a00000000000000000000000000000000000000000000000000000000081526004018080602001828103825260158152602001807f626e323536206164646974696f6e206661696c6564000000000000000000000081525060200191505060405180910390610b3c611190565b50505b80600060028110610b4c57fe5b602002015181600160028110610b5e57fe5b6020020151935093505050915091565b6000610b78611320565b6000806006855181610b8657fe5b0614610c03576040517f08c379a00000000000000000000000000000000000000000000000000000000081526004018080602001828103825260168152602001807f496e636f727265637420696e707574206c656e6774680000000000000000000081525060200191505060405180910390610c00611190565b50505b6000602085510290506020838260208801600060086107d05a03610c25611342565b505050505050915081610ca9576040517f08c379a000000000000000000000000000000000000000000000000000000000815260040180806020018281038252601d8152602001807f656c6c69707469632063757276652070616972696e67206661696c656400000081525060200191505060405180910390610ca6611190565b50505b600183600060018110610cb857fe5b6020020151149350505050919050565b6000806021835114610d4b576040517f08c379a00000000000000000000000000000000000000000000000000000000081526004018080602001828103825260108152602001807f696e76616c696420656e636f64696e670000000000000000000000000000000081525060200191505060405180910390610d48611190565b50505b600080600185015191506021850151905080610d678383610e84565b935093505050915091565b6000806000610d7f6111fe565b60408160608760006007600019610d94611342565b505050505050915081610dfb576040517f08c379a00000000000000000000000000000000000000000000000000000000081526004018080602001828103825260248152602001806114656024913960400191505060405180910390610df8611190565b50505b80600060028110610e0857fe5b602002015181600160028110610e1a57fe5b6020020151935093505050915091565b6000610e7d82600060028110610e3c57fe5b602002015183600160028110610e4e57fe5b6020020151600060037f30644e72e131a029b85045b68181585d97816a916871ca8d3c208c16d87cfd47610ebd565b9050919050565b6000610eb58383600060037f30644e72e131a029b85045b68181585d97816a916871ca8d3c208c16d87cfd47610f61565b905092915050565b60008560001480610ece5750818610155b80610ed95750846000145b80610ee45750818510155b15610ef25760009050610f58565b60008280610efc57fe5b868709905060008380610f0b57fe5b888580610f1457fe5b8a8b0909905060008614610f3a578380610f2a57fe5b8480610f3257fe5b878a09820890505b60008514610f50578380610f4a57fe5b85820890505b808214925050505b95945050505050565b600060028660ff161480610f78575060038660ff16145b610fd6576040517f08c379a00000000000000000000000000000000000000000000000000000000081526004018080602001828103825260228152602001806114436022913960400191505060405180910390610fd3611190565b50505b60008280610fe057fe5b8380610fe857fe5b858580610ff157fe5b888a09088480610ffd57fe5b858061100557fe5b898a098909089050611025816004600186018161101e57fe5b0485611059565b905060008060028960ff1684018161103957fe5b061461104757818403611049565b815b9050809250505095945050505050565b6000808214156110da576040517f08c379a000000000000000000000000000000000000000000000000000000000815260040180806020018281038252600f8152602001807f4d6f64756c7573206973207a65726f0000000000000000000000000000000000815250602001915050604051809103906110d7611190565b50505b60008414156110ec5760009050611189565b60008314156110fe5760019050611189565b60006001905060007f800000000000000000000000000000000000000000000000000000000000000090505b600081111561118357838186161515870a85848509099150836002820486161515870a85848509099150836004820486161515870a85848509099150836008820486161515870a8584850909915060108104905061112a565b81925050505b9392505050565b632a2a7adb598160e01b8152600481016020815285602082015260005b868110156111cb5780860151816040840101526020810190506111ad565b506020828760640184336000905af158600e01573d6000803e3d6000fd5b3d6001141558600a015760016000f35b505050565b6040518060400160405280600290602082028036833780820191505090505090565b638540661f598160e01b815261125f565b600081905081831115611242578290505b92915050565b600081905081831015611259578290505b92915050565b836004820152846024820152606060448201528660648201526084810160005b8881101561129a57808801518183015260208101905061127f565b506060828960a40184336000905af158600e01573d6000803e3d6000fd5b3d6001141558600a015760016000f35b815160408301513d6000853e8b8b82606087013350600060045af150596112ef8d3d611248565b8c016112fb8187611231565b5b8281101561131357600081526020810190506112fc565b50839d5050505050505050565b6040518060200160405280600190602082028036833780820191505090505090565b6385979f76598160e01b8152611381565b600081905081831115611364578290505b92915050565b60008190508183101561137b578290505b92915050565b836004820152846024820152606060448201528760648201526084810160005b898110156113bc5780890151818301526020810190506113a1565b506060828a60a40184336000905af158600e01573d6000803e3d6000fd5b3d6001141558600a015760016000f35b815160408301513d6000853e8c8c82606087013350600060045af150596114118e3d61136a565b8d0161141d8187611353565b5b82811015611435576000815260208101905061141e565b50839e505050505050505056fe496e76616c696420636f6d7072657373656420454320706f696e7420707265666978656c6c6970746963206375727665206d756c7469706c69636174696f6e206661696c6564",
          "opcodes": "PUSH1 0x80 PUSH1 0x40 MSTORE CALLVALUE DUP1 ISZERO PUSH2 0x19 JUMPI PUSH1 0x0 DUP1 PUSH2 0x16 PUSH2 0x1F JUMP JUMPDEST POP POP JUMPDEST POP PUSH2 0x8D JUMP JUMPDEST PUSH4 0x2A2A7ADB MSIZE DUP2 PUSH1 0xE0 SHL DUP2 MSTORE PUSH1 0x4 DUP2 ADD PUSH1 0x20 DUP2 MSTORE DUP6 PUSH1 0x20 DUP3 ADD MSTORE PUSH1 0x0 JUMPDEST DUP7 DUP2 LT ISZERO PUSH2 0x5A JUMPI DUP1 DUP7 ADD MLOAD DUP2 PUSH1 0x40 DUP5 ADD ADD MSTORE PUSH1 0x20 DUP2 ADD SWAP1 POP PUSH2 0x3C JUMP JUMPDEST POP PUSH1 0x20 DUP3 DUP8 PUSH1 0x64 ADD DUP5 CALLER PUSH1 0x0 SWAP1 GAS CALL PC PUSH1 0xE ADD JUMPI RETURNDATASIZE PUSH1 0x0 DUP1 RETURNDATACOPY RETURNDATASIZE PUSH1 0x0 REVERT JUMPDEST RETURNDATASIZE PUSH1 0x1 EQ ISZERO PC PUSH1 0xA ADD JUMPI PUSH1 0x1 PUSH1 0x0 RETURN JUMPDEST POP POP POP JUMP JUMPDEST PUSH2 0x1489 DUP1 PUSH2 0x9C PUSH1 0x0 CODECOPY PUSH1 0x0 RETURN INVALID PUSH1 0x80 PUSH1 0x40 MSTORE CALLVALUE DUP1 ISZERO PUSH2 0x19 JUMPI PUSH1 0x0 DUP1 PUSH2 0x16 PUSH2 0x1190 JUMP JUMPDEST POP POP JUMPDEST POP PUSH1 0x4 CALLDATASIZE LT PUSH2 0x86 JUMPI PUSH1 0x0 CALLDATALOAD PUSH1 0xE0 SHR DUP1 PUSH4 0xD9F20B81 GT PUSH2 0x64 JUMPI DUP1 PUSH4 0xD9F20B81 EQ PUSH2 0x2DF JUMPI DUP1 PUSH4 0xDC422A4F EQ PUSH2 0x3D1 JUMPI DUP1 PUSH4 0xE54BA7D2 EQ PUSH2 0x4EC JUMPI DUP1 PUSH4 0xF9AE5EC4 EQ PUSH2 0x596 JUMPI PUSH2 0x86 JUMP JUMPDEST DUP1 PUSH4 0x15E37835 EQ PUSH2 0x94 JUMPI DUP1 PUSH4 0x9442991C EQ PUSH2 0x1AF JUMPI DUP1 PUSH4 0xB294B468 EQ PUSH2 0x235 JUMPI JUMPDEST PUSH1 0x0 DUP1 PUSH2 0x91 PUSH2 0x1190 JUMP JUMPDEST POP POP JUMPDEST PUSH2 0x171 PUSH1 0x4 DUP1 CALLDATASIZE SUB PUSH1 0x20 DUP2 LT ISZERO PUSH2 0xB3 JUMPI PUSH1 0x0 DUP1 PUSH2 0xB0 PUSH2 0x1190 JUMP JUMPDEST POP POP JUMPDEST DUP2 ADD SWAP1 DUP1 DUP1 CALLDATALOAD SWAP1 PUSH1 0x20 ADD SWAP1 PUSH5 0x100000000 DUP2 GT ISZERO PUSH2 0xD9 JUMPI PUSH1 0x0 DUP1 PUSH2 0xD6 PUSH2 0x1190 JUMP JUMPDEST POP POP JUMPDEST DUP3 ADD DUP4 PUSH1 0x20 DUP3 ADD GT ISZERO PUSH2 0xF4 JUMPI PUSH1 0x0 DUP1 PUSH2 0xF1 PUSH2 0x1190 JUMP JUMPDEST POP POP JUMPDEST DUP1 CALLDATALOAD SWAP1 PUSH1 0x20 ADD SWAP2 DUP5 PUSH1 0x1 DUP4 MUL DUP5 ADD GT PUSH5 0x100000000 DUP4 GT OR ISZERO PUSH2 0x11F JUMPI PUSH1 0x0 DUP1 PUSH2 0x11C PUSH2 0x1190 JUMP JUMPDEST POP POP JUMPDEST SWAP2 SWAP1 DUP1 DUP1 PUSH1 0x1F ADD PUSH1 0x20 DUP1 SWAP2 DIV MUL PUSH1 0x20 ADD PUSH1 0x40 MLOAD SWAP1 DUP2 ADD PUSH1 0x40 MSTORE DUP1 SWAP4 SWAP3 SWAP2 SWAP1 DUP2 DUP2 MSTORE PUSH1 0x20 ADD DUP4 DUP4 DUP1 DUP3 DUP5 CALLDATACOPY PUSH1 0x0 DUP2 DUP5 ADD MSTORE PUSH1 0x1F NOT PUSH1 0x1F DUP3 ADD AND SWAP1 POP DUP1 DUP4 ADD SWAP3 POP POP POP POP POP POP POP SWAP2 SWAP3 SWAP2 SWAP3 SWAP1 POP POP POP PUSH2 0x61A JUMP JUMPDEST PUSH1 0x40 MLOAD DUP1 DUP3 PUSH1 0x2 PUSH1 0x20 MUL DUP1 DUP4 DUP4 PUSH1 0x0 JUMPDEST DUP4 DUP2 LT ISZERO PUSH2 0x19C JUMPI DUP1 DUP3 ADD MLOAD DUP2 DUP5 ADD MSTORE PUSH1 0x20 DUP2 ADD SWAP1 POP PUSH2 0x181 JUMP JUMPDEST POP POP POP POP SWAP1 POP ADD SWAP2 POP POP PUSH1 0x40 MLOAD DUP1 SWAP2 SUB SWAP1 RETURN JUMPDEST PUSH2 0x21D PUSH1 0x4 DUP1 CALLDATASIZE SUB PUSH2 0x180 DUP2 LT ISZERO PUSH2 0x1CF JUMPI PUSH1 0x0 DUP1 PUSH2 0x1CC PUSH2 0x1190 JUMP JUMPDEST POP POP JUMPDEST DUP2 ADD SWAP1 DUP1 DUP1 PUSH2 0x180 ADD SWAP1 PUSH1 0xC DUP1 PUSH1 0x20 MUL PUSH1 0x40 MLOAD SWAP1 DUP2 ADD PUSH1 0x40 MSTORE DUP1 SWAP3 SWAP2 SWAP1 DUP3 PUSH1 0xC PUSH1 0x20 MUL DUP1 DUP3 DUP5 CALLDATACOPY PUSH1 0x0 DUP2 DUP5 ADD MSTORE PUSH1 0x1F NOT PUSH1 0x1F DUP3 ADD AND SWAP1 POP DUP1 DUP4 ADD SWAP3 POP POP POP POP POP POP SWAP2 SWAP3 SWAP2 SWAP3 SWAP1 POP POP POP PUSH2 0x65C JUMP JUMPDEST PUSH1 0x40 MLOAD DUP1 DUP3 ISZERO ISZERO DUP2 MSTORE PUSH1 0x20 ADD SWAP2 POP POP PUSH1 0x40 MLOAD DUP1 SWAP2 SUB SWAP1 RETURN JUMPDEST PUSH2 0x2A1 PUSH1 0x4 DUP1 CALLDATASIZE SUB PUSH1 0x80 DUP2 LT ISZERO PUSH2 0x254 JUMPI PUSH1 0x0 DUP1 PUSH2 0x251 PUSH2 0x1190 JUMP JUMPDEST POP POP JUMPDEST DUP2 ADD SWAP1 DUP1 DUP1 PUSH1 0x80 ADD SWAP1 PUSH1 0x4 DUP1 PUSH1 0x20 MUL PUSH1 0x40 MLOAD SWAP1 DUP2 ADD PUSH1 0x40 MSTORE DUP1 SWAP3 SWAP2 SWAP1 DUP3 PUSH1 0x4 PUSH1 0x20 MUL DUP1 DUP3 DUP5 CALLDATACOPY PUSH1 0x0 DUP2 DUP5 ADD MSTORE PUSH1 0x1F NOT PUSH1 0x1F DUP3 ADD AND SWAP1 POP DUP1 DUP4 ADD SWAP3 POP POP POP POP POP POP SWAP2 SWAP3 SWAP2 SWAP3 SWAP1 POP POP POP PUSH2 0x66E JUMP JUMPDEST PUSH1 0x40 MLOAD DUP1 DUP3 PUSH1 0x2 PUSH1 0x20 MUL DUP1 DUP4 DUP4 PUSH1 0x0 JUMPDEST DUP4 DUP2 LT ISZERO PUSH2 0x2CC JUMPI DUP1 DUP3 ADD MLOAD DUP2 DUP5 ADD MSTORE PUSH1 0x20 DUP2 ADD SWAP1 POP PUSH2 0x2B1 JUMP JUMPDEST POP POP POP POP SWAP1 POP ADD SWAP2 POP POP PUSH1 0x40 MLOAD DUP1 SWAP2 SUB SWAP1 RETURN JUMPDEST PUSH2 0x3B9 PUSH1 0x4 DUP1 CALLDATASIZE SUB PUSH1 0x20 DUP2 LT ISZERO PUSH2 0x2FE JUMPI PUSH1 0x0 DUP1 PUSH2 0x2FB PUSH2 0x1190 JUMP JUMPDEST POP POP JUMPDEST DUP2 ADD SWAP1 DUP1 DUP1 CALLDATALOAD SWAP1 PUSH1 0x20 ADD SWAP1 PUSH5 0x100000000 DUP2 GT ISZERO PUSH2 0x324 JUMPI PUSH1 0x0 DUP1 PUSH2 0x321 PUSH2 0x1190 JUMP JUMPDEST POP POP JUMPDEST DUP3 ADD DUP4 PUSH1 0x20 DUP3 ADD GT ISZERO PUSH2 0x33F JUMPI PUSH1 0x0 DUP1 PUSH2 0x33C PUSH2 0x1190 JUMP JUMPDEST POP POP JUMPDEST DUP1 CALLDATALOAD SWAP1 PUSH1 0x20 ADD SWAP2 DUP5 PUSH1 0x20 DUP4 MUL DUP5 ADD GT PUSH5 0x100000000 DUP4 GT OR ISZERO PUSH2 0x36A JUMPI PUSH1 0x0 DUP1 PUSH2 0x367 PUSH2 0x1190 JUMP JUMPDEST POP POP JUMPDEST SWAP2 SWAP1 DUP1 DUP1 PUSH1 0x20 MUL PUSH1 0x20 ADD PUSH1 0x40 MLOAD SWAP1 DUP2 ADD PUSH1 0x40 MSTORE DUP1 SWAP4 SWAP3 SWAP2 SWAP1 DUP2 DUP2 MSTORE PUSH1 0x20 ADD DUP4 DUP4 PUSH1 0x20 MUL DUP1 DUP3 DUP5 CALLDATACOPY PUSH1 0x0 DUP2 DUP5 ADD MSTORE PUSH1 0x1F NOT PUSH1 0x1F DUP3 ADD AND SWAP1 POP DUP1 DUP4 ADD SWAP3 POP POP POP POP POP POP POP SWAP2 SWAP3 SWAP2 SWAP3 SWAP1 POP POP POP PUSH2 0x6B0 JUMP JUMPDEST PUSH1 0x40 MLOAD DUP1 DUP3 ISZERO ISZERO DUP2 MSTORE PUSH1 0x20 ADD SWAP2 POP POP PUSH1 0x40 MLOAD DUP1 SWAP2 SUB SWAP1 RETURN JUMPDEST PUSH2 0x4AE PUSH1 0x4 DUP1 CALLDATASIZE SUB PUSH1 0x20 DUP2 LT ISZERO PUSH2 0x3F0 JUMPI PUSH1 0x0 DUP1 PUSH2 0x3ED PUSH2 0x1190 JUMP JUMPDEST POP POP JUMPDEST DUP2 ADD SWAP1 DUP1 DUP1 CALLDATALOAD SWAP1 PUSH1 0x20 ADD SWAP1 PUSH5 0x100000000 DUP2 GT ISZERO PUSH2 0x416 JUMPI PUSH1 0x0 DUP1 PUSH2 0x413 PUSH2 0x1190 JUMP JUMPDEST POP POP JUMPDEST DUP3 ADD DUP4 PUSH1 0x20 DUP3 ADD GT ISZERO PUSH2 0x431 JUMPI PUSH1 0x0 DUP1 PUSH2 0x42E PUSH2 0x1190 JUMP JUMPDEST POP POP JUMPDEST DUP1 CALLDATALOAD SWAP1 PUSH1 0x20 ADD SWAP2 DUP5 PUSH1 0x1 DUP4 MUL DUP5 ADD GT PUSH5 0x100000000 DUP4 GT OR ISZERO PUSH2 0x45C JUMPI PUSH1 0x0 DUP1 PUSH2 0x459 PUSH2 0x1190 JUMP JUMPDEST POP POP JUMPDEST SWAP2 SWAP1 DUP1 DUP1 PUSH1 0x1F ADD PUSH1 0x20 DUP1 SWAP2 DIV MUL PUSH1 0x20 ADD PUSH1 0x40 MLOAD SWAP1 DUP2 ADD PUSH1 0x40 MSTORE DUP1 SWAP4 SWAP3 SWAP2 SWAP1 DUP2 DUP2 MSTORE PUSH1 0x20 ADD DUP4 DUP4 DUP1 DUP3 DUP5 CALLDATACOPY PUSH1 0x0 DUP2 DUP5 ADD MSTORE PUSH1 0x1F NOT PUSH1 0x1F DUP3 ADD AND SWAP1 POP DUP1 DUP4 ADD SWAP3 POP POP POP POP POP POP POP SWAP2 SWAP3 SWAP2 SWAP3 SWAP1 POP POP POP PUSH2 0x6C2 JUMP JUMPDEST PUSH1 0x40 MLOAD DUP1 DUP3 PUSH1 0x2 PUSH1 0x20 MUL DUP1 DUP4 DUP4 PUSH1 0x0 JUMPDEST DUP4 DUP2 LT ISZERO PUSH2 0x4D9 JUMPI DUP1 DUP3 ADD MLOAD DUP2 DUP5 ADD MSTORE PUSH1 0x20 DUP2 ADD SWAP1 POP PUSH2 0x4BE JUMP JUMPDEST POP POP POP POP SWAP1 POP ADD SWAP2 POP POP PUSH1 0x40 MLOAD DUP1 SWAP2 SUB SWAP1 RETURN JUMPDEST PUSH2 0x558 PUSH1 0x4 DUP1 CALLDATASIZE SUB PUSH1 0x60 DUP2 LT ISZERO PUSH2 0x50B JUMPI PUSH1 0x0 DUP1 PUSH2 0x508 PUSH2 0x1190 JUMP JUMPDEST POP POP JUMPDEST DUP2 ADD SWAP1 DUP1 DUP1 PUSH1 0x60 ADD SWAP1 PUSH1 0x3 DUP1 PUSH1 0x20 MUL PUSH1 0x40 MLOAD SWAP1 DUP2 ADD PUSH1 0x40 MSTORE DUP1 SWAP3 SWAP2 SWAP1 DUP3 PUSH1 0x3 PUSH1 0x20 MUL DUP1 DUP3 DUP5 CALLDATACOPY PUSH1 0x0 DUP2 DUP5 ADD MSTORE PUSH1 0x1F NOT PUSH1 0x1F DUP3 ADD AND SWAP1 POP DUP1 DUP4 ADD SWAP3 POP POP POP POP POP POP SWAP2 SWAP3 SWAP2 SWAP3 SWAP1 POP POP POP PUSH2 0x704 JUMP JUMPDEST PUSH1 0x40 MLOAD DUP1 DUP3 PUSH1 0x2 PUSH1 0x20 MUL DUP1 DUP4 DUP4 PUSH1 0x0 JUMPDEST DUP4 DUP2 LT ISZERO PUSH2 0x583 JUMPI DUP1 DUP3 ADD MLOAD DUP2 DUP5 ADD MSTORE PUSH1 0x20 DUP2 ADD SWAP1 POP PUSH2 0x568 JUMP JUMPDEST POP POP POP POP SWAP1 POP ADD SWAP2 POP POP PUSH1 0x40 MLOAD DUP1 SWAP2 SUB SWAP1 RETURN JUMPDEST PUSH2 0x602 PUSH1 0x4 DUP1 CALLDATASIZE SUB PUSH1 0x40 DUP2 LT ISZERO PUSH2 0x5B5 JUMPI PUSH1 0x0 DUP1 PUSH2 0x5B2 PUSH2 0x1190 JUMP JUMPDEST POP POP JUMPDEST DUP2 ADD SWAP1 DUP1 DUP1 PUSH1 0x40 ADD SWAP1 PUSH1 0x2 DUP1 PUSH1 0x20 MUL PUSH1 0x40 MLOAD SWAP1 DUP2 ADD PUSH1 0x40 MSTORE DUP1 SWAP3 SWAP2 SWAP1 DUP3 PUSH1 0x2 PUSH1 0x20 MUL DUP1 DUP3 DUP5 CALLDATACOPY PUSH1 0x0 DUP2 DUP5 ADD MSTORE PUSH1 0x1F NOT PUSH1 0x1F DUP3 ADD AND SWAP1 POP DUP1 DUP4 ADD SWAP3 POP POP POP POP POP POP SWAP2 SWAP3 SWAP2 SWAP3 SWAP1 POP POP POP PUSH2 0x746 JUMP JUMPDEST PUSH1 0x40 MLOAD DUP1 DUP3 ISZERO ISZERO DUP2 MSTORE PUSH1 0x20 ADD SWAP2 POP POP PUSH1 0x40 MLOAD DUP1 SWAP2 SUB SWAP1 RETURN JUMPDEST PUSH2 0x622 PUSH2 0x11FE JUMP JUMPDEST PUSH2 0x62B DUP3 PUSH2 0x758 JUMP JUMPDEST DUP3 PUSH1 0x0 PUSH1 0x2 DUP2 LT PUSH2 0x638 JUMPI INVALID JUMPDEST PUSH1 0x20 MUL ADD DUP4 PUSH1 0x1 PUSH1 0x2 DUP2 LT PUSH2 0x649 JUMPI INVALID JUMPDEST PUSH1 0x20 MUL ADD DUP3 DUP2 MSTORE POP DUP3 DUP2 MSTORE POP POP POP SWAP2 SWAP1 POP JUMP JUMPDEST PUSH1 0x0 PUSH2 0x667 DUP3 PUSH2 0x9D3 JUMP JUMPDEST SWAP1 POP SWAP2 SWAP1 POP JUMP JUMPDEST PUSH2 0x676 PUSH2 0x11FE JUMP JUMPDEST PUSH2 0x67F DUP3 PUSH2 0xA99 JUMP JUMPDEST DUP3 PUSH1 0x0 PUSH1 0x2 DUP2 LT PUSH2 0x68C JUMPI INVALID JUMPDEST PUSH1 0x20 MUL ADD DUP4 PUSH1 0x1 PUSH1 0x2 DUP2 LT PUSH2 0x69D JUMPI INVALID JUMPDEST PUSH1 0x20 MUL ADD DUP3 DUP2 MSTORE POP DUP3 DUP2 MSTORE POP POP POP SWAP2 SWAP1 POP JUMP JUMPDEST PUSH1 0x0 PUSH2 0x6BB DUP3 PUSH2 0xB6E JUMP JUMPDEST SWAP1 POP SWAP2 SWAP1 POP JUMP JUMPDEST PUSH2 0x6CA PUSH2 0x11FE JUMP JUMPDEST PUSH2 0x6D3 DUP3 PUSH2 0xCC8 JUMP JUMPDEST DUP3 PUSH1 0x0 PUSH1 0x2 DUP2 LT PUSH2 0x6E0 JUMPI INVALID JUMPDEST PUSH1 0x20 MUL ADD DUP4 PUSH1 0x1 PUSH1 0x2 DUP2 LT PUSH2 0x6F1 JUMPI INVALID JUMPDEST PUSH1 0x20 MUL ADD DUP3 DUP2 MSTORE POP DUP3 DUP2 MSTORE POP POP POP SWAP2 SWAP1 POP JUMP JUMPDEST PUSH2 0x70C PUSH2 0x11FE JUMP JUMPDEST PUSH2 0x715 DUP3 PUSH2 0xD72 JUMP JUMPDEST DUP3 PUSH1 0x0 PUSH1 0x2 DUP2 LT PUSH2 0x722 JUMPI INVALID JUMPDEST PUSH1 0x20 MUL ADD DUP4 PUSH1 0x1 PUSH1 0x2 DUP2 LT PUSH2 0x733 JUMPI INVALID JUMPDEST PUSH1 0x20 MUL ADD DUP3 DUP2 MSTORE POP DUP3 DUP2 MSTORE POP POP POP SWAP2 SWAP1 POP JUMP JUMPDEST PUSH1 0x0 PUSH2 0x751 DUP3 PUSH2 0xE2A JUMP JUMPDEST SWAP1 POP SWAP2 SWAP1 POP JUMP JUMPDEST PUSH1 0x0 DUP1 PUSH1 0x0 JUMPDEST PUSH2 0x100 DUP2 PUSH1 0xFF AND LT ISZERO PUSH2 0x956 JUMPI PUSH1 0x0 PUSH1 0x2 DUP6 DUP4 PUSH1 0x40 MLOAD PUSH1 0x20 ADD DUP1 DUP4 DUP1 MLOAD SWAP1 PUSH1 0x20 ADD SWAP1 DUP1 DUP4 DUP4 JUMPDEST PUSH1 0x20 DUP4 LT PUSH2 0x7A7 JUMPI DUP1 MLOAD DUP3 MSTORE PUSH1 0x20 DUP3 ADD SWAP2 POP PUSH1 0x20 DUP2 ADD SWAP1 POP PUSH1 0x20 DUP4 SUB SWAP3 POP PUSH2 0x784 JUMP JUMPDEST PUSH1 0x1 DUP4 PUSH1 0x20 SUB PUSH2 0x100 EXP SUB DUP1 NOT DUP3 MLOAD AND DUP2 DUP5 MLOAD AND DUP1 DUP3 OR DUP6 MSTORE POP POP POP POP POP POP SWAP1 POP ADD DUP3 PUSH1 0xFF AND PUSH1 0xF8 SHL DUP2 MSTORE PUSH1 0x1 ADD SWAP3 POP POP POP PUSH1 0x40 MLOAD PUSH1 0x20 DUP2 DUP4 SUB SUB DUP2 MSTORE SWAP1 PUSH1 0x40 MSTORE PUSH1 0x40 MLOAD DUP1 DUP3 DUP1 MLOAD SWAP1 PUSH1 0x20 ADD SWAP1 DUP1 DUP4 DUP4 JUMPDEST PUSH1 0x20 DUP4 LT PUSH2 0x81B JUMPI DUP1 MLOAD DUP3 MSTORE PUSH1 0x20 DUP3 ADD SWAP2 POP PUSH1 0x20 DUP2 ADD SWAP1 POP PUSH1 0x20 DUP4 SUB SWAP3 POP PUSH2 0x7F8 JUMP JUMPDEST PUSH1 0x1 DUP4 PUSH1 0x20 SUB PUSH2 0x100 EXP SUB DUP1 NOT DUP3 MLOAD AND DUP2 DUP5 MLOAD AND DUP1 DUP3 OR DUP6 MSTORE POP POP POP POP POP POP SWAP1 POP ADD SWAP2 POP POP PUSH1 0x20 PUSH1 0x40 MLOAD DUP1 DUP4 SUB DUP2 DUP6 GAS PUSH2 0x853 PUSH2 0x1220 JUMP JUMPDEST POP POP POP POP POP ISZERO DUP1 ISZERO PUSH2 0x872 JUMPI RETURNDATASIZE PUSH1 0x0 DUP1 RETURNDATACOPY RETURNDATASIZE PUSH1 0x0 PUSH2 0x86F PUSH2 0x1190 JUMP JUMPDEST POP POP JUMPDEST POP POP POP PUSH1 0x40 MLOAD RETURNDATASIZE PUSH1 0x20 DUP2 LT ISZERO PUSH2 0x890 JUMPI PUSH1 0x0 DUP1 PUSH2 0x88D PUSH2 0x1190 JUMP JUMPDEST POP POP JUMPDEST DUP2 ADD SWAP1 DUP1 DUP1 MLOAD SWAP1 PUSH1 0x20 ADD SWAP1 SWAP3 SWAP2 SWAP1 POP POP POP SWAP1 POP PUSH1 0x0 DUP2 PUSH1 0x0 SHR SWAP1 POP PUSH32 0xF1F5883E65F820D099915C908786B9D3F58714D70A38F4C22CA2BC723A70F263 DUP2 LT PUSH2 0x8D9 JUMPI POP POP PUSH2 0x949 JUMP JUMPDEST PUSH32 0x30644E72E131A029B85045B68181585D97816A916871CA8D3C208C16D87CFD47 DUP2 DUP2 PUSH2 0x902 JUMPI INVALID JUMPDEST MOD SWAP1 POP PUSH1 0x0 PUSH2 0x912 PUSH1 0x2 DUP4 PUSH2 0xE84 JUMP JUMPDEST SWAP1 POP PUSH2 0x931 PUSH1 0x40 MLOAD DUP1 PUSH1 0x40 ADD PUSH1 0x40 MSTORE DUP1 DUP5 DUP2 MSTORE PUSH1 0x20 ADD DUP4 DUP2 MSTORE POP PUSH2 0xE2A JUMP JUMPDEST ISZERO PUSH2 0x945 JUMPI DUP2 DUP2 SWAP6 POP SWAP6 POP POP POP POP POP PUSH2 0x9CE JUMP JUMPDEST POP POP POP JUMPDEST DUP1 DUP1 PUSH1 0x1 ADD SWAP2 POP POP PUSH2 0x75E JUMP JUMPDEST POP PUSH1 0x40 MLOAD PUSH32 0x8C379A000000000000000000000000000000000000000000000000000000000 DUP2 MSTORE PUSH1 0x4 ADD DUP1 DUP1 PUSH1 0x20 ADD DUP3 DUP2 SUB DUP3 MSTORE PUSH1 0x18 DUP2 MSTORE PUSH1 0x20 ADD DUP1 PUSH32 0x4E6F2076616C696420706F696E742077617320666F756E640000000000000000 DUP2 MSTORE POP PUSH1 0x20 ADD SWAP2 POP POP PUSH1 0x40 MLOAD DUP1 SWAP2 SUB SWAP1 PUSH2 0x9CB PUSH2 0x1190 JUMP JUMPDEST POP POP JUMPDEST SWAP2 POP SWAP2 JUMP JUMPDEST PUSH1 0x0 PUSH2 0x9DD PUSH2 0x1320 JUMP JUMPDEST PUSH1 0x0 PUSH1 0x20 DUP3 PUSH2 0x180 DUP7 PUSH1 0x0 PUSH1 0x8 PUSH2 0x7D0 GAS SUB PUSH2 0x9F7 PUSH2 0x1342 JUMP JUMPDEST POP POP POP POP POP POP SWAP1 POP DUP1 PUSH2 0xA7B JUMPI PUSH1 0x40 MLOAD PUSH32 0x8C379A000000000000000000000000000000000000000000000000000000000 DUP2 MSTORE PUSH1 0x4 ADD DUP1 DUP1 PUSH1 0x20 ADD DUP3 DUP2 SUB DUP3 MSTORE PUSH1 0x1D DUP2 MSTORE PUSH1 0x20 ADD DUP1 PUSH32 0x656C6C69707469632063757276652070616972696E67206661696C6564000000 DUP2 MSTORE POP PUSH1 0x20 ADD SWAP2 POP POP PUSH1 0x40 MLOAD DUP1 SWAP2 SUB SWAP1 PUSH2 0xA78 PUSH2 0x1190 JUMP JUMPDEST POP POP JUMPDEST PUSH1 0x1 DUP3 PUSH1 0x0 PUSH1 0x1 DUP2 LT PUSH2 0xA8A JUMPI INVALID JUMPDEST PUSH1 0x20 MUL ADD MLOAD EQ SWAP3 POP POP POP SWAP2 SWAP1 POP JUMP JUMPDEST PUSH1 0x0 DUP1 PUSH1 0x0 PUSH2 0xAA6 PUSH2 0x11FE JUMP JUMPDEST PUSH1 0x40 DUP2 PUSH1 0x80 DUP8 PUSH1 0x0 PUSH1 0x6 PUSH1 0x0 NOT PUSH2 0xABB PUSH2 0x1342 JUMP JUMPDEST POP POP POP POP POP POP SWAP2 POP DUP2 PUSH2 0xB3F JUMPI PUSH1 0x40 MLOAD PUSH32 0x8C379A000000000000000000000000000000000000000000000000000000000 DUP2 MSTORE PUSH1 0x4 ADD DUP1 DUP1 PUSH1 0x20 ADD DUP3 DUP2 SUB DUP3 MSTORE PUSH1 0x15 DUP2 MSTORE PUSH1 0x20 ADD DUP1 PUSH32 0x626E323536206164646974696F6E206661696C65640000000000000000000000 DUP2 MSTORE POP PUSH1 0x20 ADD SWAP2 POP POP PUSH1 0x40 MLOAD DUP1 SWAP2 SUB SWAP1 PUSH2 0xB3C PUSH2 0x1190 JUMP JUMPDEST POP POP JUMPDEST DUP1 PUSH1 0x0 PUSH1 0x2 DUP2 LT PUSH2 0xB4C JUMPI INVALID JUMPDEST PUSH1 0x20 MUL ADD MLOAD DUP2 PUSH1 0x1 PUSH1 0x2 DUP2 LT PUSH2 0xB5E JUMPI INVALID JUMPDEST PUSH1 0x20 MUL ADD MLOAD SWAP4 POP SWAP4 POP POP POP SWAP2 POP SWAP2 JUMP JUMPDEST PUSH1 0x0 PUSH2 0xB78 PUSH2 0x1320 JUMP JUMPDEST PUSH1 0x0 DUP1 PUSH1 0x6 DUP6 MLOAD DUP2 PUSH2 0xB86 JUMPI INVALID JUMPDEST MOD EQ PUSH2 0xC03 JUMPI PUSH1 0x40 MLOAD PUSH32 0x8C379A000000000000000000000000000000000000000000000000000000000 DUP2 MSTORE PUSH1 0x4 ADD DUP1 DUP1 PUSH1 0x20 ADD DUP3 DUP2 SUB DUP3 MSTORE PUSH1 0x16 DUP2 MSTORE PUSH1 0x20 ADD DUP1 PUSH32 0x496E636F727265637420696E707574206C656E67746800000000000000000000 DUP2 MSTORE POP PUSH1 0x20 ADD SWAP2 POP POP PUSH1 0x40 MLOAD DUP1 SWAP2 SUB SWAP1 PUSH2 0xC00 PUSH2 0x1190 JUMP JUMPDEST POP POP JUMPDEST PUSH1 0x0 PUSH1 0x20 DUP6 MLOAD MUL SWAP1 POP PUSH1 0x20 DUP4 DUP3 PUSH1 0x20 DUP9 ADD PUSH1 0x0 PUSH1 0x8 PUSH2 0x7D0 GAS SUB PUSH2 0xC25 PUSH2 0x1342 JUMP JUMPDEST POP POP POP POP POP POP SWAP2 POP DUP2 PUSH2 0xCA9 JUMPI PUSH1 0x40 MLOAD PUSH32 0x8C379A000000000000000000000000000000000000000000000000000000000 DUP2 MSTORE PUSH1 0x4 ADD DUP1 DUP1 PUSH1 0x20 ADD DUP3 DUP2 SUB DUP3 MSTORE PUSH1 0x1D DUP2 MSTORE PUSH1 0x20 ADD DUP1 PUSH32 0x656C6C69707469632063757276652070616972696E67206661696C6564000000 DUP2 MSTORE POP PUSH1 0x20 ADD SWAP2 POP POP PUSH1 0x40 MLOAD DUP1 SWAP2 SUB SWAP1 PUSH2 0xCA6 PUSH2 0x1190 JUMP JUMPDEST POP POP JUMPDEST PUSH1 0x1 DUP4 PUSH1 0x0 PUSH1 0x1 DUP2 LT PUSH2 0xCB8 JUMPI INVALID JUMPDEST PUSH1 0x20 MUL ADD MLOAD EQ SWAP4 POP POP POP POP SWAP2 SWAP1 POP JUMP JUMPDEST PUSH1 0x0 DUP1 PUSH1 0x21 DUP4 MLOAD EQ PUSH2 0xD4B JUMPI PUSH1 0x40 MLOAD PUSH32 0x8C379A000000000000000000000000000000000000000000000000000000000 DUP2 MSTORE PUSH1 0x4 ADD DUP1 DUP1 PUSH1 0x20 ADD DUP3 DUP2 SUB DUP3 MSTORE PUSH1 0x10 DUP2 MSTORE PUSH1 0x20 ADD DUP1 PUSH32 0x696E76616C696420656E636F64696E6700000000000000000000000000000000 DUP2 MSTORE POP PUSH1 0x20 ADD SWAP2 POP POP PUSH1 0x40 MLOAD DUP1 SWAP2 SUB SWAP1 PUSH2 0xD48 PUSH2 0x1190 JUMP JUMPDEST POP POP JUMPDEST PUSH1 0x0 DUP1 PUSH1 0x1 DUP6 ADD MLOAD SWAP2 POP PUSH1 0x21 DUP6 ADD MLOAD SWAP1 POP DUP1 PUSH2 0xD67 DUP4 DUP4 PUSH2 0xE84 JUMP JUMPDEST SWAP4 POP SWAP4 POP POP POP SWAP2 POP SWAP2 JUMP JUMPDEST PUSH1 0x0 DUP1 PUSH1 0x0 PUSH2 0xD7F PUSH2 0x11FE JUMP JUMPDEST PUSH1 0x40 DUP2 PUSH1 0x60 DUP8 PUSH1 0x0 PUSH1 0x7 PUSH1 0x0 NOT PUSH2 0xD94 PUSH2 0x1342 JUMP JUMPDEST POP POP POP POP POP POP SWAP2 POP DUP2 PUSH2 0xDFB JUMPI PUSH1 0x40 MLOAD PUSH32 0x8C379A000000000000000000000000000000000000000000000000000000000 DUP2 MSTORE PUSH1 0x4 ADD DUP1 DUP1 PUSH1 0x20 ADD DUP3 DUP2 SUB DUP3 MSTORE PUSH1 0x24 DUP2 MSTORE PUSH1 0x20 ADD DUP1 PUSH2 0x1465 PUSH1 0x24 SWAP2 CODECOPY PUSH1 0x40 ADD SWAP2 POP POP PUSH1 0x40 MLOAD DUP1 SWAP2 SUB SWAP1 PUSH2 0xDF8 PUSH2 0x1190 JUMP JUMPDEST POP POP JUMPDEST DUP1 PUSH1 0x0 PUSH1 0x2 DUP2 LT PUSH2 0xE08 JUMPI INVALID JUMPDEST PUSH1 0x20 MUL ADD MLOAD DUP2 PUSH1 0x1 PUSH1 0x2 DUP2 LT PUSH2 0xE1A JUMPI INVALID JUMPDEST PUSH1 0x20 MUL ADD MLOAD SWAP4 POP SWAP4 POP POP POP SWAP2 POP SWAP2 JUMP JUMPDEST PUSH1 0x0 PUSH2 0xE7D DUP3 PUSH1 0x0 PUSH1 0x2 DUP2 LT PUSH2 0xE3C JUMPI INVALID JUMPDEST PUSH1 0x20 MUL ADD MLOAD DUP4 PUSH1 0x1 PUSH1 0x2 DUP2 LT PUSH2 0xE4E JUMPI INVALID JUMPDEST PUSH1 0x20 MUL ADD MLOAD PUSH1 0x0 PUSH1 0x3 PUSH32 0x30644E72E131A029B85045B68181585D97816A916871CA8D3C208C16D87CFD47 PUSH2 0xEBD JUMP JUMPDEST SWAP1 POP SWAP2 SWAP1 POP JUMP JUMPDEST PUSH1 0x0 PUSH2 0xEB5 DUP4 DUP4 PUSH1 0x0 PUSH1 0x3 PUSH32 0x30644E72E131A029B85045B68181585D97816A916871CA8D3C208C16D87CFD47 PUSH2 0xF61 JUMP JUMPDEST SWAP1 POP SWAP3 SWAP2 POP POP JUMP JUMPDEST PUSH1 0x0 DUP6 PUSH1 0x0 EQ DUP1 PUSH2 0xECE JUMPI POP DUP2 DUP7 LT ISZERO JUMPDEST DUP1 PUSH2 0xED9 JUMPI POP DUP5 PUSH1 0x0 EQ JUMPDEST DUP1 PUSH2 0xEE4 JUMPI POP DUP2 DUP6 LT ISZERO JUMPDEST ISZERO PUSH2 0xEF2 JUMPI PUSH1 0x0 SWAP1 POP PUSH2 0xF58 JUMP JUMPDEST PUSH1 0x0 DUP3 DUP1 PUSH2 0xEFC JUMPI INVALID JUMPDEST DUP7 DUP8 MULMOD SWAP1 POP PUSH1 0x0 DUP4 DUP1 PUSH2 0xF0B JUMPI INVALID JUMPDEST DUP9 DUP6 DUP1 PUSH2 0xF14 JUMPI INVALID JUMPDEST DUP11 DUP12 MULMOD MULMOD SWAP1 POP PUSH1 0x0 DUP7 EQ PUSH2 0xF3A JUMPI DUP4 DUP1 PUSH2 0xF2A JUMPI INVALID JUMPDEST DUP5 DUP1 PUSH2 0xF32 JUMPI INVALID JUMPDEST DUP8 DUP11 MULMOD DUP3 ADDMOD SWAP1 POP JUMPDEST PUSH1 0x0 DUP6 EQ PUSH2 0xF50 JUMPI DUP4 DUP1 PUSH2 0xF4A JUMPI INVALID JUMPDEST DUP6 DUP3 ADDMOD SWAP1 POP JUMPDEST DUP1 DUP3 EQ SWAP3 POP POP POP JUMPDEST SWAP6 SWAP5 POP POP POP POP POP JUMP JUMPDEST PUSH1 0x0 PUSH1 0x2 DUP7 PUSH1 0xFF AND EQ DUP1 PUSH2 0xF78 JUMPI POP PUSH1 0x3 DUP7 PUSH1 0xFF AND EQ JUMPDEST PUSH2 0xFD6 JUMPI PUSH1 0x40 MLOAD PUSH32 0x8C379A000000000000000000000000000000000000000000000000000000000 DUP2 MSTORE PUSH1 0x4 ADD DUP1 DUP1 PUSH1 0x20 ADD DUP3 DUP2 SUB DUP3 MSTORE PUSH1 0x22 DUP2 MSTORE PUSH1 0x20 ADD DUP1 PUSH2 0x1443 PUSH1 0x22 SWAP2 CODECOPY PUSH1 0x40 ADD SWAP2 POP POP PUSH1 0x40 MLOAD DUP1 SWAP2 SUB SWAP1 PUSH2 0xFD3 PUSH2 0x1190 JUMP JUMPDEST POP POP JUMPDEST PUSH1 0x0 DUP3 DUP1 PUSH2 0xFE0 JUMPI INVALID JUMPDEST DUP4 DUP1 PUSH2 0xFE8 JUMPI INVALID JUMPDEST DUP6 DUP6 DUP1 PUSH2 0xFF1 JUMPI INVALID JUMPDEST DUP9 DUP11 MULMOD ADDMOD DUP5 DUP1 PUSH2 0xFFD JUMPI INVALID JUMPDEST DUP6 DUP1 PUSH2 0x1005 JUMPI INVALID JUMPDEST DUP10 DUP11 MULMOD DUP10 MULMOD ADDMOD SWAP1 POP PUSH2 0x1025 DUP2 PUSH1 0x4 PUSH1 0x1 DUP7 ADD DUP2 PUSH2 0x101E JUMPI INVALID JUMPDEST DIV DUP6 PUSH2 0x1059 JUMP JUMPDEST SWAP1 POP PUSH1 0x0 DUP1 PUSH1 0x2 DUP10 PUSH1 0xFF AND DUP5 ADD DUP2 PUSH2 0x1039 JUMPI INVALID JUMPDEST MOD EQ PUSH2 0x1047 JUMPI DUP2 DUP5 SUB PUSH2 0x1049 JUMP JUMPDEST DUP2 JUMPDEST SWAP1 POP DUP1 SWAP3 POP POP POP SWAP6 SWAP5 POP POP POP POP POP JUMP JUMPDEST PUSH1 0x0 DUP1 DUP3 EQ ISZERO PUSH2 0x10DA JUMPI PUSH1 0x40 MLOAD PUSH32 0x8C379A000000000000000000000000000000000000000000000000000000000 DUP2 MSTORE PUSH1 0x4 ADD DUP1 DUP1 PUSH1 0x20 ADD DUP3 DUP2 SUB DUP3 MSTORE PUSH1 0xF DUP2 MSTORE PUSH1 0x20 ADD DUP1 PUSH32 0x4D6F64756C7573206973207A65726F0000000000000000000000000000000000 DUP2 MSTORE POP PUSH1 0x20 ADD SWAP2 POP POP PUSH1 0x40 MLOAD DUP1 SWAP2 SUB SWAP1 PUSH2 0x10D7 PUSH2 0x1190 JUMP JUMPDEST POP POP JUMPDEST PUSH1 0x0 DUP5 EQ ISZERO PUSH2 0x10EC JUMPI PUSH1 0x0 SWAP1 POP PUSH2 0x1189 JUMP JUMPDEST PUSH1 0x0 DUP4 EQ ISZERO PUSH2 0x10FE JUMPI PUSH1 0x1 SWAP1 POP PUSH2 0x1189 JUMP JUMPDEST PUSH1 0x0 PUSH1 0x1 SWAP1 POP PUSH1 0x0 PUSH32 0x8000000000000000000000000000000000000000000000000000000000000000 SWAP1 POP JUMPDEST PUSH1 0x0 DUP2 GT ISZERO PUSH2 0x1183 JUMPI DUP4 DUP2 DUP7 AND ISZERO ISZERO DUP8 EXP DUP6 DUP5 DUP6 MULMOD MULMOD SWAP2 POP DUP4 PUSH1 0x2 DUP3 DIV DUP7 AND ISZERO ISZERO DUP8 EXP DUP6 DUP5 DUP6 MULMOD MULMOD SWAP2 POP DUP4 PUSH1 0x4 DUP3 DIV DUP7 AND ISZERO ISZERO DUP8 EXP DUP6 DUP5 DUP6 MULMOD MULMOD SWAP2 POP DUP4 PUSH1 0x8 DUP3 DIV DUP7 AND ISZERO ISZERO DUP8 EXP DUP6 DUP5 DUP6 MULMOD MULMOD SWAP2 POP PUSH1 0x10 DUP2 DIV SWAP1 POP PUSH2 0x112A JUMP JUMPDEST DUP2 SWAP3 POP POP POP JUMPDEST SWAP4 SWAP3 POP POP POP JUMP JUMPDEST PUSH4 0x2A2A7ADB MSIZE DUP2 PUSH1 0xE0 SHL DUP2 MSTORE PUSH1 0x4 DUP2 ADD PUSH1 0x20 DUP2 MSTORE DUP6 PUSH1 0x20 DUP3 ADD MSTORE PUSH1 0x0 JUMPDEST DUP7 DUP2 LT ISZERO PUSH2 0x11CB JUMPI DUP1 DUP7 ADD MLOAD DUP2 PUSH1 0x40 DUP5 ADD ADD MSTORE PUSH1 0x20 DUP2 ADD SWAP1 POP PUSH2 0x11AD JUMP JUMPDEST POP PUSH1 0x20 DUP3 DUP8 PUSH1 0x64 ADD DUP5 CALLER PUSH1 0x0 SWAP1 GAS CALL PC PUSH1 0xE ADD JUMPI RETURNDATASIZE PUSH1 0x0 DUP1 RETURNDATACOPY RETURNDATASIZE PUSH1 0x0 REVERT JUMPDEST RETURNDATASIZE PUSH1 0x1 EQ ISZERO PC PUSH1 0xA ADD JUMPI PUSH1 0x1 PUSH1 0x0 RETURN JUMPDEST POP POP POP JUMP JUMPDEST PUSH1 0x40 MLOAD DUP1 PUSH1 0x40 ADD PUSH1 0x40 MSTORE DUP1 PUSH1 0x2 SWAP1 PUSH1 0x20 DUP3 MUL DUP1 CALLDATASIZE DUP4 CALLDATACOPY DUP1 DUP3 ADD SWAP2 POP POP SWAP1 POP POP SWAP1 JUMP JUMPDEST PUSH4 0x8540661F MSIZE DUP2 PUSH1 0xE0 SHL DUP2 MSTORE PUSH2 0x125F JUMP JUMPDEST PUSH1 0x0 DUP2 SWAP1 POP DUP2 DUP4 GT ISZERO PUSH2 0x1242 JUMPI DUP3 SWAP1 POP JUMPDEST SWAP3 SWAP2 POP POP JUMP JUMPDEST PUSH1 0x0 DUP2 SWAP1 POP DUP2 DUP4 LT ISZERO PUSH2 0x1259 JUMPI DUP3 SWAP1 POP JUMPDEST SWAP3 SWAP2 POP POP JUMP JUMPDEST DUP4 PUSH1 0x4 DUP3 ADD MSTORE DUP5 PUSH1 0x24 DUP3 ADD MSTORE PUSH1 0x60 PUSH1 0x44 DUP3 ADD MSTORE DUP7 PUSH1 0x64 DUP3 ADD MSTORE PUSH1 0x84 DUP2 ADD PUSH1 0x0 JUMPDEST DUP9 DUP2 LT ISZERO PUSH2 0x129A JUMPI DUP1 DUP9 ADD MLOAD DUP2 DUP4 ADD MSTORE PUSH1 0x20 DUP2 ADD SWAP1 POP PUSH2 0x127F JUMP JUMPDEST POP PUSH1 0x60 DUP3 DUP10 PUSH1 0xA4 ADD DUP5 CALLER PUSH1 0x0 SWAP1 GAS CALL PC PUSH1 0xE ADD JUMPI RETURNDATASIZE PUSH1 0x0 DUP1 RETURNDATACOPY RETURNDATASIZE PUSH1 0x0 REVERT JUMPDEST RETURNDATASIZE PUSH1 0x1 EQ ISZERO PC PUSH1 0xA ADD JUMPI PUSH1 0x1 PUSH1 0x0 RETURN JUMPDEST DUP2 MLOAD PUSH1 0x40 DUP4 ADD MLOAD RETURNDATASIZE PUSH1 0x0 DUP6 RETURNDATACOPY DUP12 DUP12 DUP3 PUSH1 0x60 DUP8 ADD CALLER POP PUSH1 0x0 PUSH1 0x4 GAS CALL POP MSIZE PUSH2 0x12EF DUP14 RETURNDATASIZE PUSH2 0x1248 JUMP JUMPDEST DUP13 ADD PUSH2 0x12FB DUP2 DUP8 PUSH2 0x1231 JUMP JUMPDEST JUMPDEST DUP3 DUP2 LT ISZERO PUSH2 0x1313 JUMPI PUSH1 0x0 DUP2 MSTORE PUSH1 0x20 DUP2 ADD SWAP1 POP PUSH2 0x12FC JUMP JUMPDEST POP DUP4 SWAP14 POP POP POP POP POP POP POP POP JUMP JUMPDEST PUSH1 0x40 MLOAD DUP1 PUSH1 0x20 ADD PUSH1 0x40 MSTORE DUP1 PUSH1 0x1 SWAP1 PUSH1 0x20 DUP3 MUL DUP1 CALLDATASIZE DUP4 CALLDATACOPY DUP1 DUP3 ADD SWAP2 POP POP SWAP1 POP POP SWAP1 JUMP JUMPDEST PUSH4 0x85979F76 MSIZE DUP2 PUSH1 0xE0 SHL DUP2 MSTORE PUSH2 0x1381 JUMP JUMPDEST PUSH1 0x0 DUP2 SWAP1 POP DUP2 DUP4 GT ISZERO PUSH2 0x1364 JUMPI DUP3 SWAP1 POP JUMPDEST SWAP3 SWAP2 POP POP JUMP JUMPDEST PUSH1 0x0 DUP2 SWAP1 POP DUP2 DUP4 LT ISZERO PUSH2 0x137B JUMPI DUP3 SWAP1 POP JUMPDEST SWAP3 SWAP2 POP POP JUMP JUMPDEST DUP4 PUSH1 0x4 DUP3 ADD MSTORE DUP5 PUSH1 0x24 DUP3 ADD MSTORE PUSH1 0x60 PUSH1 0x44 DUP3 ADD MSTORE DUP8 PUSH1 0x64 DUP3 ADD MSTORE PUSH1 0x84 DUP2 ADD PUSH1 0x0 JUMPDEST DUP10 DUP2 LT ISZERO PUSH2 0x13BC JUMPI DUP1 DUP10 ADD MLOAD DUP2 DUP4 ADD MSTORE PUSH1 0x20 DUP2 ADD SWAP1 POP PUSH2 0x13A1 JUMP JUMPDEST POP PUSH1 0x60 DUP3 DUP11 PUSH1 0xA4 ADD DUP5 CALLER PUSH1 0x0 SWAP1 GAS CALL PC PUSH1 0xE ADD JUMPI RETURNDATASIZE PUSH1 0x0 DUP1 RETURNDATACOPY RETURNDATASIZE PUSH1 0x0 REVERT JUMPDEST RETURNDATASIZE PUSH1 0x1 EQ ISZERO PC PUSH1 0xA ADD JUMPI PUSH1 0x1 PUSH1 0x0 RETURN JUMPDEST DUP2 MLOAD PUSH1 0x40 DUP4 ADD MLOAD RETURNDATASIZE PUSH1 0x0 DUP6 RETURNDATACOPY DUP13 DUP13 DUP3 PUSH1 0x60 DUP8 ADD CALLER POP PUSH1 0x0 PUSH1 0x4 GAS CALL POP MSIZE PUSH2 0x1411 DUP15 RETURNDATASIZE PUSH2 0x136A JUMP JUMPDEST DUP14 ADD PUSH2 0x141D DUP2 DUP8 PUSH2 0x1353 JUMP JUMPDEST JUMPDEST DUP3 DUP2 LT ISZERO PUSH2 0x1435 JUMPI PUSH1 0x0 DUP2 MSTORE PUSH1 0x20 DUP2 ADD SWAP1 POP PUSH2 0x141E JUMP JUMPDEST POP DUP4 SWAP15 POP POP POP POP POP POP POP POP JUMP INVALID 0x49 PUSH15 0x76616C696420636F6D707265737365 PUSH5 0x2045432070 PUSH16 0x696E7420707265666978656C6C697074 PUSH10 0x63206375727665206D75 PUSH13 0x7469706C69636174696F6E2066 PUSH2 0x696C PUSH6 0x640000000000 "
        },
        "gasEstimates": {
          "creation": {
            "codeDepositCost": "1051400",
            "executionCost": "infinite",
            "totalCost": "infinite"
          },
          "external": {
            "_add(uint256[4])": "infinite",
            "_bn256CheckPairing(uint256[12])": "infinite",
            "_bn256CheckPairingBatch(uint256[])": "infinite",
            "_fromCompressed(bytes)": "infinite",
            "_hashToTryAndIncrement(bytes)": "infinite",
            "_isOnCurve(uint256[2])": "infinite",
            "_multiply(uint256[3])": "infinite"
          }
        },
        "methodIdentifiers": {
          "_add(uint256[4])": "b294b468",
          "_bn256CheckPairing(uint256[12])": "9442991c",
          "_bn256CheckPairingBatch(uint256[])": "d9f20b81",
          "_fromCompressed(bytes)": "dc422a4f",
          "_hashToTryAndIncrement(bytes)": "15e37835",
          "_isOnCurve(uint256[2])": "f9ae5ec4",
          "_multiply(uint256[3])": "e54ba7d2"
        }
      },
      "storageLayout": {
        "storage": [],
        "types": null
      },
      "userdoc": {
        "kind": "user",
        "methods": {},
        "version": 1
      }
    }
  }
}