{
  "contracts/BN256G1.sol": {
    "BN256G1": {
      "abi": [
        {
          "inputs": [],
          "name": "GX",
          "outputs": [
            {
              "internalType": "uint256",
              "name": "",
              "type": "uint256"
            }
          ],
          "stateMutability": "view",
          "type": "function"
        },
        {
          "inputs": [],
          "name": "GY",
          "outputs": [
            {
              "internalType": "uint256",
              "name": "",
              "type": "uint256"
            }
          ],
          "stateMutability": "view",
          "type": "function"
        }
      ],
      "devdoc": {
        "author": "Witnet Foundation",
        "details": "Library providing arithmetic operations over G1 in bn256. Provides additional methods like pairing and pairing_batch Heavily influenced by https://github.com/PhilippSchindler/ethdkg Calls to assembly are public and not external because assembly cannot be applied on calldata",
        "kind": "dev",
        "methods": {},
        "title": "BN256G1 Curve Library",
        "version": 1
      },
      "evm": {
        "bytecode": {
          "linkReferences": {},
          "object": "61015d610081600b82828239805160001a60731461001957fe5b5a63996d79a5598160e01b8152602081600483336000905af158600e01573d6000803e3d6000fd5b3d6001141558600a015760016000f35b8051925060005b604081101561007257600081830152602081019050610058565b505050600052607381538281f3fe7300000000000000000000000000000000000000005a63996d79a5598160e01b8152602081600483336000905af158600e01573d6000803e3d6000fd5b3d6001141558600a015760016000f35b8051925060005b604081101561006d57600081830152602081019050610053565b5050501460806040526004361061009b5760003560e01c806303a507be146100a95780637a308a4c146100c7575b6000806100a66100ef565b50505b6100b16100e5565b6040518082815260200191505060405180910390f35b6100cf6100ea565b6040518082815260200191505060405180910390f35b600181565b600281565b632a2a7adb598160e01b8152600481016020815285602082015260005b8681101561012a57808601518160408401015260208101905061010c565b506020828760640184336000905af158600e01573d6000803e3d6000fd5b3d6001141558600a015760016000f35b50505056",
          "opcodes": "PUSH2 0x15D PUSH2 0x81 PUSH1 0xB DUP3 DUP3 DUP3 CODECOPY DUP1 MLOAD PUSH1 0x0 BYTE PUSH1 0x73 EQ PUSH2 0x19 JUMPI INVALID JUMPDEST GAS PUSH4 0x996D79A5 MSIZE DUP2 PUSH1 0xE0 SHL DUP2 MSTORE PUSH1 0x20 DUP2 PUSH1 0x4 DUP4 CALLER PUSH1 0x0 SWAP1 GAS CALL PC PUSH1 0xE ADD JUMPI RETURNDATASIZE PUSH1 0x0 DUP1 RETURNDATACOPY RETURNDATASIZE PUSH1 0x0 REVERT JUMPDEST RETURNDATASIZE PUSH1 0x1 EQ ISZERO PC PUSH1 0xA ADD JUMPI PUSH1 0x1 PUSH1 0x0 RETURN JUMPDEST DUP1 MLOAD SWAP3 POP PUSH1 0x0 JUMPDEST PUSH1 0x40 DUP2 LT ISZERO PUSH2 0x72 JUMPI PUSH1 0x0 DUP2 DUP4 ADD MSTORE PUSH1 0x20 DUP2 ADD SWAP1 POP PUSH2 0x58 JUMP JUMPDEST POP POP POP PUSH1 0x0 MSTORE PUSH1 0x73 DUP2 MSTORE8 DUP3 DUP2 RETURN INVALID PUSH20 0x0 GAS PUSH4 0x996D79A5 MSIZE DUP2 PUSH1 0xE0 SHL DUP2 MSTORE PUSH1 0x20 DUP2 PUSH1 0x4 DUP4 CALLER PUSH1 0x0 SWAP1 GAS CALL PC PUSH1 0xE ADD JUMPI RETURNDATASIZE PUSH1 0x0 DUP1 RETURNDATACOPY RETURNDATASIZE PUSH1 0x0 REVERT JUMPDEST RETURNDATASIZE PUSH1 0x1 EQ ISZERO PC PUSH1 0xA ADD JUMPI PUSH1 0x1 PUSH1 0x0 RETURN JUMPDEST DUP1 MLOAD SWAP3 POP PUSH1 0x0 JUMPDEST PUSH1 0x40 DUP2 LT ISZERO PUSH2 0x6D JUMPI PUSH1 0x0 DUP2 DUP4 ADD MSTORE PUSH1 0x20 DUP2 ADD SWAP1 POP PUSH2 0x53 JUMP JUMPDEST POP POP POP EQ PUSH1 0x80 PUSH1 0x40 MSTORE PUSH1 0x4 CALLDATASIZE LT PUSH2 0x9B JUMPI PUSH1 0x0 CALLDATALOAD PUSH1 0xE0 SHR DUP1 PUSH4 0x3A507BE EQ PUSH2 0xA9 JUMPI DUP1 PUSH4 0x7A308A4C EQ PUSH2 0xC7 JUMPI JUMPDEST PUSH1 0x0 DUP1 PUSH2 0xA6 PUSH2 0xEF JUMP JUMPDEST POP POP JUMPDEST PUSH2 0xB1 PUSH2 0xE5 JUMP JUMPDEST PUSH1 0x40 MLOAD DUP1 DUP3 DUP2 MSTORE PUSH1 0x20 ADD SWAP2 POP POP PUSH1 0x40 MLOAD DUP1 SWAP2 SUB SWAP1 RETURN JUMPDEST PUSH2 0xCF PUSH2 0xEA JUMP JUMPDEST PUSH1 0x40 MLOAD DUP1 DUP3 DUP2 MSTORE PUSH1 0x20 ADD SWAP2 POP POP PUSH1 0x40 MLOAD DUP1 SWAP2 SUB SWAP1 RETURN JUMPDEST PUSH1 0x1 DUP2 JUMP JUMPDEST PUSH1 0x2 DUP2 JUMP JUMPDEST PUSH4 0x2A2A7ADB MSIZE DUP2 PUSH1 0xE0 SHL DUP2 MSTORE PUSH1 0x4 DUP2 ADD PUSH1 0x20 DUP2 MSTORE DUP6 PUSH1 0x20 DUP3 ADD MSTORE PUSH1 0x0 JUMPDEST DUP7 DUP2 LT ISZERO PUSH2 0x12A JUMPI DUP1 DUP7 ADD MLOAD DUP2 PUSH1 0x40 DUP5 ADD ADD MSTORE PUSH1 0x20 DUP2 ADD SWAP1 POP PUSH2 0x10C JUMP JUMPDEST POP PUSH1 0x20 DUP3 DUP8 PUSH1 0x64 ADD DUP5 CALLER PUSH1 0x0 SWAP1 GAS CALL PC PUSH1 0xE ADD JUMPI RETURNDATASIZE PUSH1 0x0 DUP1 RETURNDATACOPY RETURNDATASIZE PUSH1 0x0 REVERT JUMPDEST RETURNDATASIZE PUSH1 0x1 EQ ISZERO PC PUSH1 0xA ADD JUMPI PUSH1 0x1 PUSH1 0x0 RETURN JUMPDEST POP POP POP JUMP "
        },
        "gasEstimates": {
          "creation": {
            "codeDepositCost": "69800",
            "executionCost": "infinite",
            "totalCost": "infinite"
          },
          "external": {
            "GX()": "infinite",
            "GY()": "infinite"
          },
          "internal": {
            "add(uint256[4] memory)": "infinite",
            "bn256CheckPairing(uint256[12] memory)": "infinite",
            "bn256CheckPairingBatch(uint256[] memory)": "infinite",
            "deriveY(uint8,uint256)": "infinite",
            "fromCompressed(bytes memory)": "infinite",
            "hashToTryAndIncrement(bytes memory)": "infinite",
            "isOnCurve(uint256[2] memory)": "infinite",
            "multiply(uint256[3] memory)": "infinite"
          }
        },
        "methodIdentifiers": {
          "GX()": "03a507be",
          "GY()": "7a308a4c"
        }
      },
      "storageLayout": {
        "storage": [],
        "types": null
      },
      "userdoc": {
        "kind": "user",
        "methods": {},
        "version": 1
      }
    }
  }
}