{
  "contracts/BN256G2.sol": {
    "BN256G2": {
      "abi": [
        {
          "inputs": [],
          "name": "G2_NEG_X_IM",
          "outputs": [
            {
              "internalType": "uint256",
              "name": "",
              "type": "uint256"
            }
          ],
          "stateMutability": "view",
          "type": "function"
        },
        {
          "inputs": [],
          "name": "G2_NEG_X_RE",
          "outputs": [
            {
              "internalType": "uint256",
              "name": "",
              "type": "uint256"
            }
          ],
          "stateMutability": "view",
          "type": "function"
        },
        {
          "inputs": [],
          "name": "G2_NEG_Y_IM",
          "outputs": [
            {
              "internalType": "uint256",
              "name": "",
              "type": "uint256"
            }
          ],
          "stateMutability": "view",
          "type": "function"
        },
        {
          "inputs": [],
          "name": "G2_NEG_Y_RE",
          "outputs": [
            {
              "internalType": "uint256",
              "name": "",
              "type": "uint256"
            }
          ],
          "stateMutability": "view",
          "type": "function"
        },
        {
          "inputs": [],
          "name": "getFieldModulus",
          "outputs": [
            {
              "internalType": "uint256",
              "name": "",
              "type": "uint256"
            }
          ],
          "stateMutability": "pure",
          "type": "function"
        }
      ],
      "devdoc": {
        "details": "Adaptation of https://github.com/musalbas/solidity-BN256G2 to 0.6.0",
        "kind": "dev",
        "methods": {
          "getFieldModulus()": {
            "returns": {
              "_0": "The field modulus"
            }
          }
        },
        "title": "Elliptic curve operations on twist points on bn256 (G2)",
        "version": 1
      },
      "evm": {
        "bytecode": {
          "linkReferences": {},
          "object": "610286610081600b82828239805160001a60731461001957fe5b5a63996d79a5598160e01b8152602081600483336000905af158600e01573d6000803e3d6000fd5b3d6001141558600a015760016000f35b8051925060005b604081101561007257600081830152602081019050610058565b505050600052607381538281f3fe7300000000000000000000000000000000000000005a63996d79a5598160e01b8152602081600483336000905af158600e01573d6000803e3d6000fd5b3d6001141558600a015760016000f35b8051925060005b604081101561006d57600081830152602081019050610053565b505050146080604052600436106100bc5760003560e01c806351206752146100ca578063779d890d146100e8578063783bde80146101065780639b0c399a14610124578063ad50f9c114610142575b6000806100c7610218565b50505b6100d2610160565b6040518082815260200191505060405180910390f35b6100f0610184565b6040518082815260200191505060405180910390f35b61010e6101ac565b6040518082815260200191505060405180910390f35b61012c6101d0565b6040518082815260200191505060405180910390f35b61014a6101f4565b6040518082815260200191505060405180910390f35b7f1d9befcd05a5323e6da4d435f3b617cdb3af83285c2df711ef39c01571827f9d81565b60007f30644e72e131a029b85045b68181585d97816a916871ca8d3c208c16d87cfd47905090565b7f198e9393920d483a7260bfb731fb5d25f1aa493335a9e71297e485b7aef312c281565b7f1800deef121f1e76426a00665e5c4479674322d4f75edadd46debd5cd992f6ed81565b7f275dc4a288d1afb3cbb1ac09187524c7db36395df7be3b99e673b13a075a65ec81565b632a2a7adb598160e01b8152600481016020815285602082015260005b86811015610253578086015181604084010152602081019050610235565b506020828760640184336000905af158600e01573d6000803e3d6000fd5b3d6001141558600a015760016000f35b50505056",
          "opcodes": "PUSH2 0x286 PUSH2 0x81 PUSH1 0xB DUP3 DUP3 DUP3 CODECOPY DUP1 MLOAD PUSH1 0x0 BYTE PUSH1 0x73 EQ PUSH2 0x19 JUMPI INVALID JUMPDEST GAS PUSH4 0x996D79A5 MSIZE DUP2 PUSH1 0xE0 SHL DUP2 MSTORE PUSH1 0x20 DUP2 PUSH1 0x4 DUP4 CALLER PUSH1 0x0 SWAP1 GAS CALL PC PUSH1 0xE ADD JUMPI RETURNDATASIZE PUSH1 0x0 DUP1 RETURNDATACOPY RETURNDATASIZE PUSH1 0x0 REVERT JUMPDEST RETURNDATASIZE PUSH1 0x1 EQ ISZERO PC PUSH1 0xA ADD JUMPI PUSH1 0x1 PUSH1 0x0 RETURN JUMPDEST DUP1 MLOAD SWAP3 POP PUSH1 0x0 JUMPDEST PUSH1 0x40 DUP2 LT ISZERO PUSH2 0x72 JUMPI PUSH1 0x0 DUP2 DUP4 ADD MSTORE PUSH1 0x20 DUP2 ADD SWAP1 POP PUSH2 0x58 JUMP JUMPDEST POP POP POP PUSH1 0x0 MSTORE PUSH1 0x73 DUP2 MSTORE8 DUP3 DUP2 RETURN INVALID PUSH20 0x0 GAS PUSH4 0x996D79A5 MSIZE DUP2 PUSH1 0xE0 SHL DUP2 MSTORE PUSH1 0x20 DUP2 PUSH1 0x4 DUP4 CALLER PUSH1 0x0 SWAP1 GAS CALL PC PUSH1 0xE ADD JUMPI RETURNDATASIZE PUSH1 0x0 DUP1 RETURNDATACOPY RETURNDATASIZE PUSH1 0x0 REVERT JUMPDEST RETURNDATASIZE PUSH1 0x1 EQ ISZERO PC PUSH1 0xA ADD JUMPI PUSH1 0x1 PUSH1 0x0 RETURN JUMPDEST DUP1 MLOAD SWAP3 POP PUSH1 0x0 JUMPDEST PUSH1 0x40 DUP2 LT ISZERO PUSH2 0x6D JUMPI PUSH1 0x0 DUP2 DUP4 ADD MSTORE PUSH1 0x20 DUP2 ADD SWAP1 POP PUSH2 0x53 JUMP JUMPDEST POP POP POP EQ PUSH1 0x80 PUSH1 0x40 MSTORE PUSH1 0x4 CALLDATASIZE LT PUSH2 0xBC JUMPI PUSH1 0x0 CALLDATALOAD PUSH1 0xE0 SHR DUP1 PUSH4 0x51206752 EQ PUSH2 0xCA JUMPI DUP1 PUSH4 0x779D890D EQ PUSH2 0xE8 JUMPI DUP1 PUSH4 0x783BDE80 EQ PUSH2 0x106 JUMPI DUP1 PUSH4 0x9B0C399A EQ PUSH2 0x124 JUMPI DUP1 PUSH4 0xAD50F9C1 EQ PUSH2 0x142 JUMPI JUMPDEST PUSH1 0x0 DUP1 PUSH2 0xC7 PUSH2 0x218 JUMP JUMPDEST POP POP JUMPDEST PUSH2 0xD2 PUSH2 0x160 JUMP JUMPDEST PUSH1 0x40 MLOAD DUP1 DUP3 DUP2 MSTORE PUSH1 0x20 ADD SWAP2 POP POP PUSH1 0x40 MLOAD DUP1 SWAP2 SUB SWAP1 RETURN JUMPDEST PUSH2 0xF0 PUSH2 0x184 JUMP JUMPDEST PUSH1 0x40 MLOAD DUP1 DUP3 DUP2 MSTORE PUSH1 0x20 ADD SWAP2 POP POP PUSH1 0x40 MLOAD DUP1 SWAP2 SUB SWAP1 RETURN JUMPDEST PUSH2 0x10E PUSH2 0x1AC JUMP JUMPDEST PUSH1 0x40 MLOAD DUP1 DUP3 DUP2 MSTORE PUSH1 0x20 ADD SWAP2 POP POP PUSH1 0x40 MLOAD DUP1 SWAP2 SUB SWAP1 RETURN JUMPDEST PUSH2 0x12C PUSH2 0x1D0 JUMP JUMPDEST PUSH1 0x40 MLOAD DUP1 DUP3 DUP2 MSTORE PUSH1 0x20 ADD SWAP2 POP POP PUSH1 0x40 MLOAD DUP1 SWAP2 SUB SWAP1 RETURN JUMPDEST PUSH2 0x14A PUSH2 0x1F4 JUMP JUMPDEST PUSH1 0x40 MLOAD DUP1 DUP3 DUP2 MSTORE PUSH1 0x20 ADD SWAP2 POP POP PUSH1 0x40 MLOAD DUP1 SWAP2 SUB SWAP1 RETURN JUMPDEST PUSH32 0x1D9BEFCD05A5323E6DA4D435F3B617CDB3AF83285C2DF711EF39C01571827F9D DUP2 JUMP JUMPDEST PUSH1 0x0 PUSH32 0x30644E72E131A029B85045B68181585D97816A916871CA8D3C208C16D87CFD47 SWAP1 POP SWAP1 JUMP JUMPDEST PUSH32 0x198E9393920D483A7260BFB731FB5D25F1AA493335A9E71297E485B7AEF312C2 DUP2 JUMP JUMPDEST PUSH32 0x1800DEEF121F1E76426A00665E5C4479674322D4F75EDADD46DEBD5CD992F6ED DUP2 JUMP JUMPDEST PUSH32 0x275DC4A288D1AFB3CBB1AC09187524C7DB36395DF7BE3B99E673B13A075A65EC DUP2 JUMP JUMPDEST PUSH4 0x2A2A7ADB MSIZE DUP2 PUSH1 0xE0 SHL DUP2 MSTORE PUSH1 0x4 DUP2 ADD PUSH1 0x20 DUP2 MSTORE DUP6 PUSH1 0x20 DUP3 ADD MSTORE PUSH1 0x0 JUMPDEST DUP7 DUP2 LT ISZERO PUSH2 0x253 JUMPI DUP1 DUP7 ADD MLOAD DUP2 PUSH1 0x40 DUP5 ADD ADD MSTORE PUSH1 0x20 DUP2 ADD SWAP1 POP PUSH2 0x235 JUMP JUMPDEST POP PUSH1 0x20 DUP3 DUP8 PUSH1 0x64 ADD DUP5 CALLER PUSH1 0x0 SWAP1 GAS CALL PC PUSH1 0xE ADD JUMPI RETURNDATASIZE PUSH1 0x0 DUP1 RETURNDATACOPY RETURNDATASIZE PUSH1 0x0 REVERT JUMPDEST RETURNDATASIZE PUSH1 0x1 EQ ISZERO PC PUSH1 0xA ADD JUMPI PUSH1 0x1 PUSH1 0x0 RETURN JUMPDEST POP POP POP JUMP "
        },
        "gasEstimates": {
          "creation": {
            "codeDepositCost": "129200",
            "executionCost": "infinite",
            "totalCost": "infinite"
          },
          "external": {
            "G2_NEG_X_IM()": "infinite",
            "G2_NEG_X_RE()": "infinite",
            "G2_NEG_Y_IM()": "infinite",
            "G2_NEG_Y_RE()": "infinite",
            "getFieldModulus()": "infinite"
          },
          "internal": {
            "_ecTwistDoubleJacobian(uint256,uint256,uint256,uint256,uint256,uint256)": "infinite",
            "_ecTwistMulJacobian(uint256,uint256,uint256,uint256,uint256,uint256,uint256)": "infinite",
            "_fq2add(uint256,uint256,uint256,uint256)": "infinite",
            "_fq2div(uint256,uint256,uint256,uint256)": "infinite",
            "_fq2inv(uint256,uint256)": "infinite",
            "_fq2muc(uint256,uint256,uint256)": "infinite",
            "_fq2mul(uint256,uint256,uint256,uint256)": "infinite",
            "_fq2sub(uint256,uint256,uint256,uint256)": "infinite",
            "_fromJacobian(uint256,uint256,uint256,uint256,uint256,uint256)": "infinite",
            "_isOnCurve(uint256,uint256,uint256,uint256)": "infinite",
            "_modInv(uint256,uint256)": "infinite",
            "ecTwistAdd(uint256,uint256,uint256,uint256,uint256,uint256,uint256,uint256)": "infinite",
            "ecTwistAddJacobian(uint256,uint256,uint256,uint256,uint256,uint256,uint256,uint256,uint256,uint256,uint256,uint256)": "infinite",
            "ecTwistMul(uint256,uint256,uint256,uint256,uint256)": "infinite",
            "submod(uint256,uint256,uint256)": "infinite"
          }
        },
        "methodIdentifiers": {
          "G2_NEG_X_IM()": "9b0c399a",
          "G2_NEG_X_RE()": "783bde80",
          "G2_NEG_Y_IM()": "51206752",
          "G2_NEG_Y_RE()": "ad50f9c1",
          "getFieldModulus()": "779d890d"
        }
      },
      "storageLayout": {
        "storage": [],
        "types": null
      },
      "userdoc": {
        "kind": "user",
        "methods": {
          "getFieldModulus()": {
            "notice": "Get the field modulus"
          }
        },
        "version": 1
      }
    }
  }
}