{
  "test/BN256G2Helper.sol": {
    "BN256G2Helper": {
      "abi": [
        {
          "inputs": [
            {
              "internalType": "uint256[8]",
              "name": "input",
              "type": "uint256[8]"
            }
          ],
          "name": "_ecTwistAdd",
          "outputs": [
            {
              "internalType": "uint256[4]",
              "name": "result",
              "type": "uint256[4]"
            }
          ],
          "stateMutability": "view",
          "type": "function"
        },
        {
          "inputs": [
            {
              "internalType": "uint256[5]",
              "name": "input",
              "type": "uint256[5]"
            }
          ],
          "name": "_ecTwistMul",
          "outputs": [
            {
              "internalType": "uint256[4]",
              "name": "result",
              "type": "uint256[4]"
            }
          ],
          "stateMutability": "view",
          "type": "function"
        }
      ],
      "devdoc": {
        "author": "Witnet Foundation",
        "details": "The aim of this contract is twofold: 1. Raise the visibility modifier of contract functions for testing purposes 2. Removal of the `pure` modifier to allow gas consumption analysis",
        "kind": "dev",
        "methods": {},
        "title": "Test Helper for the BN256G2 contract",
        "version": 1
      },
      "evm": {
        "bytecode": {
          "linkReferences": {},
          "object": "60806040523480156100195760008061001661001f565b50505b5061008d565b632a2a7adb598160e01b8152600481016020815285602082015260005b8681101561005a57808601518160408401015260208101905061003c565b506020828760640184336000905af158600e01573d6000803e3d6000fd5b3d6001141558600a015760016000f35b505050565b611d658061009c6000396000f3fe608060405234801561001957600080610016611b8d565b50505b506004361061003f5760003560e01c8063aab6f13c1461004d578063cc2e4d31146100f9575b60008061004a611b8d565b50505b6100bb600480360361010081101561006d5760008061006a611b8d565b50505b810190808061010001906008806020026040519081016040528092919082600860200280828437600081840152601f19601f82011690508083019250505050505091929192905050506101a3565b6040518082600460200280838360005b838110156100e65780820151818401526020810190506100cb565b5050505090500191505060405180910390f35b610165600480360360a081101561011857600080610115611b8d565b50505b810190808060a001906005806020026040519081016040528092919082600560200280828437600081840152601f19601f82011690508083019250505050505091929192905050506102a0565b6040518082600460200280838360005b83811015610190578082015181840152602081019050610175565b5050505090500191505060405180910390f35b6101ab611bfb565b610243826000600881106101bb57fe5b6020020151836001600881106101cd57fe5b6020020151846002600881106101df57fe5b6020020151856003600881106101f157fe5b60200201518660046008811061020357fe5b60200201518760056008811061021557fe5b60200201518860066008811061022757fe5b60200201518960076008811061023957fe5b6020020151610367565b8460006004811061025057fe5b602002018560016004811061026157fe5b602002018660026004811061027257fe5b602002018760036004811061028357fe5b602002018481525084815250848152508481525050505050919050565b6102a8611bfb565b61030a826000600581106102b857fe5b6020020151836001600581106102ca57fe5b6020020151846002600581106102dc57fe5b6020020151856003600581106102ee57fe5b60200201518660046005811061030057fe5b60200201516106db565b8460006004811061031757fe5b602002018560016004811061032857fe5b602002018660026004811061033957fe5b602002018760036004811061034a57fe5b602002018481525084815250848152508481525050505050919050565b60008060008060008c14801561037d575060008b145b8015610389575060008a145b80156103955750600089145b1561045f576000881480156103aa5750600087145b80156103b65750600086145b80156103c25750600085145b61044e576103d28888888861084b565b61044d576040517f08c379a00000000000000000000000000000000000000000000000000000000081526004018080602001828103825260128152602001807f706f696e74206e6f7420696e20637572766500000000000000000000000000008152506020019150506040518091039061044a611b8d565b50505b5b8787878793509350935093506106cc565b60008814801561046f5750600087145b801561047b5750600086145b80156104875750600085145b15610524576104988c8c8c8c61084b565b610513576040517f08c379a00000000000000000000000000000000000000000000000000000000081526004018080602001828103825260128152602001807f706f696e74206e6f7420696e206375727665000000000000000000000000000081525060200191505060405180910390610510611b8d565b50505b8b8b8b8b93509350935093506106cc565b6105308c8c8c8c61084b565b6105ab576040517f08c379a00000000000000000000000000000000000000000000000000000000081526004018080602001828103825260128152602001807f706f696e74206e6f7420696e2063757276650000000000000000000000000000815250602001915050604051809103906105a8611b8d565b50505b6105b78888888861084b565b610632576040517f08c379a00000000000000000000000000000000000000000000000000000000081526004018080602001828103825260128152602001807f706f696e74206e6f7420696e20637572766500000000000000000000000000008152506020019150506040518091039061062f611b8d565b50505b600061064c8d8d8d8d600160008f8f8f8f60016000610914565b90506106c28160006006811061065e57fe5b60200201518260016006811061067057fe5b60200201518360026006811061068257fe5b60200201518460036006811061069457fe5b6020020151856004600681106106a657fe5b6020020151866005600681106106b857fe5b6020020151610eea565b9450945094509450505b98509850985098945050505050565b6000806000806000600190506000891480156106f75750600088145b80156107035750600087145b801561070f5750600086145b15610725576001985060019650600090506107ad565b6107318989898961084b565b6107ac576040517f08c379a00000000000000000000000000000000000000000000000000000000081526004018080602001828103825260128152602001807f706f696e74206e6f7420696e2063757276650000000000000000000000000000815250602001915050604051809103906107a9611b8d565b50505b5b60006107bf8b8b8b8b8b876000610fdd565b9050610835816000600681106107d157fe5b6020020151826001600681106107e357fe5b6020020151836002600681106107f557fe5b60200201518460036006811061080757fe5b60200201518560046006811061081957fe5b60200201518660056006811061082b57fe5b6020020151610eea565b9550955095509550505095509550955095915050565b600080600080600061085f878789896110c5565b809450819550505061087389898b8b6110c5565b809250819350505061088782828b8b6110c5565b809250819350505061089b848484846111d3565b80945081955050506108ee84847f2b149d40ceb8aaae81be18991be06ac3b5b4c5e559dbefa33267e6dc24a138e57e9713b03af0fed4cd2cafadeed8fdf4a74fa084e52d1852e4a2bd0685c315d26111d3565b80945081955050506000841480156109065750600083145b945050505050949350505050565b61091c611c1d565b60008914801561092c5750600088145b156109c0578686868686868660006006811061094457fe5b602002018760016006811061095557fe5b602002018860026006811061096657fe5b602002018960036006811061097757fe5b602002018a60046006811061098857fe5b602002018b60056006811061099957fe5b60200201868152508681525086815250868152508681525086815250505050505050610eda565b6000831480156109d05750600082145b15610a64578c8c8c8c8c8c866000600681106109e857fe5b60200201876001600681106109f957fe5b6020020188600260068110610a0a57fe5b6020020189600360068110610a1b57fe5b602002018a600460068110610a2c57fe5b602002018b600560068110610a3d57fe5b60200201868152508681525086815250868152508681525086815250505050505050610eda565b610a7085858b8b6110c5565b8095508196505050610a848b8b85856110c5565b82600260068110610a9157fe5b6020020183600360068110610aa257fe5b6020020182815250828152505050610abc87878b8b6110c5565b8097508198505050610ad08d8d85856110c5565b82600460068110610add57fe5b6020020183600560068110610aee57fe5b602002018281525082815250505080600460068110610b0957fe5b602002015187148015610b2c575080600560068110610b2457fe5b602002015186145b15610c915780600260068110610b3e57fe5b602002015185148015610b61575080600360068110610b5957fe5b602002015184145b15610bfd57610b748d8d8d8d8d8d611239565b86600060068110610b8157fe5b6020020187600160068110610b9257fe5b6020020188600260068110610ba357fe5b6020020189600360068110610bb457fe5b602002018a600460068110610bc557fe5b602002018b600560068110610bd657fe5b60200201868152508681525086815250868152508681525086815250505050505050610eda565b600160006001600080600086600060068110610c1557fe5b6020020187600160068110610c2657fe5b6020020188600260068110610c3757fe5b6020020189600360068110610c4857fe5b602002018a600460068110610c5957fe5b602002018b600560068110610c6a57fe5b60200201868152508681525086815250868152508681525086815250505050505050610eda565b610c9d898985856110c5565b8093508194505050610cd3858583600260068110610cb757fe5b602002015184600360068110610cc957fe5b60200201516111d3565b809d50819e505050610d09878783600460068110610ced57fe5b602002015184600560068110610cff57fe5b60200201516111d3565b809b50819c505050610d1d8b8b8d8d6110c5565b809950819a505050610d53898983600460068110610d3757fe5b602002015184600560068110610d4957fe5b60200201516110c5565b8095508196505050610d6789898d8d6110c5565b809950819a505050610d7b898985856110c5565b82600460068110610d8857fe5b6020020183600560068110610d9957fe5b6020020182815250828152505050610db38d8d8f8f6110c5565b8097508198505050610dc7878785856110c5565b8097508198505050610ddb87878b8b6111d3565b8097508198505050610def8585600261192a565b8093508194505050610e03878785856111d3565b8097508198505050610e178b8b89896110c5565b82600060068110610e2457fe5b6020020183600160068110610e3557fe5b6020020182815250828152505050610e4f858589896111d3565b809b50819c505050610e638d8d8d8d6110c5565b809b50819c505050610e99898983600260068110610e7d57fe5b602002015184600360068110610e8f57fe5b60200201516110c5565b809d50819e505050610ead8b8b8f8f6111d3565b82600260068110610eba57fe5b6020020183600360068110610ecb57fe5b60200201828152508281525050505b9c9b505050505050505050505050565b600080600080600080610efb611bfb565b610f05898961198f565b8093508194505050610f198d8d85856110c5565b82600060048110610f2657fe5b6020020183600160048110610f3757fe5b6020020182815250828152505050610f518b8b85856110c5565b82600260048110610f5e57fe5b6020020183600360048110610f6f57fe5b602002018281525082815250505080600060048110610f8a57fe5b602002015181600160048110610f9c57fe5b602002015182600260048110610fae57fe5b602002015183600360048110610fc057fe5b602002015196509650965096505050509650965096509692505050565b610fe5611c1d565b610fed611c1d565b5b600089146110b657600060018a161461107e5761107b8160006006811061101157fe5b60200201518260016006811061102357fe5b60200201518360026006811061103557fe5b60200201518460036006811061104757fe5b60200201518560046006811061105957fe5b60200201518660056006811061106b57fe5b60200201518e8e8e8e8e8e610914565b90505b61108c888888888888611239565b809850819950829a50839b50849c50859d50505050505050600289816110ae57fe5b049850610fee565b80915050979650505050505050565b6000806111477f30644e72e131a029b85045b68181585d97816a916871ca8d3c208c16d87cfd47806110f357fe5b8588097f30644e72e131a029b85045b68181585d97816a916871ca8d3c208c16d87cfd478061111e57fe5b8588097f30644e72e131a029b85045b68181585d97816a916871ca8d3c208c16d87cfd47611ac2565b7f30644e72e131a029b85045b68181585d97816a916871ca8d3c208c16d87cfd478061116f57fe5b7f30644e72e131a029b85045b68181585d97816a916871ca8d3c208c16d87cfd478061119757fe5b8688097f30644e72e131a029b85045b68181585d97816a916871ca8d3c208c16d87cfd47806111c257fe5b868a09089150915094509492505050565b60008061120186857f30644e72e131a029b85045b68181585d97816a916871ca8d3c208c16d87cfd47611ac2565b61122c86857f30644e72e131a029b85045b68181585d97816a916871ca8d3c208c16d87cfd47611ac2565b9150915094509492505050565b60008060008060008061124a611c1d565b6112568d8d600361192a565b8260006006811061126357fe5b602002018360016006811061127457fe5b60200201828152508281525050506112b08160006006811061129257fe5b6020020151826001600681106112a457fe5b60200201518f8f6110c5565b826000600681106112bd57fe5b60200201836001600681106112ce57fe5b60200201828152508281525050506112e88b8b8b8b6110c5565b809950819a5050506112fc8d8d8d8d6110c5565b8260026006811061130957fe5b602002018360036006811061131a57fe5b60200201828152508281525050506113568160026006811061133857fe5b60200201518260036006811061134a57fe5b60200201518b8b6110c5565b8260026006811061136357fe5b602002018360036006811061137457fe5b60200201828152508281525050506113d28160006006811061139257fe5b6020020151826001600681106113a457fe5b6020020151836000600681106113b657fe5b6020020151846001600681106113c857fe5b60200201516110c5565b809d50819e505050611408816002600681106113ea57fe5b6020020151826003600681106113fc57fe5b6020020151600861192a565b8260046006811061141557fe5b602002018360056006811061142657fe5b60200201828152508281525050506114628d8d8360046006811061144657fe5b60200201518460056006811061145857fe5b60200201516111d3565b809d50819e50505061147689898b8b6110c5565b8260046006811061148357fe5b602002018360056006811061149457fe5b60200201828152508281525050506114d0816002600681106114b257fe5b6020020151826003600681106114c457fe5b6020020151600461192a565b826002600681106114dd57fe5b60200201836003600681106114ee57fe5b602002018281525082815250505061152a8160026006811061150c57fe5b60200201518260036006811061151e57fe5b60200201518f8f6111d3565b8260026006811061153757fe5b602002018360036006811061154857fe5b60200201828152508281525050506115a68160026006811061156657fe5b60200201518260036006811061157857fe5b60200201518360006006811061158a57fe5b60200201518460016006811061159c57fe5b60200201516110c5565b826002600681106115b357fe5b60200201836003600681106115c457fe5b60200201828152508281525050506115de8b8b600861192a565b826000600681106115eb57fe5b60200201836001600681106115fc57fe5b60200201828152508281525050506116388160006006811061161a57fe5b60200201518260016006811061162c57fe5b60200201518d8d6110c5565b8260006006811061164557fe5b602002018360016006811061165657fe5b60200201828152508281525050506116b48160006006811061167457fe5b60200201518260016006811061168657fe5b60200201518360046006811061169857fe5b6020020151846005600681106116aa57fe5b60200201516110c5565b826000600681106116c157fe5b60200201836001600681106116d257fe5b6020020182815250828152505050611730816002600681106116f057fe5b60200201518260036006811061170257fe5b60200201518360006006811061171457fe5b60200201518460016006811061172657fe5b60200201516111d3565b8260026006811061173d57fe5b602002018360036006811061174e57fe5b60200201828152508281525050506117688d8d600261192a565b8260006006811061177557fe5b602002018360016006811061178657fe5b60200201828152508281525050506117c2816000600681106117a457fe5b6020020151826001600681106117b657fe5b60200201518b8b6110c5565b826000600681106117cf57fe5b60200201836001600681106117e057fe5b602002018281525082815250505061181c89898360046006811061180057fe5b60200201518460056006811061181257fe5b60200201516110c5565b8260046006811061182957fe5b602002018360056006811061183a57fe5b60200201828152508281525050506118768160046006811061185857fe5b60200201518260056006811061186a57fe5b6020020151600861192a565b8260046006811061188357fe5b602002018360056006811061189457fe5b6020020182815250828152505050806000600681106118af57fe5b6020020151816001600681106118c157fe5b6020020151826002600681106118d357fe5b6020020151836003600681106118e557fe5b6020020151846004600681106118f757fe5b60200201518560056006811061190957fe5b60200201519650965096509650965096505096509650965096509650969050565b6000807f30644e72e131a029b85045b68181585d97816a916871ca8d3c208c16d87cfd478061195557fe5b8386097f30644e72e131a029b85045b68181585d97816a916871ca8d3c208c16d87cfd478061198057fe5b84860991509150935093915050565b6000806000611a3c7f30644e72e131a029b85045b68181585d97816a916871ca8d3c208c16d87cfd47806119bf57fe5b7f30644e72e131a029b85045b68181585d97816a916871ca8d3c208c16d87cfd47806119e757fe5b8788097f30644e72e131a029b85045b68181585d97816a916871ca8d3c208c16d87cfd4780611a1257fe5b878809087f30644e72e131a029b85045b68181585d97816a916871ca8d3c208c16d87cfd47611ada565b90507f30644e72e131a029b85045b68181585d97816a916871ca8d3c208c16d87cfd4780611a6657fe5b8186097f30644e72e131a029b85045b68181585d97816a916871ca8d3c208c16d87cfd4780611a9157fe5b8286097f30644e72e131a029b85045b68181585d97816a916871ca8d3c208c16d87cfd470392509250509250929050565b60008180611acc57fe5b838303850890509392505050565b60008060405160208152602080820152602060408201528460608201526002840360808201528360a082015260208160c08360056107d05a03611b1b611c3f565b50505050509150805192505080611b86576040517f08c379a0000000000000000000000000000000000000000000000000000000008152600401808060200182810382526025815260200180611d406025913960400191505060405180910390611b83611b8d565b50505b5092915050565b632a2a7adb598160e01b8152600481016020815285602082015260005b86811015611bc8578086015181604084010152602081019050611baa565b506020828760640184336000905af158600e01573d6000803e3d6000fd5b3d6001141558600a015760016000f35b505050565b6040518060800160405280600490602082028036833780820191505090505090565b6040518060c00160405280600690602082028036833780820191505090505090565b638540661f598160e01b8152611c7e565b600081905081831115611c61578290505b92915050565b600081905081831015611c78578290505b92915050565b836004820152846024820152606060448201528660648201526084810160005b88811015611cb9578088015181830152602081019050611c9e565b506060828960a40184336000905af158600e01573d6000803e3d6000fd5b3d6001141558600a015760016000f35b815160408301513d6000853e8b8b82606087013350600060045af15059611d0e8d3d611c67565b8c01611d1a8187611c50565b5b82811015611d325760008152602081019050611d1b565b50839d505050505050505056fe6572726f722063616c63756c6174696e6720746865206d6f64756c617220696e7665727365",
          "opcodes": "PUSH1 0x80 PUSH1 0x40 MSTORE CALLVALUE DUP1 ISZERO PUSH2 0x19 JUMPI PUSH1 0x0 DUP1 PUSH2 0x16 PUSH2 0x1F JUMP JUMPDEST POP POP JUMPDEST POP PUSH2 0x8D JUMP JUMPDEST PUSH4 0x2A2A7ADB MSIZE DUP2 PUSH1 0xE0 SHL DUP2 MSTORE PUSH1 0x4 DUP2 ADD PUSH1 0x20 DUP2 MSTORE DUP6 PUSH1 0x20 DUP3 ADD MSTORE PUSH1 0x0 JUMPDEST DUP7 DUP2 LT ISZERO PUSH2 0x5A JUMPI DUP1 DUP7 ADD MLOAD DUP2 PUSH1 0x40 DUP5 ADD ADD MSTORE PUSH1 0x20 DUP2 ADD SWAP1 POP PUSH2 0x3C JUMP JUMPDEST POP PUSH1 0x20 DUP3 DUP8 PUSH1 0x64 ADD DUP5 CALLER PUSH1 0x0 SWAP1 GAS CALL PC PUSH1 0xE ADD JUMPI RETURNDATASIZE PUSH1 0x0 DUP1 RETURNDATACOPY RETURNDATASIZE PUSH1 0x0 REVERT JUMPDEST RETURNDATASIZE PUSH1 0x1 EQ ISZERO PC PUSH1 0xA ADD JUMPI PUSH1 0x1 PUSH1 0x0 RETURN JUMPDEST POP POP POP JUMP JUMPDEST PUSH2 0x1D65 DUP1 PUSH2 0x9C PUSH1 0x0 CODECOPY PUSH1 0x0 RETURN INVALID PUSH1 0x80 PUSH1 0x40 MSTORE CALLVALUE DUP1 ISZERO PUSH2 0x19 JUMPI PUSH1 0x0 DUP1 PUSH2 0x16 PUSH2 0x1B8D JUMP JUMPDEST POP POP JUMPDEST POP PUSH1 0x4 CALLDATASIZE LT PUSH2 0x3F JUMPI PUSH1 0x0 CALLDATALOAD PUSH1 0xE0 SHR DUP1 PUSH4 0xAAB6F13C EQ PUSH2 0x4D JUMPI DUP1 PUSH4 0xCC2E4D31 EQ PUSH2 0xF9 JUMPI JUMPDEST PUSH1 0x0 DUP1 PUSH2 0x4A PUSH2 0x1B8D JUMP JUMPDEST POP POP JUMPDEST PUSH2 0xBB PUSH1 0x4 DUP1 CALLDATASIZE SUB PUSH2 0x100 DUP2 LT ISZERO PUSH2 0x6D JUMPI PUSH1 0x0 DUP1 PUSH2 0x6A PUSH2 0x1B8D JUMP JUMPDEST POP POP JUMPDEST DUP2 ADD SWAP1 DUP1 DUP1 PUSH2 0x100 ADD SWAP1 PUSH1 0x8 DUP1 PUSH1 0x20 MUL PUSH1 0x40 MLOAD SWAP1 DUP2 ADD PUSH1 0x40 MSTORE DUP1 SWAP3 SWAP2 SWAP1 DUP3 PUSH1 0x8 PUSH1 0x20 MUL DUP1 DUP3 DUP5 CALLDATACOPY PUSH1 0x0 DUP2 DUP5 ADD MSTORE PUSH1 0x1F NOT PUSH1 0x1F DUP3 ADD AND SWAP1 POP DUP1 DUP4 ADD SWAP3 POP POP POP POP POP POP SWAP2 SWAP3 SWAP2 SWAP3 SWAP1 POP POP POP PUSH2 0x1A3 JUMP JUMPDEST PUSH1 0x40 MLOAD DUP1 DUP3 PUSH1 0x4 PUSH1 0x20 MUL DUP1 DUP4 DUP4 PUSH1 0x0 JUMPDEST DUP4 DUP2 LT ISZERO PUSH2 0xE6 JUMPI DUP1 DUP3 ADD MLOAD DUP2 DUP5 ADD MSTORE PUSH1 0x20 DUP2 ADD SWAP1 POP PUSH2 0xCB JUMP JUMPDEST POP POP POP POP SWAP1 POP ADD SWAP2 POP POP PUSH1 0x40 MLOAD DUP1 SWAP2 SUB SWAP1 RETURN JUMPDEST PUSH2 0x165 PUSH1 0x4 DUP1 CALLDATASIZE SUB PUSH1 0xA0 DUP2 LT ISZERO PUSH2 0x118 JUMPI PUSH1 0x0 DUP1 PUSH2 0x115 PUSH2 0x1B8D JUMP JUMPDEST POP POP JUMPDEST DUP2 ADD SWAP1 DUP1 DUP1 PUSH1 0xA0 ADD SWAP1 PUSH1 0x5 DUP1 PUSH1 0x20 MUL PUSH1 0x40 MLOAD SWAP1 DUP2 ADD PUSH1 0x40 MSTORE DUP1 SWAP3 SWAP2 SWAP1 DUP3 PUSH1 0x5 PUSH1 0x20 MUL DUP1 DUP3 DUP5 CALLDATACOPY PUSH1 0x0 DUP2 DUP5 ADD MSTORE PUSH1 0x1F NOT PUSH1 0x1F DUP3 ADD AND SWAP1 POP DUP1 DUP4 ADD SWAP3 POP POP POP POP POP POP SWAP2 SWAP3 SWAP2 SWAP3 SWAP1 POP POP POP PUSH2 0x2A0 JUMP JUMPDEST PUSH1 0x40 MLOAD DUP1 DUP3 PUSH1 0x4 PUSH1 0x20 MUL DUP1 DUP4 DUP4 PUSH1 0x0 JUMPDEST DUP4 DUP2 LT ISZERO PUSH2 0x190 JUMPI DUP1 DUP3 ADD MLOAD DUP2 DUP5 ADD MSTORE PUSH1 0x20 DUP2 ADD SWAP1 POP PUSH2 0x175 JUMP JUMPDEST POP POP POP POP SWAP1 POP ADD SWAP2 POP POP PUSH1 0x40 MLOAD DUP1 SWAP2 SUB SWAP1 RETURN JUMPDEST PUSH2 0x1AB PUSH2 0x1BFB JUMP JUMPDEST PUSH2 0x243 DUP3 PUSH1 0x0 PUSH1 0x8 DUP2 LT PUSH2 0x1BB JUMPI INVALID JUMPDEST PUSH1 0x20 MUL ADD MLOAD DUP4 PUSH1 0x1 PUSH1 0x8 DUP2 LT PUSH2 0x1CD JUMPI INVALID JUMPDEST PUSH1 0x20 MUL ADD MLOAD DUP5 PUSH1 0x2 PUSH1 0x8 DUP2 LT PUSH2 0x1DF JUMPI INVALID JUMPDEST PUSH1 0x20 MUL ADD MLOAD DUP6 PUSH1 0x3 PUSH1 0x8 DUP2 LT PUSH2 0x1F1 JUMPI INVALID JUMPDEST PUSH1 0x20 MUL ADD MLOAD DUP7 PUSH1 0x4 PUSH1 0x8 DUP2 LT PUSH2 0x203 JUMPI INVALID JUMPDEST PUSH1 0x20 MUL ADD MLOAD DUP8 PUSH1 0x5 PUSH1 0x8 DUP2 LT PUSH2 0x215 JUMPI INVALID JUMPDEST PUSH1 0x20 MUL ADD MLOAD DUP9 PUSH1 0x6 PUSH1 0x8 DUP2 LT PUSH2 0x227 JUMPI INVALID JUMPDEST PUSH1 0x20 MUL ADD MLOAD DUP10 PUSH1 0x7 PUSH1 0x8 DUP2 LT PUSH2 0x239 JUMPI INVALID JUMPDEST PUSH1 0x20 MUL ADD MLOAD PUSH2 0x367 JUMP JUMPDEST DUP5 PUSH1 0x0 PUSH1 0x4 DUP2 LT PUSH2 0x250 JUMPI INVALID JUMPDEST PUSH1 0x20 MUL ADD DUP6 PUSH1 0x1 PUSH1 0x4 DUP2 LT PUSH2 0x261 JUMPI INVALID JUMPDEST PUSH1 0x20 MUL ADD DUP7 PUSH1 0x2 PUSH1 0x4 DUP2 LT PUSH2 0x272 JUMPI INVALID JUMPDEST PUSH1 0x20 MUL ADD DUP8 PUSH1 0x3 PUSH1 0x4 DUP2 LT PUSH2 0x283 JUMPI INVALID JUMPDEST PUSH1 0x20 MUL ADD DUP5 DUP2 MSTORE POP DUP5 DUP2 MSTORE POP DUP5 DUP2 MSTORE POP DUP5 DUP2 MSTORE POP POP POP POP POP SWAP2 SWAP1 POP JUMP JUMPDEST PUSH2 0x2A8 PUSH2 0x1BFB JUMP JUMPDEST PUSH2 0x30A DUP3 PUSH1 0x0 PUSH1 0x5 DUP2 LT PUSH2 0x2B8 JUMPI INVALID JUMPDEST PUSH1 0x20 MUL ADD MLOAD DUP4 PUSH1 0x1 PUSH1 0x5 DUP2 LT PUSH2 0x2CA JUMPI INVALID JUMPDEST PUSH1 0x20 MUL ADD MLOAD DUP5 PUSH1 0x2 PUSH1 0x5 DUP2 LT PUSH2 0x2DC JUMPI INVALID JUMPDEST PUSH1 0x20 MUL ADD MLOAD DUP6 PUSH1 0x3 PUSH1 0x5 DUP2 LT PUSH2 0x2EE JUMPI INVALID JUMPDEST PUSH1 0x20 MUL ADD MLOAD DUP7 PUSH1 0x4 PUSH1 0x5 DUP2 LT PUSH2 0x300 JUMPI INVALID JUMPDEST PUSH1 0x20 MUL ADD MLOAD PUSH2 0x6DB JUMP JUMPDEST DUP5 PUSH1 0x0 PUSH1 0x4 DUP2 LT PUSH2 0x317 JUMPI INVALID JUMPDEST PUSH1 0x20 MUL ADD DUP6 PUSH1 0x1 PUSH1 0x4 DUP2 LT PUSH2 0x328 JUMPI INVALID JUMPDEST PUSH1 0x20 MUL ADD DUP7 PUSH1 0x2 PUSH1 0x4 DUP2 LT PUSH2 0x339 JUMPI INVALID JUMPDEST PUSH1 0x20 MUL ADD DUP8 PUSH1 0x3 PUSH1 0x4 DUP2 LT PUSH2 0x34A JUMPI INVALID JUMPDEST PUSH1 0x20 MUL ADD DUP5 DUP2 MSTORE POP DUP5 DUP2 MSTORE POP DUP5 DUP2 MSTORE POP DUP5 DUP2 MSTORE POP POP POP POP POP SWAP2 SWAP1 POP JUMP JUMPDEST PUSH1 0x0 DUP1 PUSH1 0x0 DUP1 PUSH1 0x0 DUP13 EQ DUP1 ISZERO PUSH2 0x37D JUMPI POP PUSH1 0x0 DUP12 EQ JUMPDEST DUP1 ISZERO PUSH2 0x389 JUMPI POP PUSH1 0x0 DUP11 EQ JUMPDEST DUP1 ISZERO PUSH2 0x395 JUMPI POP PUSH1 0x0 DUP10 EQ JUMPDEST ISZERO PUSH2 0x45F JUMPI PUSH1 0x0 DUP9 EQ DUP1 ISZERO PUSH2 0x3AA JUMPI POP PUSH1 0x0 DUP8 EQ JUMPDEST DUP1 ISZERO PUSH2 0x3B6 JUMPI POP PUSH1 0x0 DUP7 EQ JUMPDEST DUP1 ISZERO PUSH2 0x3C2 JUMPI POP PUSH1 0x0 DUP6 EQ JUMPDEST PUSH2 0x44E JUMPI PUSH2 0x3D2 DUP9 DUP9 DUP9 DUP9 PUSH2 0x84B JUMP JUMPDEST PUSH2 0x44D JUMPI PUSH1 0x40 MLOAD PUSH32 0x8C379A000000000000000000000000000000000000000000000000000000000 DUP2 MSTORE PUSH1 0x4 ADD DUP1 DUP1 PUSH1 0x20 ADD DUP3 DUP2 SUB DUP3 MSTORE PUSH1 0x12 DUP2 MSTORE PUSH1 0x20 ADD DUP1 PUSH32 0x706F696E74206E6F7420696E2063757276650000000000000000000000000000 DUP2 MSTORE POP PUSH1 0x20 ADD SWAP2 POP POP PUSH1 0x40 MLOAD DUP1 SWAP2 SUB SWAP1 PUSH2 0x44A PUSH2 0x1B8D JUMP JUMPDEST POP POP JUMPDEST JUMPDEST DUP8 DUP8 DUP8 DUP8 SWAP4 POP SWAP4 POP SWAP4 POP SWAP4 POP PUSH2 0x6CC JUMP JUMPDEST PUSH1 0x0 DUP9 EQ DUP1 ISZERO PUSH2 0x46F JUMPI POP PUSH1 0x0 DUP8 EQ JUMPDEST DUP1 ISZERO PUSH2 0x47B JUMPI POP PUSH1 0x0 DUP7 EQ JUMPDEST DUP1 ISZERO PUSH2 0x487 JUMPI POP PUSH1 0x0 DUP6 EQ JUMPDEST ISZERO PUSH2 0x524 JUMPI PUSH2 0x498 DUP13 DUP13 DUP13 DUP13 PUSH2 0x84B JUMP JUMPDEST PUSH2 0x513 JUMPI PUSH1 0x40 MLOAD PUSH32 0x8C379A000000000000000000000000000000000000000000000000000000000 DUP2 MSTORE PUSH1 0x4 ADD DUP1 DUP1 PUSH1 0x20 ADD DUP3 DUP2 SUB DUP3 MSTORE PUSH1 0x12 DUP2 MSTORE PUSH1 0x20 ADD DUP1 PUSH32 0x706F696E74206E6F7420696E2063757276650000000000000000000000000000 DUP2 MSTORE POP PUSH1 0x20 ADD SWAP2 POP POP PUSH1 0x40 MLOAD DUP1 SWAP2 SUB SWAP1 PUSH2 0x510 PUSH2 0x1B8D JUMP JUMPDEST POP POP JUMPDEST DUP12 DUP12 DUP12 DUP12 SWAP4 POP SWAP4 POP SWAP4 POP SWAP4 POP PUSH2 0x6CC JUMP JUMPDEST PUSH2 0x530 DUP13 DUP13 DUP13 DUP13 PUSH2 0x84B JUMP JUMPDEST PUSH2 0x5AB JUMPI PUSH1 0x40 MLOAD PUSH32 0x8C379A000000000000000000000000000000000000000000000000000000000 DUP2 MSTORE PUSH1 0x4 ADD DUP1 DUP1 PUSH1 0x20 ADD DUP3 DUP2 SUB DUP3 MSTORE PUSH1 0x12 DUP2 MSTORE PUSH1 0x20 ADD DUP1 PUSH32 0x706F696E74206E6F7420696E2063757276650000000000000000000000000000 DUP2 MSTORE POP PUSH1 0x20 ADD SWAP2 POP POP PUSH1 0x40 MLOAD DUP1 SWAP2 SUB SWAP1 PUSH2 0x5A8 PUSH2 0x1B8D JUMP JUMPDEST POP POP JUMPDEST PUSH2 0x5B7 DUP9 DUP9 DUP9 DUP9 PUSH2 0x84B JUMP JUMPDEST PUSH2 0x632 JUMPI PUSH1 0x40 MLOAD PUSH32 0x8C379A000000000000000000000000000000000000000000000000000000000 DUP2 MSTORE PUSH1 0x4 ADD DUP1 DUP1 PUSH1 0x20 ADD DUP3 DUP2 SUB DUP3 MSTORE PUSH1 0x12 DUP2 MSTORE PUSH1 0x20 ADD DUP1 PUSH32 0x706F696E74206E6F7420696E2063757276650000000000000000000000000000 DUP2 MSTORE POP PUSH1 0x20 ADD SWAP2 POP POP PUSH1 0x40 MLOAD DUP1 SWAP2 SUB SWAP1 PUSH2 0x62F PUSH2 0x1B8D JUMP JUMPDEST POP POP JUMPDEST PUSH1 0x0 PUSH2 0x64C DUP14 DUP14 DUP14 DUP14 PUSH1 0x1 PUSH1 0x0 DUP16 DUP16 DUP16 DUP16 PUSH1 0x1 PUSH1 0x0 PUSH2 0x914 JUMP JUMPDEST SWAP1 POP PUSH2 0x6C2 DUP2 PUSH1 0x0 PUSH1 0x6 DUP2 LT PUSH2 0x65E JUMPI INVALID JUMPDEST PUSH1 0x20 MUL ADD MLOAD DUP3 PUSH1 0x1 PUSH1 0x6 DUP2 LT PUSH2 0x670 JUMPI INVALID JUMPDEST PUSH1 0x20 MUL ADD MLOAD DUP4 PUSH1 0x2 PUSH1 0x6 DUP2 LT PUSH2 0x682 JUMPI INVALID JUMPDEST PUSH1 0x20 MUL ADD MLOAD DUP5 PUSH1 0x3 PUSH1 0x6 DUP2 LT PUSH2 0x694 JUMPI INVALID JUMPDEST PUSH1 0x20 MUL ADD MLOAD DUP6 PUSH1 0x4 PUSH1 0x6 DUP2 LT PUSH2 0x6A6 JUMPI INVALID JUMPDEST PUSH1 0x20 MUL ADD MLOAD DUP7 PUSH1 0x5 PUSH1 0x6 DUP2 LT PUSH2 0x6B8 JUMPI INVALID JUMPDEST PUSH1 0x20 MUL ADD MLOAD PUSH2 0xEEA JUMP JUMPDEST SWAP5 POP SWAP5 POP SWAP5 POP SWAP5 POP POP JUMPDEST SWAP9 POP SWAP9 POP SWAP9 POP SWAP9 SWAP5 POP POP POP POP POP JUMP JUMPDEST PUSH1 0x0 DUP1 PUSH1 0x0 DUP1 PUSH1 0x0 PUSH1 0x1 SWAP1 POP PUSH1 0x0 DUP10 EQ DUP1 ISZERO PUSH2 0x6F7 JUMPI POP PUSH1 0x0 DUP9 EQ JUMPDEST DUP1 ISZERO PUSH2 0x703 JUMPI POP PUSH1 0x0 DUP8 EQ JUMPDEST DUP1 ISZERO PUSH2 0x70F JUMPI POP PUSH1 0x0 DUP7 EQ JUMPDEST ISZERO PUSH2 0x725 JUMPI PUSH1 0x1 SWAP9 POP PUSH1 0x1 SWAP7 POP PUSH1 0x0 SWAP1 POP PUSH2 0x7AD JUMP JUMPDEST PUSH2 0x731 DUP10 DUP10 DUP10 DUP10 PUSH2 0x84B JUMP JUMPDEST PUSH2 0x7AC JUMPI PUSH1 0x40 MLOAD PUSH32 0x8C379A000000000000000000000000000000000000000000000000000000000 DUP2 MSTORE PUSH1 0x4 ADD DUP1 DUP1 PUSH1 0x20 ADD DUP3 DUP2 SUB DUP3 MSTORE PUSH1 0x12 DUP2 MSTORE PUSH1 0x20 ADD DUP1 PUSH32 0x706F696E74206E6F7420696E2063757276650000000000000000000000000000 DUP2 MSTORE POP PUSH1 0x20 ADD SWAP2 POP POP PUSH1 0x40 MLOAD DUP1 SWAP2 SUB SWAP1 PUSH2 0x7A9 PUSH2 0x1B8D JUMP JUMPDEST POP POP JUMPDEST JUMPDEST PUSH1 0x0 PUSH2 0x7BF DUP12 DUP12 DUP12 DUP12 DUP12 DUP8 PUSH1 0x0 PUSH2 0xFDD JUMP JUMPDEST SWAP1 POP PUSH2 0x835 DUP2 PUSH1 0x0 PUSH1 0x6 DUP2 LT PUSH2 0x7D1 JUMPI INVALID JUMPDEST PUSH1 0x20 MUL ADD MLOAD DUP3 PUSH1 0x1 PUSH1 0x6 DUP2 LT PUSH2 0x7E3 JUMPI INVALID JUMPDEST PUSH1 0x20 MUL ADD MLOAD DUP4 PUSH1 0x2 PUSH1 0x6 DUP2 LT PUSH2 0x7F5 JUMPI INVALID JUMPDEST PUSH1 0x20 MUL ADD MLOAD DUP5 PUSH1 0x3 PUSH1 0x6 DUP2 LT PUSH2 0x807 JUMPI INVALID JUMPDEST PUSH1 0x20 MUL ADD MLOAD DUP6 PUSH1 0x4 PUSH1 0x6 DUP2 LT PUSH2 0x819 JUMPI INVALID JUMPDEST PUSH1 0x20 MUL ADD MLOAD DUP7 PUSH1 0x5 PUSH1 0x6 DUP2 LT PUSH2 0x82B JUMPI INVALID JUMPDEST PUSH1 0x20 MUL ADD MLOAD PUSH2 0xEEA JUMP JUMPDEST SWAP6 POP SWAP6 POP SWAP6 POP SWAP6 POP POP POP SWAP6 POP SWAP6 POP SWAP6 POP SWAP6 SWAP2 POP POP JUMP JUMPDEST PUSH1 0x0 DUP1 PUSH1 0x0 DUP1 PUSH1 0x0 PUSH2 0x85F DUP8 DUP8 DUP10 DUP10 PUSH2 0x10C5 JUMP JUMPDEST DUP1 SWAP5 POP DUP2 SWAP6 POP POP POP PUSH2 0x873 DUP10 DUP10 DUP12 DUP12 PUSH2 0x10C5 JUMP JUMPDEST DUP1 SWAP3 POP DUP2 SWAP4 POP POP POP PUSH2 0x887 DUP3 DUP3 DUP12 DUP12 PUSH2 0x10C5 JUMP JUMPDEST DUP1 SWAP3 POP DUP2 SWAP4 POP POP POP PUSH2 0x89B DUP5 DUP5 DUP5 DUP5 PUSH2 0x11D3 JUMP JUMPDEST DUP1 SWAP5 POP DUP2 SWAP6 POP POP POP PUSH2 0x8EE DUP5 DUP5 PUSH32 0x2B149D40CEB8AAAE81BE18991BE06AC3B5B4C5E559DBEFA33267E6DC24A138E5 PUSH31 0x9713B03AF0FED4CD2CAFADEED8FDF4A74FA084E52D1852E4A2BD0685C315D2 PUSH2 0x11D3 JUMP JUMPDEST DUP1 SWAP5 POP DUP2 SWAP6 POP POP POP PUSH1 0x0 DUP5 EQ DUP1 ISZERO PUSH2 0x906 JUMPI POP PUSH1 0x0 DUP4 EQ JUMPDEST SWAP5 POP POP POP POP POP SWAP5 SWAP4 POP POP POP POP JUMP JUMPDEST PUSH2 0x91C PUSH2 0x1C1D JUMP JUMPDEST PUSH1 0x0 DUP10 EQ DUP1 ISZERO PUSH2 0x92C JUMPI POP PUSH1 0x0 DUP9 EQ JUMPDEST ISZERO PUSH2 0x9C0 JUMPI DUP7 DUP7 DUP7 DUP7 DUP7 DUP7 DUP7 PUSH1 0x0 PUSH1 0x6 DUP2 LT PUSH2 0x944 JUMPI INVALID JUMPDEST PUSH1 0x20 MUL ADD DUP8 PUSH1 0x1 PUSH1 0x6 DUP2 LT PUSH2 0x955 JUMPI INVALID JUMPDEST PUSH1 0x20 MUL ADD DUP9 PUSH1 0x2 PUSH1 0x6 DUP2 LT PUSH2 0x966 JUMPI INVALID JUMPDEST PUSH1 0x20 MUL ADD DUP10 PUSH1 0x3 PUSH1 0x6 DUP2 LT PUSH2 0x977 JUMPI INVALID JUMPDEST PUSH1 0x20 MUL ADD DUP11 PUSH1 0x4 PUSH1 0x6 DUP2 LT PUSH2 0x988 JUMPI INVALID JUMPDEST PUSH1 0x20 MUL ADD DUP12 PUSH1 0x5 PUSH1 0x6 DUP2 LT PUSH2 0x999 JUMPI INVALID JUMPDEST PUSH1 0x20 MUL ADD DUP7 DUP2 MSTORE POP DUP7 DUP2 MSTORE POP DUP7 DUP2 MSTORE POP DUP7 DUP2 MSTORE POP DUP7 DUP2 MSTORE POP DUP7 DUP2 MSTORE POP POP POP POP POP POP POP PUSH2 0xEDA JUMP JUMPDEST PUSH1 0x0 DUP4 EQ DUP1 ISZERO PUSH2 0x9D0 JUMPI POP PUSH1 0x0 DUP3 EQ JUMPDEST ISZERO PUSH2 0xA64 JUMPI DUP13 DUP13 DUP13 DUP13 DUP13 DUP13 DUP7 PUSH1 0x0 PUSH1 0x6 DUP2 LT PUSH2 0x9E8 JUMPI INVALID JUMPDEST PUSH1 0x20 MUL ADD DUP8 PUSH1 0x1 PUSH1 0x6 DUP2 LT PUSH2 0x9F9 JUMPI INVALID JUMPDEST PUSH1 0x20 MUL ADD DUP9 PUSH1 0x2 PUSH1 0x6 DUP2 LT PUSH2 0xA0A JUMPI INVALID JUMPDEST PUSH1 0x20 MUL ADD DUP10 PUSH1 0x3 PUSH1 0x6 DUP2 LT PUSH2 0xA1B JUMPI INVALID JUMPDEST PUSH1 0x20 MUL ADD DUP11 PUSH1 0x4 PUSH1 0x6 DUP2 LT PUSH2 0xA2C JUMPI INVALID JUMPDEST PUSH1 0x20 MUL ADD DUP12 PUSH1 0x5 PUSH1 0x6 DUP2 LT PUSH2 0xA3D JUMPI INVALID JUMPDEST PUSH1 0x20 MUL ADD DUP7 DUP2 MSTORE POP DUP7 DUP2 MSTORE POP DUP7 DUP2 MSTORE POP DUP7 DUP2 MSTORE POP DUP7 DUP2 MSTORE POP DUP7 DUP2 MSTORE POP POP POP POP POP POP POP PUSH2 0xEDA JUMP JUMPDEST PUSH2 0xA70 DUP6 DUP6 DUP12 DUP12 PUSH2 0x10C5 JUMP JUMPDEST DUP1 SWAP6 POP DUP2 SWAP7 POP POP POP PUSH2 0xA84 DUP12 DUP12 DUP6 DUP6 PUSH2 0x10C5 JUMP JUMPDEST DUP3 PUSH1 0x2 PUSH1 0x6 DUP2 LT PUSH2 0xA91 JUMPI INVALID JUMPDEST PUSH1 0x20 MUL ADD DUP4 PUSH1 0x3 PUSH1 0x6 DUP2 LT PUSH2 0xAA2 JUMPI INVALID JUMPDEST PUSH1 0x20 MUL ADD DUP3 DUP2 MSTORE POP DUP3 DUP2 MSTORE POP POP POP PUSH2 0xABC DUP8 DUP8 DUP12 DUP12 PUSH2 0x10C5 JUMP JUMPDEST DUP1 SWAP8 POP DUP2 SWAP9 POP POP POP PUSH2 0xAD0 DUP14 DUP14 DUP6 DUP6 PUSH2 0x10C5 JUMP JUMPDEST DUP3 PUSH1 0x4 PUSH1 0x6 DUP2 LT PUSH2 0xADD JUMPI INVALID JUMPDEST PUSH1 0x20 MUL ADD DUP4 PUSH1 0x5 PUSH1 0x6 DUP2 LT PUSH2 0xAEE JUMPI INVALID JUMPDEST PUSH1 0x20 MUL ADD DUP3 DUP2 MSTORE POP DUP3 DUP2 MSTORE POP POP POP DUP1 PUSH1 0x4 PUSH1 0x6 DUP2 LT PUSH2 0xB09 JUMPI INVALID JUMPDEST PUSH1 0x20 MUL ADD MLOAD DUP8 EQ DUP1 ISZERO PUSH2 0xB2C JUMPI POP DUP1 PUSH1 0x5 PUSH1 0x6 DUP2 LT PUSH2 0xB24 JUMPI INVALID JUMPDEST PUSH1 0x20 MUL ADD MLOAD DUP7 EQ JUMPDEST ISZERO PUSH2 0xC91 JUMPI DUP1 PUSH1 0x2 PUSH1 0x6 DUP2 LT PUSH2 0xB3E JUMPI INVALID JUMPDEST PUSH1 0x20 MUL ADD MLOAD DUP6 EQ DUP1 ISZERO PUSH2 0xB61 JUMPI POP DUP1 PUSH1 0x3 PUSH1 0x6 DUP2 LT PUSH2 0xB59 JUMPI INVALID JUMPDEST PUSH1 0x20 MUL ADD MLOAD DUP5 EQ JUMPDEST ISZERO PUSH2 0xBFD JUMPI PUSH2 0xB74 DUP14 DUP14 DUP14 DUP14 DUP14 DUP14 PUSH2 0x1239 JUMP JUMPDEST DUP7 PUSH1 0x0 PUSH1 0x6 DUP2 LT PUSH2 0xB81 JUMPI INVALID JUMPDEST PUSH1 0x20 MUL ADD DUP8 PUSH1 0x1 PUSH1 0x6 DUP2 LT PUSH2 0xB92 JUMPI INVALID JUMPDEST PUSH1 0x20 MUL ADD DUP9 PUSH1 0x2 PUSH1 0x6 DUP2 LT PUSH2 0xBA3 JUMPI INVALID JUMPDEST PUSH1 0x20 MUL ADD DUP10 PUSH1 0x3 PUSH1 0x6 DUP2 LT PUSH2 0xBB4 JUMPI INVALID JUMPDEST PUSH1 0x20 MUL ADD DUP11 PUSH1 0x4 PUSH1 0x6 DUP2 LT PUSH2 0xBC5 JUMPI INVALID JUMPDEST PUSH1 0x20 MUL ADD DUP12 PUSH1 0x5 PUSH1 0x6 DUP2 LT PUSH2 0xBD6 JUMPI INVALID JUMPDEST PUSH1 0x20 MUL ADD DUP7 DUP2 MSTORE POP DUP7 DUP2 MSTORE POP DUP7 DUP2 MSTORE POP DUP7 DUP2 MSTORE POP DUP7 DUP2 MSTORE POP DUP7 DUP2 MSTORE POP POP POP POP POP POP POP PUSH2 0xEDA JUMP JUMPDEST PUSH1 0x1 PUSH1 0x0 PUSH1 0x1 PUSH1 0x0 DUP1 PUSH1 0x0 DUP7 PUSH1 0x0 PUSH1 0x6 DUP2 LT PUSH2 0xC15 JUMPI INVALID JUMPDEST PUSH1 0x20 MUL ADD DUP8 PUSH1 0x1 PUSH1 0x6 DUP2 LT PUSH2 0xC26 JUMPI INVALID JUMPDEST PUSH1 0x20 MUL ADD DUP9 PUSH1 0x2 PUSH1 0x6 DUP2 LT PUSH2 0xC37 JUMPI INVALID JUMPDEST PUSH1 0x20 MUL ADD DUP10 PUSH1 0x3 PUSH1 0x6 DUP2 LT PUSH2 0xC48 JUMPI INVALID JUMPDEST PUSH1 0x20 MUL ADD DUP11 PUSH1 0x4 PUSH1 0x6 DUP2 LT PUSH2 0xC59 JUMPI INVALID JUMPDEST PUSH1 0x20 MUL ADD DUP12 PUSH1 0x5 PUSH1 0x6 DUP2 LT PUSH2 0xC6A JUMPI INVALID JUMPDEST PUSH1 0x20 MUL ADD DUP7 DUP2 MSTORE POP DUP7 DUP2 MSTORE POP DUP7 DUP2 MSTORE POP DUP7 DUP2 MSTORE POP DUP7 DUP2 MSTORE POP DUP7 DUP2 MSTORE POP POP POP POP POP POP POP PUSH2 0xEDA JUMP JUMPDEST PUSH2 0xC9D DUP10 DUP10 DUP6 DUP6 PUSH2 0x10C5 JUMP JUMPDEST DUP1 SWAP4 POP DUP2 SWAP5 POP POP POP PUSH2 0xCD3 DUP6 DUP6 DUP4 PUSH1 0x2 PUSH1 0x6 DUP2 LT PUSH2 0xCB7 JUMPI INVALID JUMPDEST PUSH1 0x20 MUL ADD MLOAD DUP5 PUSH1 0x3 PUSH1 0x6 DUP2 LT PUSH2 0xCC9 JUMPI INVALID JUMPDEST PUSH1 0x20 MUL ADD MLOAD PUSH2 0x11D3 JUMP JUMPDEST DUP1 SWAP14 POP DUP2 SWAP15 POP POP POP PUSH2 0xD09 DUP8 DUP8 DUP4 PUSH1 0x4 PUSH1 0x6 DUP2 LT PUSH2 0xCED JUMPI INVALID JUMPDEST PUSH1 0x20 MUL ADD MLOAD DUP5 PUSH1 0x5 PUSH1 0x6 DUP2 LT PUSH2 0xCFF JUMPI INVALID JUMPDEST PUSH1 0x20 MUL ADD MLOAD PUSH2 0x11D3 JUMP JUMPDEST DUP1 SWAP12 POP DUP2 SWAP13 POP POP POP PUSH2 0xD1D DUP12 DUP12 DUP14 DUP14 PUSH2 0x10C5 JUMP JUMPDEST DUP1 SWAP10 POP DUP2 SWAP11 POP POP POP PUSH2 0xD53 DUP10 DUP10 DUP4 PUSH1 0x4 PUSH1 0x6 DUP2 LT PUSH2 0xD37 JUMPI INVALID JUMPDEST PUSH1 0x20 MUL ADD MLOAD DUP5 PUSH1 0x5 PUSH1 0x6 DUP2 LT PUSH2 0xD49 JUMPI INVALID JUMPDEST PUSH1 0x20 MUL ADD MLOAD PUSH2 0x10C5 JUMP JUMPDEST DUP1 SWAP6 POP DUP2 SWAP7 POP POP POP PUSH2 0xD67 DUP10 DUP10 DUP14 DUP14 PUSH2 0x10C5 JUMP JUMPDEST DUP1 SWAP10 POP DUP2 SWAP11 POP POP POP PUSH2 0xD7B DUP10 DUP10 DUP6 DUP6 PUSH2 0x10C5 JUMP JUMPDEST DUP3 PUSH1 0x4 PUSH1 0x6 DUP2 LT PUSH2 0xD88 JUMPI INVALID JUMPDEST PUSH1 0x20 MUL ADD DUP4 PUSH1 0x5 PUSH1 0x6 DUP2 LT PUSH2 0xD99 JUMPI INVALID JUMPDEST PUSH1 0x20 MUL ADD DUP3 DUP2 MSTORE POP DUP3 DUP2 MSTORE POP POP POP PUSH2 0xDB3 DUP14 DUP14 DUP16 DUP16 PUSH2 0x10C5 JUMP JUMPDEST DUP1 SWAP8 POP DUP2 SWAP9 POP POP POP PUSH2 0xDC7 DUP8 DUP8 DUP6 DUP6 PUSH2 0x10C5 JUMP JUMPDEST DUP1 SWAP8 POP DUP2 SWAP9 POP POP POP PUSH2 0xDDB DUP8 DUP8 DUP12 DUP12 PUSH2 0x11D3 JUMP JUMPDEST DUP1 SWAP8 POP DUP2 SWAP9 POP POP POP PUSH2 0xDEF DUP6 DUP6 PUSH1 0x2 PUSH2 0x192A JUMP JUMPDEST DUP1 SWAP4 POP DUP2 SWAP5 POP POP POP PUSH2 0xE03 DUP8 DUP8 DUP6 DUP6 PUSH2 0x11D3 JUMP JUMPDEST DUP1 SWAP8 POP DUP2 SWAP9 POP POP POP PUSH2 0xE17 DUP12 DUP12 DUP10 DUP10 PUSH2 0x10C5 JUMP JUMPDEST DUP3 PUSH1 0x0 PUSH1 0x6 DUP2 LT PUSH2 0xE24 JUMPI INVALID JUMPDEST PUSH1 0x20 MUL ADD DUP4 PUSH1 0x1 PUSH1 0x6 DUP2 LT PUSH2 0xE35 JUMPI INVALID JUMPDEST PUSH1 0x20 MUL ADD DUP3 DUP2 MSTORE POP DUP3 DUP2 MSTORE POP POP POP PUSH2 0xE4F DUP6 DUP6 DUP10 DUP10 PUSH2 0x11D3 JUMP JUMPDEST DUP1 SWAP12 POP DUP2 SWAP13 POP POP POP PUSH2 0xE63 DUP14 DUP14 DUP14 DUP14 PUSH2 0x10C5 JUMP JUMPDEST DUP1 SWAP12 POP DUP2 SWAP13 POP POP POP PUSH2 0xE99 DUP10 DUP10 DUP4 PUSH1 0x2 PUSH1 0x6 DUP2 LT PUSH2 0xE7D JUMPI INVALID JUMPDEST PUSH1 0x20 MUL ADD MLOAD DUP5 PUSH1 0x3 PUSH1 0x6 DUP2 LT PUSH2 0xE8F JUMPI INVALID JUMPDEST PUSH1 0x20 MUL ADD MLOAD PUSH2 0x10C5 JUMP JUMPDEST DUP1 SWAP14 POP DUP2 SWAP15 POP POP POP PUSH2 0xEAD DUP12 DUP12 DUP16 DUP16 PUSH2 0x11D3 JUMP JUMPDEST DUP3 PUSH1 0x2 PUSH1 0x6 DUP2 LT PUSH2 0xEBA JUMPI INVALID JUMPDEST PUSH1 0x20 MUL ADD DUP4 PUSH1 0x3 PUSH1 0x6 DUP2 LT PUSH2 0xECB JUMPI INVALID JUMPDEST PUSH1 0x20 MUL ADD DUP3 DUP2 MSTORE POP DUP3 DUP2 MSTORE POP POP POP JUMPDEST SWAP13 SWAP12 POP POP POP POP POP POP POP POP POP POP POP POP JUMP JUMPDEST PUSH1 0x0 DUP1 PUSH1 0x0 DUP1 PUSH1 0x0 DUP1 PUSH2 0xEFB PUSH2 0x1BFB JUMP JUMPDEST PUSH2 0xF05 DUP10 DUP10 PUSH2 0x198F JUMP JUMPDEST DUP1 SWAP4 POP DUP2 SWAP5 POP POP POP PUSH2 0xF19 DUP14 DUP14 DUP6 DUP6 PUSH2 0x10C5 JUMP JUMPDEST DUP3 PUSH1 0x0 PUSH1 0x4 DUP2 LT PUSH2 0xF26 JUMPI INVALID JUMPDEST PUSH1 0x20 MUL ADD DUP4 PUSH1 0x1 PUSH1 0x4 DUP2 LT PUSH2 0xF37 JUMPI INVALID JUMPDEST PUSH1 0x20 MUL ADD DUP3 DUP2 MSTORE POP DUP3 DUP2 MSTORE POP POP POP PUSH2 0xF51 DUP12 DUP12 DUP6 DUP6 PUSH2 0x10C5 JUMP JUMPDEST DUP3 PUSH1 0x2 PUSH1 0x4 DUP2 LT PUSH2 0xF5E JUMPI INVALID JUMPDEST PUSH1 0x20 MUL ADD DUP4 PUSH1 0x3 PUSH1 0x4 DUP2 LT PUSH2 0xF6F JUMPI INVALID JUMPDEST PUSH1 0x20 MUL ADD DUP3 DUP2 MSTORE POP DUP3 DUP2 MSTORE POP POP POP DUP1 PUSH1 0x0 PUSH1 0x4 DUP2 LT PUSH2 0xF8A JUMPI INVALID JUMPDEST PUSH1 0x20 MUL ADD MLOAD DUP2 PUSH1 0x1 PUSH1 0x4 DUP2 LT PUSH2 0xF9C JUMPI INVALID JUMPDEST PUSH1 0x20 MUL ADD MLOAD DUP3 PUSH1 0x2 PUSH1 0x4 DUP2 LT PUSH2 0xFAE JUMPI INVALID JUMPDEST PUSH1 0x20 MUL ADD MLOAD DUP4 PUSH1 0x3 PUSH1 0x4 DUP2 LT PUSH2 0xFC0 JUMPI INVALID JUMPDEST PUSH1 0x20 MUL ADD MLOAD SWAP7 POP SWAP7 POP SWAP7 POP SWAP7 POP POP POP POP SWAP7 POP SWAP7 POP SWAP7 POP SWAP7 SWAP3 POP POP POP JUMP JUMPDEST PUSH2 0xFE5 PUSH2 0x1C1D JUMP JUMPDEST PUSH2 0xFED PUSH2 0x1C1D JUMP JUMPDEST JUMPDEST PUSH1 0x0 DUP10 EQ PUSH2 0x10B6 JUMPI PUSH1 0x0 PUSH1 0x1 DUP11 AND EQ PUSH2 0x107E JUMPI PUSH2 0x107B DUP2 PUSH1 0x0 PUSH1 0x6 DUP2 LT PUSH2 0x1011 JUMPI INVALID JUMPDEST PUSH1 0x20 MUL ADD MLOAD DUP3 PUSH1 0x1 PUSH1 0x6 DUP2 LT PUSH2 0x1023 JUMPI INVALID JUMPDEST PUSH1 0x20 MUL ADD MLOAD DUP4 PUSH1 0x2 PUSH1 0x6 DUP2 LT PUSH2 0x1035 JUMPI INVALID JUMPDEST PUSH1 0x20 MUL ADD MLOAD DUP5 PUSH1 0x3 PUSH1 0x6 DUP2 LT PUSH2 0x1047 JUMPI INVALID JUMPDEST PUSH1 0x20 MUL ADD MLOAD DUP6 PUSH1 0x4 PUSH1 0x6 DUP2 LT PUSH2 0x1059 JUMPI INVALID JUMPDEST PUSH1 0x20 MUL ADD MLOAD DUP7 PUSH1 0x5 PUSH1 0x6 DUP2 LT PUSH2 0x106B JUMPI INVALID JUMPDEST PUSH1 0x20 MUL ADD MLOAD DUP15 DUP15 DUP15 DUP15 DUP15 DUP15 PUSH2 0x914 JUMP JUMPDEST SWAP1 POP JUMPDEST PUSH2 0x108C DUP9 DUP9 DUP9 DUP9 DUP9 DUP9 PUSH2 0x1239 JUMP JUMPDEST DUP1 SWAP9 POP DUP2 SWAP10 POP DUP3 SWAP11 POP DUP4 SWAP12 POP DUP5 SWAP13 POP DUP6 SWAP14 POP POP POP POP POP POP POP PUSH1 0x2 DUP10 DUP2 PUSH2 0x10AE JUMPI INVALID JUMPDEST DIV SWAP9 POP PUSH2 0xFEE JUMP JUMPDEST DUP1 SWAP2 POP POP SWAP8 SWAP7 POP POP POP POP POP POP POP JUMP JUMPDEST PUSH1 0x0 DUP1 PUSH2 0x1147 PUSH32 0x30644E72E131A029B85045B68181585D97816A916871CA8D3C208C16D87CFD47 DUP1 PUSH2 0x10F3 JUMPI INVALID JUMPDEST DUP6 DUP9 MULMOD PUSH32 0x30644E72E131A029B85045B68181585D97816A916871CA8D3C208C16D87CFD47 DUP1 PUSH2 0x111E JUMPI INVALID JUMPDEST DUP6 DUP9 MULMOD PUSH32 0x30644E72E131A029B85045B68181585D97816A916871CA8D3C208C16D87CFD47 PUSH2 0x1AC2 JUMP JUMPDEST PUSH32 0x30644E72E131A029B85045B68181585D97816A916871CA8D3C208C16D87CFD47 DUP1 PUSH2 0x116F JUMPI INVALID JUMPDEST PUSH32 0x30644E72E131A029B85045B68181585D97816A916871CA8D3C208C16D87CFD47 DUP1 PUSH2 0x1197 JUMPI INVALID JUMPDEST DUP7 DUP9 MULMOD PUSH32 0x30644E72E131A029B85045B68181585D97816A916871CA8D3C208C16D87CFD47 DUP1 PUSH2 0x11C2 JUMPI INVALID JUMPDEST DUP7 DUP11 MULMOD ADDMOD SWAP2 POP SWAP2 POP SWAP5 POP SWAP5 SWAP3 POP POP POP JUMP JUMPDEST PUSH1 0x0 DUP1 PUSH2 0x1201 DUP7 DUP6 PUSH32 0x30644E72E131A029B85045B68181585D97816A916871CA8D3C208C16D87CFD47 PUSH2 0x1AC2 JUMP JUMPDEST PUSH2 0x122C DUP7 DUP6 PUSH32 0x30644E72E131A029B85045B68181585D97816A916871CA8D3C208C16D87CFD47 PUSH2 0x1AC2 JUMP JUMPDEST SWAP2 POP SWAP2 POP SWAP5 POP SWAP5 SWAP3 POP POP POP JUMP JUMPDEST PUSH1 0x0 DUP1 PUSH1 0x0 DUP1 PUSH1 0x0 DUP1 PUSH2 0x124A PUSH2 0x1C1D JUMP JUMPDEST PUSH2 0x1256 DUP14 DUP14 PUSH1 0x3 PUSH2 0x192A JUMP JUMPDEST DUP3 PUSH1 0x0 PUSH1 0x6 DUP2 LT PUSH2 0x1263 JUMPI INVALID JUMPDEST PUSH1 0x20 MUL ADD DUP4 PUSH1 0x1 PUSH1 0x6 DUP2 LT PUSH2 0x1274 JUMPI INVALID JUMPDEST PUSH1 0x20 MUL ADD DUP3 DUP2 MSTORE POP DUP3 DUP2 MSTORE POP POP POP PUSH2 0x12B0 DUP2 PUSH1 0x0 PUSH1 0x6 DUP2 LT PUSH2 0x1292 JUMPI INVALID JUMPDEST PUSH1 0x20 MUL ADD MLOAD DUP3 PUSH1 0x1 PUSH1 0x6 DUP2 LT PUSH2 0x12A4 JUMPI INVALID JUMPDEST PUSH1 0x20 MUL ADD MLOAD DUP16 DUP16 PUSH2 0x10C5 JUMP JUMPDEST DUP3 PUSH1 0x0 PUSH1 0x6 DUP2 LT PUSH2 0x12BD JUMPI INVALID JUMPDEST PUSH1 0x20 MUL ADD DUP4 PUSH1 0x1 PUSH1 0x6 DUP2 LT PUSH2 0x12CE JUMPI INVALID JUMPDEST PUSH1 0x20 MUL ADD DUP3 DUP2 MSTORE POP DUP3 DUP2 MSTORE POP POP POP PUSH2 0x12E8 DUP12 DUP12 DUP12 DUP12 PUSH2 0x10C5 JUMP JUMPDEST DUP1 SWAP10 POP DUP2 SWAP11 POP POP POP PUSH2 0x12FC DUP14 DUP14 DUP14 DUP14 PUSH2 0x10C5 JUMP JUMPDEST DUP3 PUSH1 0x2 PUSH1 0x6 DUP2 LT PUSH2 0x1309 JUMPI INVALID JUMPDEST PUSH1 0x20 MUL ADD DUP4 PUSH1 0x3 PUSH1 0x6 DUP2 LT PUSH2 0x131A JUMPI INVALID JUMPDEST PUSH1 0x20 MUL ADD DUP3 DUP2 MSTORE POP DUP3 DUP2 MSTORE POP POP POP PUSH2 0x1356 DUP2 PUSH1 0x2 PUSH1 0x6 DUP2 LT PUSH2 0x1338 JUMPI INVALID JUMPDEST PUSH1 0x20 MUL ADD MLOAD DUP3 PUSH1 0x3 PUSH1 0x6 DUP2 LT PUSH2 0x134A JUMPI INVALID JUMPDEST PUSH1 0x20 MUL ADD MLOAD DUP12 DUP12 PUSH2 0x10C5 JUMP JUMPDEST DUP3 PUSH1 0x2 PUSH1 0x6 DUP2 LT PUSH2 0x1363 JUMPI INVALID JUMPDEST PUSH1 0x20 MUL ADD DUP4 PUSH1 0x3 PUSH1 0x6 DUP2 LT PUSH2 0x1374 JUMPI INVALID JUMPDEST PUSH1 0x20 MUL ADD DUP3 DUP2 MSTORE POP DUP3 DUP2 MSTORE POP POP POP PUSH2 0x13D2 DUP2 PUSH1 0x0 PUSH1 0x6 DUP2 LT PUSH2 0x1392 JUMPI INVALID JUMPDEST PUSH1 0x20 MUL ADD MLOAD DUP3 PUSH1 0x1 PUSH1 0x6 DUP2 LT PUSH2 0x13A4 JUMPI INVALID JUMPDEST PUSH1 0x20 MUL ADD MLOAD DUP4 PUSH1 0x0 PUSH1 0x6 DUP2 LT PUSH2 0x13B6 JUMPI INVALID JUMPDEST PUSH1 0x20 MUL ADD MLOAD DUP5 PUSH1 0x1 PUSH1 0x6 DUP2 LT PUSH2 0x13C8 JUMPI INVALID JUMPDEST PUSH1 0x20 MUL ADD MLOAD PUSH2 0x10C5 JUMP JUMPDEST DUP1 SWAP14 POP DUP2 SWAP15 POP POP POP PUSH2 0x1408 DUP2 PUSH1 0x2 PUSH1 0x6 DUP2 LT PUSH2 0x13EA JUMPI INVALID JUMPDEST PUSH1 0x20 MUL ADD MLOAD DUP3 PUSH1 0x3 PUSH1 0x6 DUP2 LT PUSH2 0x13FC JUMPI INVALID JUMPDEST PUSH1 0x20 MUL ADD MLOAD PUSH1 0x8 PUSH2 0x192A JUMP JUMPDEST DUP3 PUSH1 0x4 PUSH1 0x6 DUP2 LT PUSH2 0x1415 JUMPI INVALID JUMPDEST PUSH1 0x20 MUL ADD DUP4 PUSH1 0x5 PUSH1 0x6 DUP2 LT PUSH2 0x1426 JUMPI INVALID JUMPDEST PUSH1 0x20 MUL ADD DUP3 DUP2 MSTORE POP DUP3 DUP2 MSTORE POP POP POP PUSH2 0x1462 DUP14 DUP14 DUP4 PUSH1 0x4 PUSH1 0x6 DUP2 LT PUSH2 0x1446 JUMPI INVALID JUMPDEST PUSH1 0x20 MUL ADD MLOAD DUP5 PUSH1 0x5 PUSH1 0x6 DUP2 LT PUSH2 0x1458 JUMPI INVALID JUMPDEST PUSH1 0x20 MUL ADD MLOAD PUSH2 0x11D3 JUMP JUMPDEST DUP1 SWAP14 POP DUP2 SWAP15 POP POP POP PUSH2 0x1476 DUP10 DUP10 DUP12 DUP12 PUSH2 0x10C5 JUMP JUMPDEST DUP3 PUSH1 0x4 PUSH1 0x6 DUP2 LT PUSH2 0x1483 JUMPI INVALID JUMPDEST PUSH1 0x20 MUL ADD DUP4 PUSH1 0x5 PUSH1 0x6 DUP2 LT PUSH2 0x1494 JUMPI INVALID JUMPDEST PUSH1 0x20 MUL ADD DUP3 DUP2 MSTORE POP DUP3 DUP2 MSTORE POP POP POP PUSH2 0x14D0 DUP2 PUSH1 0x2 PUSH1 0x6 DUP2 LT PUSH2 0x14B2 JUMPI INVALID JUMPDEST PUSH1 0x20 MUL ADD MLOAD DUP3 PUSH1 0x3 PUSH1 0x6 DUP2 LT PUSH2 0x14C4 JUMPI INVALID JUMPDEST PUSH1 0x20 MUL ADD MLOAD PUSH1 0x4 PUSH2 0x192A JUMP JUMPDEST DUP3 PUSH1 0x2 PUSH1 0x6 DUP2 LT PUSH2 0x14DD JUMPI INVALID JUMPDEST PUSH1 0x20 MUL ADD DUP4 PUSH1 0x3 PUSH1 0x6 DUP2 LT PUSH2 0x14EE JUMPI INVALID JUMPDEST PUSH1 0x20 MUL ADD DUP3 DUP2 MSTORE POP DUP3 DUP2 MSTORE POP POP POP PUSH2 0x152A DUP2 PUSH1 0x2 PUSH1 0x6 DUP2 LT PUSH2 0x150C JUMPI INVALID JUMPDEST PUSH1 0x20 MUL ADD MLOAD DUP3 PUSH1 0x3 PUSH1 0x6 DUP2 LT PUSH2 0x151E JUMPI INVALID JUMPDEST PUSH1 0x20 MUL ADD MLOAD DUP16 DUP16 PUSH2 0x11D3 JUMP JUMPDEST DUP3 PUSH1 0x2 PUSH1 0x6 DUP2 LT PUSH2 0x1537 JUMPI INVALID JUMPDEST PUSH1 0x20 MUL ADD DUP4 PUSH1 0x3 PUSH1 0x6 DUP2 LT PUSH2 0x1548 JUMPI INVALID JUMPDEST PUSH1 0x20 MUL ADD DUP3 DUP2 MSTORE POP DUP3 DUP2 MSTORE POP POP POP PUSH2 0x15A6 DUP2 PUSH1 0x2 PUSH1 0x6 DUP2 LT PUSH2 0x1566 JUMPI INVALID JUMPDEST PUSH1 0x20 MUL ADD MLOAD DUP3 PUSH1 0x3 PUSH1 0x6 DUP2 LT PUSH2 0x1578 JUMPI INVALID JUMPDEST PUSH1 0x20 MUL ADD MLOAD DUP4 PUSH1 0x0 PUSH1 0x6 DUP2 LT PUSH2 0x158A JUMPI INVALID JUMPDEST PUSH1 0x20 MUL ADD MLOAD DUP5 PUSH1 0x1 PUSH1 0x6 DUP2 LT PUSH2 0x159C JUMPI INVALID JUMPDEST PUSH1 0x20 MUL ADD MLOAD PUSH2 0x10C5 JUMP JUMPDEST DUP3 PUSH1 0x2 PUSH1 0x6 DUP2 LT PUSH2 0x15B3 JUMPI INVALID JUMPDEST PUSH1 0x20 MUL ADD DUP4 PUSH1 0x3 PUSH1 0x6 DUP2 LT PUSH2 0x15C4 JUMPI INVALID JUMPDEST PUSH1 0x20 MUL ADD DUP3 DUP2 MSTORE POP DUP3 DUP2 MSTORE POP POP POP PUSH2 0x15DE DUP12 DUP12 PUSH1 0x8 PUSH2 0x192A JUMP JUMPDEST DUP3 PUSH1 0x0 PUSH1 0x6 DUP2 LT PUSH2 0x15EB JUMPI INVALID JUMPDEST PUSH1 0x20 MUL ADD DUP4 PUSH1 0x1 PUSH1 0x6 DUP2 LT PUSH2 0x15FC JUMPI INVALID JUMPDEST PUSH1 0x20 MUL ADD DUP3 DUP2 MSTORE POP DUP3 DUP2 MSTORE POP POP POP PUSH2 0x1638 DUP2 PUSH1 0x0 PUSH1 0x6 DUP2 LT PUSH2 0x161A JUMPI INVALID JUMPDEST PUSH1 0x20 MUL ADD MLOAD DUP3 PUSH1 0x1 PUSH1 0x6 DUP2 LT PUSH2 0x162C JUMPI INVALID JUMPDEST PUSH1 0x20 MUL ADD MLOAD DUP14 DUP14 PUSH2 0x10C5 JUMP JUMPDEST DUP3 PUSH1 0x0 PUSH1 0x6 DUP2 LT PUSH2 0x1645 JUMPI INVALID JUMPDEST PUSH1 0x20 MUL ADD DUP4 PUSH1 0x1 PUSH1 0x6 DUP2 LT PUSH2 0x1656 JUMPI INVALID JUMPDEST PUSH1 0x20 MUL ADD DUP3 DUP2 MSTORE POP DUP3 DUP2 MSTORE POP POP POP PUSH2 0x16B4 DUP2 PUSH1 0x0 PUSH1 0x6 DUP2 LT PUSH2 0x1674 JUMPI INVALID JUMPDEST PUSH1 0x20 MUL ADD MLOAD DUP3 PUSH1 0x1 PUSH1 0x6 DUP2 LT PUSH2 0x1686 JUMPI INVALID JUMPDEST PUSH1 0x20 MUL ADD MLOAD DUP4 PUSH1 0x4 PUSH1 0x6 DUP2 LT PUSH2 0x1698 JUMPI INVALID JUMPDEST PUSH1 0x20 MUL ADD MLOAD DUP5 PUSH1 0x5 PUSH1 0x6 DUP2 LT PUSH2 0x16AA JUMPI INVALID JUMPDEST PUSH1 0x20 MUL ADD MLOAD PUSH2 0x10C5 JUMP JUMPDEST DUP3 PUSH1 0x0 PUSH1 0x6 DUP2 LT PUSH2 0x16C1 JUMPI INVALID JUMPDEST PUSH1 0x20 MUL ADD DUP4 PUSH1 0x1 PUSH1 0x6 DUP2 LT PUSH2 0x16D2 JUMPI INVALID JUMPDEST PUSH1 0x20 MUL ADD DUP3 DUP2 MSTORE POP DUP3 DUP2 MSTORE POP POP POP PUSH2 0x1730 DUP2 PUSH1 0x2 PUSH1 0x6 DUP2 LT PUSH2 0x16F0 JUMPI INVALID JUMPDEST PUSH1 0x20 MUL ADD MLOAD DUP3 PUSH1 0x3 PUSH1 0x6 DUP2 LT PUSH2 0x1702 JUMPI INVALID JUMPDEST PUSH1 0x20 MUL ADD MLOAD DUP4 PUSH1 0x0 PUSH1 0x6 DUP2 LT PUSH2 0x1714 JUMPI INVALID JUMPDEST PUSH1 0x20 MUL ADD MLOAD DUP5 PUSH1 0x1 PUSH1 0x6 DUP2 LT PUSH2 0x1726 JUMPI INVALID JUMPDEST PUSH1 0x20 MUL ADD MLOAD PUSH2 0x11D3 JUMP JUMPDEST DUP3 PUSH1 0x2 PUSH1 0x6 DUP2 LT PUSH2 0x173D JUMPI INVALID JUMPDEST PUSH1 0x20 MUL ADD DUP4 PUSH1 0x3 PUSH1 0x6 DUP2 LT PUSH2 0x174E JUMPI INVALID JUMPDEST PUSH1 0x20 MUL ADD DUP3 DUP2 MSTORE POP DUP3 DUP2 MSTORE POP POP POP PUSH2 0x1768 DUP14 DUP14 PUSH1 0x2 PUSH2 0x192A JUMP JUMPDEST DUP3 PUSH1 0x0 PUSH1 0x6 DUP2 LT PUSH2 0x1775 JUMPI INVALID JUMPDEST PUSH1 0x20 MUL ADD DUP4 PUSH1 0x1 PUSH1 0x6 DUP2 LT PUSH2 0x1786 JUMPI INVALID JUMPDEST PUSH1 0x20 MUL ADD DUP3 DUP2 MSTORE POP DUP3 DUP2 MSTORE POP POP POP PUSH2 0x17C2 DUP2 PUSH1 0x0 PUSH1 0x6 DUP2 LT PUSH2 0x17A4 JUMPI INVALID JUMPDEST PUSH1 0x20 MUL ADD MLOAD DUP3 PUSH1 0x1 PUSH1 0x6 DUP2 LT PUSH2 0x17B6 JUMPI INVALID JUMPDEST PUSH1 0x20 MUL ADD MLOAD DUP12 DUP12 PUSH2 0x10C5 JUMP JUMPDEST DUP3 PUSH1 0x0 PUSH1 0x6 DUP2 LT PUSH2 0x17CF JUMPI INVALID JUMPDEST PUSH1 0x20 MUL ADD DUP4 PUSH1 0x1 PUSH1 0x6 DUP2 LT PUSH2 0x17E0 JUMPI INVALID JUMPDEST PUSH1 0x20 MUL ADD DUP3 DUP2 MSTORE POP DUP3 DUP2 MSTORE POP POP POP PUSH2 0x181C DUP10 DUP10 DUP4 PUSH1 0x4 PUSH1 0x6 DUP2 LT PUSH2 0x1800 JUMPI INVALID JUMPDEST PUSH1 0x20 MUL ADD MLOAD DUP5 PUSH1 0x5 PUSH1 0x6 DUP2 LT PUSH2 0x1812 JUMPI INVALID JUMPDEST PUSH1 0x20 MUL ADD MLOAD PUSH2 0x10C5 JUMP JUMPDEST DUP3 PUSH1 0x4 PUSH1 0x6 DUP2 LT PUSH2 0x1829 JUMPI INVALID JUMPDEST PUSH1 0x20 MUL ADD DUP4 PUSH1 0x5 PUSH1 0x6 DUP2 LT PUSH2 0x183A JUMPI INVALID JUMPDEST PUSH1 0x20 MUL ADD DUP3 DUP2 MSTORE POP DUP3 DUP2 MSTORE POP POP POP PUSH2 0x1876 DUP2 PUSH1 0x4 PUSH1 0x6 DUP2 LT PUSH2 0x1858 JUMPI INVALID JUMPDEST PUSH1 0x20 MUL ADD MLOAD DUP3 PUSH1 0x5 PUSH1 0x6 DUP2 LT PUSH2 0x186A JUMPI INVALID JUMPDEST PUSH1 0x20 MUL ADD MLOAD PUSH1 0x8 PUSH2 0x192A JUMP JUMPDEST DUP3 PUSH1 0x4 PUSH1 0x6 DUP2 LT PUSH2 0x1883 JUMPI INVALID JUMPDEST PUSH1 0x20 MUL ADD DUP4 PUSH1 0x5 PUSH1 0x6 DUP2 LT PUSH2 0x1894 JUMPI INVALID JUMPDEST PUSH1 0x20 MUL ADD DUP3 DUP2 MSTORE POP DUP3 DUP2 MSTORE POP POP POP DUP1 PUSH1 0x0 PUSH1 0x6 DUP2 LT PUSH2 0x18AF JUMPI INVALID JUMPDEST PUSH1 0x20 MUL ADD MLOAD DUP2 PUSH1 0x1 PUSH1 0x6 DUP2 LT PUSH2 0x18C1 JUMPI INVALID JUMPDEST PUSH1 0x20 MUL ADD MLOAD DUP3 PUSH1 0x2 PUSH1 0x6 DUP2 LT PUSH2 0x18D3 JUMPI INVALID JUMPDEST PUSH1 0x20 MUL ADD MLOAD DUP4 PUSH1 0x3 PUSH1 0x6 DUP2 LT PUSH2 0x18E5 JUMPI INVALID JUMPDEST PUSH1 0x20 MUL ADD MLOAD DUP5 PUSH1 0x4 PUSH1 0x6 DUP2 LT PUSH2 0x18F7 JUMPI INVALID JUMPDEST PUSH1 0x20 MUL ADD MLOAD DUP6 PUSH1 0x5 PUSH1 0x6 DUP2 LT PUSH2 0x1909 JUMPI INVALID JUMPDEST PUSH1 0x20 MUL ADD MLOAD SWAP7 POP SWAP7 POP SWAP7 POP SWAP7 POP SWAP7 POP SWAP7 POP POP SWAP7 POP SWAP7 POP SWAP7 POP SWAP7 POP SWAP7 POP SWAP7 SWAP1 POP JUMP JUMPDEST PUSH1 0x0 DUP1 PUSH32 0x30644E72E131A029B85045B68181585D97816A916871CA8D3C208C16D87CFD47 DUP1 PUSH2 0x1955 JUMPI INVALID JUMPDEST DUP4 DUP7 MULMOD PUSH32 0x30644E72E131A029B85045B68181585D97816A916871CA8D3C208C16D87CFD47 DUP1 PUSH2 0x1980 JUMPI INVALID JUMPDEST DUP5 DUP7 MULMOD SWAP2 POP SWAP2 POP SWAP4 POP SWAP4 SWAP2 POP POP JUMP JUMPDEST PUSH1 0x0 DUP1 PUSH1 0x0 PUSH2 0x1A3C PUSH32 0x30644E72E131A029B85045B68181585D97816A916871CA8D3C208C16D87CFD47 DUP1 PUSH2 0x19BF JUMPI INVALID JUMPDEST PUSH32 0x30644E72E131A029B85045B68181585D97816A916871CA8D3C208C16D87CFD47 DUP1 PUSH2 0x19E7 JUMPI INVALID JUMPDEST DUP8 DUP9 MULMOD PUSH32 0x30644E72E131A029B85045B68181585D97816A916871CA8D3C208C16D87CFD47 DUP1 PUSH2 0x1A12 JUMPI INVALID JUMPDEST DUP8 DUP9 MULMOD ADDMOD PUSH32 0x30644E72E131A029B85045B68181585D97816A916871CA8D3C208C16D87CFD47 PUSH2 0x1ADA JUMP JUMPDEST SWAP1 POP PUSH32 0x30644E72E131A029B85045B68181585D97816A916871CA8D3C208C16D87CFD47 DUP1 PUSH2 0x1A66 JUMPI INVALID JUMPDEST DUP2 DUP7 MULMOD PUSH32 0x30644E72E131A029B85045B68181585D97816A916871CA8D3C208C16D87CFD47 DUP1 PUSH2 0x1A91 JUMPI INVALID JUMPDEST DUP3 DUP7 MULMOD PUSH32 0x30644E72E131A029B85045B68181585D97816A916871CA8D3C208C16D87CFD47 SUB SWAP3 POP SWAP3 POP POP SWAP3 POP SWAP3 SWAP1 POP JUMP JUMPDEST PUSH1 0x0 DUP2 DUP1 PUSH2 0x1ACC JUMPI INVALID JUMPDEST DUP4 DUP4 SUB DUP6 ADDMOD SWAP1 POP SWAP4 SWAP3 POP POP POP JUMP JUMPDEST PUSH1 0x0 DUP1 PUSH1 0x40 MLOAD PUSH1 0x20 DUP2 MSTORE PUSH1 0x20 DUP1 DUP3 ADD MSTORE PUSH1 0x20 PUSH1 0x40 DUP3 ADD MSTORE DUP5 PUSH1 0x60 DUP3 ADD MSTORE PUSH1 0x2 DUP5 SUB PUSH1 0x80 DUP3 ADD MSTORE DUP4 PUSH1 0xA0 DUP3 ADD MSTORE PUSH1 0x20 DUP2 PUSH1 0xC0 DUP4 PUSH1 0x5 PUSH2 0x7D0 GAS SUB PUSH2 0x1B1B PUSH2 0x1C3F JUMP JUMPDEST POP POP POP POP POP SWAP2 POP DUP1 MLOAD SWAP3 POP POP DUP1 PUSH2 0x1B86 JUMPI PUSH1 0x40 MLOAD PUSH32 0x8C379A000000000000000000000000000000000000000000000000000000000 DUP2 MSTORE PUSH1 0x4 ADD DUP1 DUP1 PUSH1 0x20 ADD DUP3 DUP2 SUB DUP3 MSTORE PUSH1 0x25 DUP2 MSTORE PUSH1 0x20 ADD DUP1 PUSH2 0x1D40 PUSH1 0x25 SWAP2 CODECOPY PUSH1 0x40 ADD SWAP2 POP POP PUSH1 0x40 MLOAD DUP1 SWAP2 SUB SWAP1 PUSH2 0x1B83 PUSH2 0x1B8D JUMP JUMPDEST POP POP JUMPDEST POP SWAP3 SWAP2 POP POP JUMP JUMPDEST PUSH4 0x2A2A7ADB MSIZE DUP2 PUSH1 0xE0 SHL DUP2 MSTORE PUSH1 0x4 DUP2 ADD PUSH1 0x20 DUP2 MSTORE DUP6 PUSH1 0x20 DUP3 ADD MSTORE PUSH1 0x0 JUMPDEST DUP7 DUP2 LT ISZERO PUSH2 0x1BC8 JUMPI DUP1 DUP7 ADD MLOAD DUP2 PUSH1 0x40 DUP5 ADD ADD MSTORE PUSH1 0x20 DUP2 ADD SWAP1 POP PUSH2 0x1BAA JUMP JUMPDEST POP PUSH1 0x20 DUP3 DUP8 PUSH1 0x64 ADD DUP5 CALLER PUSH1 0x0 SWAP1 GAS CALL PC PUSH1 0xE ADD JUMPI RETURNDATASIZE PUSH1 0x0 DUP1 RETURNDATACOPY RETURNDATASIZE PUSH1 0x0 REVERT JUMPDEST RETURNDATASIZE PUSH1 0x1 EQ ISZERO PC PUSH1 0xA ADD JUMPI PUSH1 0x1 PUSH1 0x0 RETURN JUMPDEST POP POP POP JUMP JUMPDEST PUSH1 0x40 MLOAD DUP1 PUSH1 0x80 ADD PUSH1 0x40 MSTORE DUP1 PUSH1 0x4 SWAP1 PUSH1 0x20 DUP3 MUL DUP1 CALLDATASIZE DUP4 CALLDATACOPY DUP1 DUP3 ADD SWAP2 POP POP SWAP1 POP POP SWAP1 JUMP JUMPDEST PUSH1 0x40 MLOAD DUP1 PUSH1 0xC0 ADD PUSH1 0x40 MSTORE DUP1 PUSH1 0x6 SWAP1 PUSH1 0x20 DUP3 MUL DUP1 CALLDATASIZE DUP4 CALLDATACOPY DUP1 DUP3 ADD SWAP2 POP POP SWAP1 POP POP SWAP1 JUMP JUMPDEST PUSH4 0x8540661F MSIZE DUP2 PUSH1 0xE0 SHL DUP2 MSTORE PUSH2 0x1C7E JUMP JUMPDEST PUSH1 0x0 DUP2 SWAP1 POP DUP2 DUP4 GT ISZERO PUSH2 0x1C61 JUMPI DUP3 SWAP1 POP JUMPDEST SWAP3 SWAP2 POP POP JUMP JUMPDEST PUSH1 0x0 DUP2 SWAP1 POP DUP2 DUP4 LT ISZERO PUSH2 0x1C78 JUMPI DUP3 SWAP1 POP JUMPDEST SWAP3 SWAP2 POP POP JUMP JUMPDEST DUP4 PUSH1 0x4 DUP3 ADD MSTORE DUP5 PUSH1 0x24 DUP3 ADD MSTORE PUSH1 0x60 PUSH1 0x44 DUP3 ADD MSTORE DUP7 PUSH1 0x64 DUP3 ADD MSTORE PUSH1 0x84 DUP2 ADD PUSH1 0x0 JUMPDEST DUP9 DUP2 LT ISZERO PUSH2 0x1CB9 JUMPI DUP1 DUP9 ADD MLOAD DUP2 DUP4 ADD MSTORE PUSH1 0x20 DUP2 ADD SWAP1 POP PUSH2 0x1C9E JUMP JUMPDEST POP PUSH1 0x60 DUP3 DUP10 PUSH1 0xA4 ADD DUP5 CALLER PUSH1 0x0 SWAP1 GAS CALL PC PUSH1 0xE ADD JUMPI RETURNDATASIZE PUSH1 0x0 DUP1 RETURNDATACOPY RETURNDATASIZE PUSH1 0x0 REVERT JUMPDEST RETURNDATASIZE PUSH1 0x1 EQ ISZERO PC PUSH1 0xA ADD JUMPI PUSH1 0x1 PUSH1 0x0 RETURN JUMPDEST DUP2 MLOAD PUSH1 0x40 DUP4 ADD MLOAD RETURNDATASIZE PUSH1 0x0 DUP6 RETURNDATACOPY DUP12 DUP12 DUP3 PUSH1 0x60 DUP8 ADD CALLER POP PUSH1 0x0 PUSH1 0x4 GAS CALL POP MSIZE PUSH2 0x1D0E DUP14 RETURNDATASIZE PUSH2 0x1C67 JUMP JUMPDEST DUP13 ADD PUSH2 0x1D1A DUP2 DUP8 PUSH2 0x1C50 JUMP JUMPDEST JUMPDEST DUP3 DUP2 LT ISZERO PUSH2 0x1D32 JUMPI PUSH1 0x0 DUP2 MSTORE PUSH1 0x20 DUP2 ADD SWAP1 POP PUSH2 0x1D1B JUMP JUMPDEST POP DUP4 SWAP14 POP POP POP POP POP POP POP POP JUMP INVALID PUSH6 0x72726F722063 PUSH2 0x6C63 PUSH22 0x6C6174696E6720746865206D6F64756C617220696E76 PUSH6 0x727365000000 "
        },
        "gasEstimates": {
          "creation": {
            "codeDepositCost": "1505000",
            "executionCost": "infinite",
            "totalCost": "infinite"
          },
          "external": {
            "_ecTwistAdd(uint256[8])": "infinite",
            "_ecTwistMul(uint256[5])": "infinite"
          }
        },
        "methodIdentifiers": {
          "_ecTwistAdd(uint256[8])": "aab6f13c",
          "_ecTwistMul(uint256[5])": "cc2e4d31"
        }
      },
      "storageLayout": {
        "storage": [],
        "types": null
      },
      "userdoc": {
        "kind": "user",
        "methods": {},
        "version": 1
      }
    }
  }
}