{
  "contractName": "BN256G1",
  "abi": [
    {
      "inputs": [],
      "name": "GX",
      "outputs": [
        {
          "internalType": "uint256",
          "name": "",
          "type": "uint256"
        }
      ],
      "stateMutability": "view",
      "type": "function"
    },
    {
      "inputs": [],
      "name": "GY",
      "outputs": [
        {
          "internalType": "uint256",
          "name": "",
          "type": "uint256"
        }
      ],
      "stateMutability": "view",
      "type": "function"
    }
  ],
  "bytecode": "0x60a0610024600b82828239805160001a607314601757fe5b30600052607381538281f3fe7300000000000000000000000000000000000000003014608060405260043610603d5760003560e01c806303a507be1460425780637a308a4c14605a575b600080fd5b60486060565b60408051918252519081900360200190f35b60486065565b600181565b60028156fea26469706673582212204eacef1178c191e911511b8a7d14a888e3a7984630104517429f62fd66ed889064736f6c63430006080033",
  "immutableReferences": {},
  "source": "// SPDX-License-Identifier: MIT\n// solium-disable security/no-assign-params\n\npragma solidity >=0.5.3 <0.9.0;\n\nimport \"../contracts/EllipticCurve.sol\";\n\n\n/**\n * @title BN256G1 Curve Library\n * @dev Library providing arithmetic operations over G1 in bn256.\n * Provides additional methods like pairing and pairing_batch\n * Heavily influenced by https://github.com/PhilippSchindler/ethdkg\n * Calls to assembly are public and not external because assembly cannot be applied on calldata\n * @author Witnet Foundation\n */\n\nlibrary BN256G1 {\n\n  // Generator coordinate `x` of the EC curve\n  uint256 public constant GX = 1;\n  // Generator coordinate `y` of the EC curve\n  uint256 public constant GY = 2;\n  // Constant `a` of EC equation\n  uint256 internal constant AA = 0;\n  // Constant `b` of EC equation\n  uint256 internal constant BB = 3;\n  // Prime number of the curve\n  uint256 internal constant PP = 0x30644e72e131a029b85045b68181585d97816a916871ca8d3c208c16d87cfd47;\n  // Order of the curve\n  uint256 internal constant NN = 0x30644e72e131a029b85045b68181585d2833e84879b9709143e1f593f0000001;\n\n  // This is 0xf1f5883e65f820d099915c908786b9d3f58714d70a38f4c22ca2bc723a70f263, the last mulitple of the modulus before 2^256\n  uint256 internal constant LAST_MULTIPLE_OF_PP_LOWER_THAN_2_256 = 0xf1f5883e65f820d099915c908786b9d3f58714d70a38f4c22ca2bc723a70f263;\n\n\n  /// @dev  computes P + Q\n  /// @param input: 4 values of 256 bits each\n  ///  *) x-coordinate of point P\n  ///  *) y-coordinate of point P\n  ///  *) x-coordinate of point Q\n  ///  *) y-coordinate of point Q\n  /// @return An array with x and y coordinates of P+Q.\n  function add(uint256[4] memory input) internal returns (uint256, uint256) {\n    bool success;\n    uint256[2] memory result;\n    assembly {\n      // 0x06     id of the bn256Add precompile\n      // 0        number of ether to transfer\n      // 128      size of call parameters, i.e. 128 bytes total\n      // 64       size of call return value, i.e. 64 bytes / 512 bit for a BN256 curve point\n      success := call(not(0), 0x06, 0, input, 128, result, 64)\n    }\n    require(success, \"bn256 addition failed\");\n\n    return (result[0], result[1]);\n  }\n\n  /// @dev  computes P*k.\n  /// @param input: 3 values of 256 bits each:\n  ///  *) x-coordinate of point P\n  ///  *) y-coordinate of point P\n  ///  *) scalar k.\n  /// @return An array with x and y coordinates of P*k.\n  function multiply(uint256[3] memory input) internal returns (uint256, uint256) {\n    bool success;\n    uint256[2] memory result;\n    assembly {\n      // 0x07     id of the bn256ScalarMul precompile\n      // 0        number of ether to transfer\n      // 96       size of call parameters, i.e. 96 bytes total (256 bit for x, 256 bit for y, 256 bit for scalar)\n      // 64       size of call return value, i.e. 64 bytes / 512 bit for a BN256 curve point\n      success := call(not(0), 0x07, 0, input, 96, result, 64)\n    }\n    require(success, \"elliptic curve multiplication failed\");\n    return (result[0], result[1]);\n  }\n\n  /// @dev Checks if P is on G1 using the EllipticCurve library.\n  /// @param point: 2 values of 256 bits each:\n  ///  *) x-coordinate of point P\n  ///  *) y-coordinate of point P\n  /// @return true if P is in G1.\n  function isOnCurve(uint[2] memory point) internal pure returns (bool) {\n    // checks if the given point is a valid point from the first elliptic curve group\n    // uses the EllipticCurve library\n    return EllipticCurve.isOnCurve(\n      point[0],\n      point[1],\n      AA,\n      BB,\n      PP);\n  }\n\n  /// @dev Checks if e(P, Q) = e (R,S).\n  /// @param input: 12 values of 256 bits each:\n  ///  *) x-coordinate of point P\n  ///  *) y-coordinate of point P\n  ///  *) x real coordinate of point Q\n  ///  *) x imaginary coordinate of point Q\n  ///  *) y real coordinate of point Q\n  ///  *) y imaginary coordinate of point Q\n  ///  *) x-coordinate of point R\n  ///  *) y-coordinate of point R\n  ///  *) x real coordinate of point S\n  ///  *) x imaginary coordinate of point S\n  ///  *) y real coordinate of point S\n  ///  *) y imaginary coordinate of point S\n  /// @return true if e(P, Q) = e (R,S).\n  function bn256CheckPairing(uint256[12] memory input) internal returns (bool) {\n    uint256[1] memory result;\n    bool success;\n    assembly {\n      // 0x08     id of the bn256CheckPairing precompile    (checking the elliptic curve pairings)\n      // 0        number of ether to transfer\n      // 0        since we have an array of fixed length, our input starts in 0\n      // 384      size of call parameters, i.e. 12*256 bits == 384 bytes\n      // 32       size of result (one 32 byte boolean!)\n      success := call(sub(gas(), 2000), 0x08, 0, input, 384, result, 32)\n    }\n    require(success, \"elliptic curve pairing failed\");\n    return result[0] == 1;\n  }\n\n  /// @dev Checks if e(P, Q) = e (R,S)*e(T,U)...\n  /// @param input: A modulo 6 length array of values of 256 bits each:\n  ///  *) x-coordinate of point P\n  ///  *) y-coordinate of point P\n  ///  *) x real coordinate of point Q\n  ///  *) x imaginary coordinate of point Q\n  ///  *) y real coordinate of point Q\n  ///  *) y imaginary coordinate of point Q\n  ///  *) x-coordinate of point R\n  ///  *) y-coordinate of point R\n  ///  *) x real coordinate of point S\n  ///  *) x imaginary coordinate of point S\n  ///  *) y real coordinate of point S\n  ///  *) y imaginary coordinate of point S\n  ///  *) and so forth with additional pairing checks\n  /// @return true if e(input[0,1], input[2,3,4,5]) = e(input[6,7], input[8,9,10,11])*e(input[12,13], input[14,15,16,17])...\n  function bn256CheckPairingBatch(uint256[] memory input) internal returns (bool) {\n    uint256[1] memory result;\n    bool success;\n    require(input.length % 6 == 0, \"Incorrect input length\");\n    uint256 inLen = input.length * 32;\n    assembly {\n      // 0x08     id of the bn256CheckPairing precompile     (checking the elliptic curve pairings)\n      // 0        number of ether to transfer\n      // add(input, 0x20) since we have an unbounded array, the first 256 bits refer to its length\n      // 384      size of call parameters, i.e. 12*256 bits == 384 bytes\n      // 32       size of result (one 32 byte boolean!)\n      success := call(sub(gas(), 2000), 0x08, 0, add(input, 0x20), inLen, result, 32)\n    }\n    require(success, \"elliptic curve pairing failed\");\n    return result[0] == 1;\n  }\n\n  /// @dev Function to transform compressed bytes into a x and a y coordinate in the curve.\n  /// @param _point The point bytes\n  /// @return The coordinates `x` and `y` in an array\n  function fromCompressed(bytes memory _point) internal pure returns (uint256, uint256) {\n    require(_point.length == 33, \"invalid encoding\");\n    uint8 sign;\n    uint256 x;\n    assembly {\n      sign := mload(add(_point, 1))\n\t    x := mload(add(_point, 33))\n    }\n\n    return (\n      x, deriveY(\n        sign,\n        x)\n      );\n  }\n\n  /// @dev Function to convert a `Hash(msg|DATA)` to a point in the curve as defined in [VRF-draft-04](https://tools.ietf.org/pdf/draft-irtf-cfrg-vrf-04).\n  /// @param _message The message used for computing the VRF\n  /// @return The hash point in affine coordinates\n  function hashToTryAndIncrement(bytes memory _message) internal pure returns (uint, uint) {\n    // Find a valid EC point\n    // Loop over counter ctr starting at 0x00 and do hash\n    for (uint8 ctr = 0; ctr < 256; ctr++) {\n      // Counter update\n      // c[cLength-1] = byte(ctr);\n      bytes32 sha = sha256(abi.encodePacked(_message, ctr));\n      // Step 4: arbitraty string to point and check if it is on curve\n      uint hPointX = uint256(sha);\n      // Avoid hashes that are above the last multiple of _PP, otherwise odds are biased\n      if (hPointX >= LAST_MULTIPLE_OF_PP_LOWER_THAN_2_256) {\n        continue;\n      }\n      // Do the modulus to avoid excesive iterations of the loop\n      hPointX = hPointX % PP;\n      uint hPointY = deriveY(2, hPointX);\n      // we do not use the subsidized one as it appears to consume more gas\n      if (isOnCurve([hPointX,hPointY])) {\n        // Step 5 (omitted): calculate H (cofactor is 1 on bn256g1)\n        // If H is not \"INVALID\" and cofactor > 1, set H = cofactor * H\n        return (hPointX, hPointY);\n      }\n    }\n    revert(\"No valid point was found\");\n  }\n\n  /// @dev Function to derive the `y` coordinate given the `x` coordinate and the parity byte (`0x03` for odd `y` and `0x04` for even `y`).\n  /// @param _yByte The parity byte following the ec point compressed format\n  /// @param _x The coordinate `x` of the point\n  /// @return The coordinate `y` of the point\n  function deriveY(uint8 _yByte, uint256 _x) internal pure returns (uint256) {\n    return EllipticCurve.deriveY(\n      _yByte,\n      _x,\n      AA,\n      BB,\n      PP);\n  }\n\n}\n",
  "sourcePath": "/home/mrjjavier/Escritorio/opsie/bls-solidity/contracts/BN256G1.sol",
  "compiler": {
    "name": "solc",
    "version": "0.6.8+commit.0bbfe453.Emscripten.clang"
  },
  "schemaVersion": "3.4.1",
  "updatedAt": "2021-06-14T15:20:38.727Z",
  "devdoc": {
    "author": "Witnet Foundation",
    "details": "Library providing arithmetic operations over G1 in bn256. Provides additional methods like pairing and pairing_batch Heavily influenced by https://github.com/PhilippSchindler/ethdkg Calls to assembly are public and not external because assembly cannot be applied on calldata",
    "methods": {},
    "title": "BN256G1 Curve Library"
  },
  "userdoc": {
    "methods": {}
  }
}